:020000040800F2
:1000000078070020910F00085502000857020008E9
:100010005B0200085F0200086302000800000000A5
:10002000000000000000000000000000670200085F
:1000300069020008000000006B0200086D02000861
:10004000AB0F0008AB0F0008AB0F0008AB0F0008A8
:10005000AB0F0008AB0F0008B5060008AB0F000897
:10006000E10600080F07000839070008AB0F000879
:10007000AB0F0008AB0F0008AB0F0008AB0F000878
:10008000AB0F0008AB0F0008AB0F0008AB0F000868
:10009000AB0F0008AB0F0008AB0F0008AB0F000858
:1000A000AB0F0008AB0F0008AB0F0008AB0F000848
:1000B000AB0F0008AB0F0008AB0F0008AB0F000838
:1000C000AB0F0008AB0F0008AB0F0008AB0F000828
:1000D000AB0F0008070F0008AB0F0008AB0F0008BC
:1000E000AB0F0008AB0F0008AB0F0008AB0F000808
:1000F000AB0F0008AB0F0008AB0F0008AB0F0008F8
:10010000AB0F0008AB0F0008AB0F0008AB0F0008E7
:10011000AB0F0008AB0F0008AB0F0008AB0F0008D7
:10012000AB0F0008AB0F0008AB0F0008AB0F0008C7
:1001300000F002F800F03FF80AA090E8000C8244BA
:100140008344AAF10107DA4501D100F034F8AFF297
:10015000090EBAE80F0013F0010F18BFFB1A43F0A5
:1001600001031847A4220000C4220000103A24BF53
:1001700078C878C1FAD8520724BF30C830C144BF0C
:1001800004680C607047000000230024002500264E
:10019000103A28BF78C1FBD8520728BF30C148BFEA
:1001A0000B607047642901F0D585002070471FB5AA
:1001B0001FBD10B510BD01F095FE1146FFF7F7FF0A
:1001C00000F008F801F0B3FE03B4FFF7F2FF03BC40
:1001D00000F03EFE00F0D2FD4FF4A06000F0F8FE0B
:1001E0004FF4E13000F043FE00F032F900F0D4F9B2
:1001F00000F054F900F0ECF900F0A1FD00200A49EC
:10020000086000F0D0FA0EE00849094800F06BFDE4
:10021000064802780648017806A001F05BFD4FF41D
:100220007A7000F0E8FDEFE79481214201000020A0
:1002300000000020CEC2B6C83D256420202020202A
:1002400020202020202020202020CAAAB6C83D251A
:10025000640D0A00704700BFFEE700BFFEE700BF65
:10026000FEE700BFFEE77047704770477047000029
:100270000CB50020019000906C48006840F480307C
:100280006A49086000BF6948006800F400300090C7
:100290000198401C0190009818B90198B0F5A06F22
:1002A000F1D16248006800F4003010B101200090E4
:1002B00001E0002000900098012843D15C480068CC
:1002C00040F010005A4908600846006820F003001A
:1002D00008600846006840F0020008605348406823
:1002E000524948600846406848600846406840F403
:1002F000806048600846406820F47C1048600846EA
:10030000406840F4E81048600846006840F080709B
:10031000086000BF4548006800F000700028F9D070
:100320004248406820F00300404948600846406861
:1003300040F00200486000BF3C48406800F00C00FC
:100340000828F9D10CBD10B5FFF792FF10BD10B50C
:100350003648006840F001003449086008464068AB
:10036000344908403149486008460068324908402D
:100370002E4908600846006820F48020086008467E
:10038000406820F4FE0048604FF41F008860FFF7CB
:10039000DAFF4FF000602949086010BD10B5002158
:1003A00000200022214B5B6803F00C0121B10429DD
:1003B00006D0082928D107E0214B224C236027E0F2
:1003C0001F4B204C236023E0184B5B6803F4701034
:1003D000164B5B6803F48032022303EB904022B992
:1003E000194B4343174C23600DE0104B5B6803F43B
:1003F000003323B1144B4343124C236003E0104BF2
:100400004343104C236003E00D4B0E4C236000BFB0
:1004100000BF064B5B68C3F303130C4CE15C094B54
:100420001B68CB40074C236010BD00000010024049
:10043000002002400000FFF8FFFFF6FE08ED00E09C
:1004400000127A000400002000093D00080000208E
:1004500008B50121482001F045F92020ADF8000041
:1004600010208DF8030003208DF80200694609482A
:1004700000F07CFE2021074800F025FF2020ADF889
:1004800000006946044800F071FE2021024800F097
:100490001AFF08BD000C01400018014008B50121F9
:1004A000442001F01FF91C20ADF8000048208DF811
:1004B00003006946354800F059FE0120ADF8000000
:1004C00028208DF803006946314800F04FFE08BD32
:1004D00010B5044614B101202E4908702D4800784B
:1004E000002837D01021294800F0D3FE78B1082128
:1004F000264800F0CEFE50B10421244800F0C9FE89
:1005000028B10121224800F0C4FE012822D10A208E
:1005100000F071FC00201F49087010211B4800F0FA
:10052000B8FE08B9012010BD0821184800F0B1FE3E
:1005300008B90220F7E70421144800F0AAFE08B920
:100540000320F0E70121124800F0A3FE01281BD18F
:100550000420E8E710210D4800F09BFE012813D18C
:1005600008210A4800F095FE01280DD10421074812
:1005700000F08FFE012807D10121054800F089FE17
:1005800010B90120034908700020CCE70018014091
:10059000000801401800002008B50121082001F0E2
:1005A000A1F84FF48070ADF8000010208DF8030022
:1005B00003208DF802006946044800F0D7FD4FF48F
:1005C0008071024800F081FE08BD0000000C01406F
:1005D0000EB5FFF763FF0121084601F083F8022101
:1005E000042000F0D9FE0420019000208DF80800BE
:1005F0000C208DF8090001208DF80A0001A801F0F7
:10060000E7FA0321042000F0C7FE0820019001A8AA
:1006100001F0DEFA0421084600F0BEFE1020019031
:1006200001A801F0D5FA0021084600F0B5FE01202E
:10063000019008208DF8090001A801F0C9FA0620F0
:100640008DF8000002208DF8010003208DF80200D3
:1006500001208DF80300684600F0BFFC08208DF8EB
:10066000000002208DF801008DF8020001208DF8B5
:100670000300684600F0B1FC09208DF8000002205C
:100680008DF8010001208DF802008DF80300684606
:1006900000F0A3FC0A208DF8000002208DF8010074
:1006A00000208DF8020001208DF80300684600F05C
:1006B00094FC0EBD10B50A2000F09DFB01212E48D0
:1006C00000F0E7FD012807D12C48006808B9012097
:1006D00000E0002029490860012001F0F0FA10BD77
:1006E00010B50A2000F087FB0421254800F0D1FD59
:1006F00048B922480C38006808B9012000E0002001
:100700001E490C390860042001F0D9FA10BD10B55B
:100710000A2000F070FB0821194800F0BAFD38B932
:100720001848006808B9012000E000201549086059
:10073000082001F0C4FA10BD10B50A2000F05BFBE0
:1007400010210F4800F0A5FD90B90C480C38006846
:1007500008B9012000E0002008490C3908600A4867
:10076000D0F8940108B9012000E000200549086094
:10077000102001F0A4FA10BD00080140A081214220
:1007800000180140940123420000234210B50446A2
:1007900000F0E9F8462000F0B0F9204600F0ADF98D
:1007A00000F00AF910BD10B500F0C4F80120FFF701
:1007B000EDFF10BD10B500F0D6F8462000F09DF911
:1007C00000F01CF9202000F098F900F017F900F073
:1007D000F3F8C82000F00FFB00F0C5F8472000F048
:1007E0008CF900F00BF9012000F0C1F94D490870B7
:1007F000002000F0BCF94B49487000F0DDF810BD56
:1008000070B50024002500F0AEF8462000F075F920
:1008100000F0F4F8102000F070F900F0EFF800F0AC
:10082000CBF8C82000F0E7FA00F09DF8472000F070
:1008300064F900F0E3F8012000F099F90446002083
:1008400000F095F9054600F0B7F805EB04203649AD
:10085000088008460088354908600846008880B24C
:1008600070BD10B500F07FF8462000F046F900F0AA
:10087000C5F8102000F041F900F0C0F800F09CF835
:10088000C82000F0B8FA00F06EF8472000F035F903
:1008900000F0B4F8012000F06AF922490870002045
:1008A00000F065F91F49487000F086F810BD10B5DA
:1008B00000F059F8472000F020F9012000F057F926
:1008C00018490870002000F052F91649487000F0ED
:1008D00073F8052000F06BFAC82000F08CFA10BD08
:1008E0002DE9F0410F4800780F4908800D48407805
:1008F000097800EB01200C4908800846008801F0C7
:1009000029FD804601F0FAFC06464FF03332084BD1
:1009100001F01AFB044601F06FFC04490860BDE8D1
:10092000F08100001C00002024000020280000208E
:100930003333F33F08B50121082000F0D3FE4FF414
:100940004060ADF8000003208DF8020010208DF803
:1009500003006946A14800F009FC4FF440619F483C
:1009600000F0B1FC08BD10B59C48001D006820F4E3
:1009700070409A49091D08600846006840F44050DC
:100980000860012096490860022000F010FA01205A
:100990009449C1F8A801052000F009FA0020904907
:1009A0000860042000F003FA00208E49C1F8A80175
:1009B000022000F0FCF910BD10B58848001D006849
:1009C00020F470408549091D08600846006840F41D
:1009D00040500860002082490860022000F0E7F9DA
:1009E00001208049C1F8A801052000F0E0F90120AC
:1009F0007B490860042000F0DAF910BD10B500242E
:100A00007648001D006820F470407449091D086094
:100A10000846006840F40040086001207049086002
:100A2000022000F0C4F901206E49C1F8A80102209B
:100A300000F0BDF907E0601CC4B2FA2C03DBFFF73D
:100A4000BBFF012010BD6648803800680028F2D145
:100A50006349091F086000BFF4E710B50020604932
:100A6000091F08605D48001D006820F470405B4964
:100A7000091D08600846006840F4405008600020E6
:100A80005849C1F8AC01022000F091F90120544905
:100A9000091F0860042000F08AF900205149C1F8BC
:100AA000A801022000F083F910BD10B500204C49C8
:100AB000091F08604948001D006820F4704047493C
:100AC000091D08600846006840F440500860012095
:100AD0004449C1F8AC01022000F069F90120404905
:100AE000091F0860042000F062F900203D49C1F8A8
:100AF000A801022000F05BF910BD70B5054637482B
:100B0000001D006820F470403449091D0860084643
:100B1000006840F44050086000241EE005FA04F02C
:100B200000F0800018B101202D49086002E000208B
:100B30002B490860022000F03AF901202849091FDA
:100B40000860042000F033F900202649C1F8A8010C
:100B5000022000F02CF9601CC4B2082CDEDB00205F
:100B60001F49091F0860022000F021F970BD70B50F
:100B7000054600241948001D006820F470401749FC
:100B8000091D08600846006840F40040086000261F
:100B90001AE000201249091F0860052000F007F93B
:100BA00001201049C1F8A801022000F000F96006F8
:100BB000040E0B488038006808B1601CC4B20220E3
:100BC00000F0F5F8701CC6B2082EE2DB15B9FFF78D
:100BD0006CFF01E0FFF741FF204670BD000C0140B3
:100BE000AC8121420080214210B56148006820F0AC
:100BF000F0005F4908600846006840F03000086077
:100C000000205C490860142000F0F5F801205A49E2
:100C1000C1F8A4011E2000F0CAF810BD10B50024D0
:100C20005348006820F0F000514908600846006809
:100C300040F08000086004E0601CC4B2012000F0B5
:100C4000B6F84C488038006808B1642CF4DB642C9A
:100C500001DB012010BD002404E0601CC4B20120AF
:100C600000F0A5F843488038006808B9642CF4DB2C
:100C7000642C01DB0120EDE70020EBE710B5002438
:100C800004E0601CC4B2012000F091F839488038BB
:100C9000006808B1642CF4DB002404E0601CC4B2DA
:100CA000012000F084F833488038006808B9642CCB
:100CB000F4DB282000F07BF82E488038006808B16B
:100CC000012010BD0020FCE770B50024002506E0DF
:100CD0006006040EFFF7D2FF0443681CC5B2082D5E
:100CE000F6DB204670BD7CB505460E46FFF77CFF5F
:100CF000FFF794FFF8B9002405E0FFF7E5FF0DF8D2
:100D00000400601CC4B2052CF7DB9DF800009DF8C0
:100D1000011008449DF8021008449DF8031008448F
:100D20009DF80410884208D19DF8000030709DF8AD
:100D30000200287001E001207CBD0020FCE708B51E
:100D40000121082000F0CEFC4FF40070ADF8000047
:100D500010208DF8030003208DF802006946044836
:100D6000001F00F003FAFFF73FFFFFF757FF08BD32
:100D7000040C0140A48121420080214210B56FF093
:100D8000040000F074F92E4800682E49B0FBF1F021
:100D90002D4908700846007800EB4001C1EBC010F7
:100DA0004FF6FF7101EAC0002849088010BD0146D6
:100DB000254A12784A434FF0E0235A6100229A6193
:100DC0001A46126942F001021A6100BF4FF0E02298
:100DD000106900F001021AB100F48032002AF5D047
:100DE0004FF0E022126922F001024FF0E0231A6175
:100DF00000229A6170470146144A12884A434FF014
:100E0000E0235A6100229A611A46126942F00102F7
:100E10001A6100BF4FF0E022106900F001021AB120
:100E200000F48032002AF5D04FF0E022126922F05F
:100E300001024FF0E0231A6100229A61704700001E
:100E40000400002000127A002C0000202E00002058
:100E5000014600BF704700BF494A128802F04002B5
:100E6000002AF9D0C2B2464B1B1D1A80704710B53C
:100E700086B00446012144F2040000F033FC4FF434
:100E80000070ADF8140003208DF8160018208DF8BE
:100E9000170005A93B4800F069F94FF48060ADF8F0
:100EA000140004208DF8170005A9364800F05EF9FB
:100EB00025208DF8000003208DF801008DF8020038
:100EC00001208DF80300684600F087F801940020A7
:100ED000ADF80800ADF80A00ADF80C00ADF8100050
:100EE0000C20ADF80E0001A9254800F0A2FC01225B
:100EF00040F22551224800F034FD0121204800F045
:100F000024FD06B010BD10B540F225511C4800F07C
:100F10000DFE10B31A4800F089FDC4B21A480088CB
:100F200000F40040C8B91848008800F4804060B15F
:100F30000A2C03D000201449088020E012480088C1
:100F400040F400401049088019E00D2C06D10E48ED
:100F5000008840F480400C49088010E00A4800886E
:100F6000C0F30D0009490C5407480088401C06498D
:100F7000088008460088C72801DD0020088010BDD1
:100F80000038014000080140340000204C000020DF
:100F90000948804709480047FEE7FEE7FEE7FEE70D
:100FA000FEE7FEE7FEE7FEE7FEE7FEE70448054949
:100FB000054A064B704700004F0300083101000846
:100FC00078010020780700207803002078030020B3
:100FD00031490143314A1160704770B50021002347
:100FE0000F22C47804B32D4C246804F4E064C4F5E3
:100FF000E064210AC1F10403CA40447804FA03F111
:101000008478144021430901254C0678A1550478C1
:1010100004F01F050124AC4005786D11AD0005F109
:10102000E025C5F8004109E0047804F01F0501241B
:10103000AC401C4D0678761145F8264070BD1A4A22
:101040000A400243154B1B1F1A60704739B1134AFF
:10105000121D12680243114B1B1D1A6006E00F4A55
:10106000121D126882430D4B1B1D1A607047042825
:1010700008D14FF0E021096941F004014FF0E0226E
:10108000116107E04FF0E021096921F004014FF000
:10109000E0221161704700000000FA050CED00E04D
:1010A00000E400E080E100E080FFFF1F10B504468F
:1010B000CC48844208D10121042000F02DFB0021FE
:1010C000042000F029FB46E0C748844208D10121F2
:1010D000082000F021FB0021082000F01DFB3AE071
:1010E000C248844208D10121102000F015FB0021E4
:1010F000102000F011FB2EE0BD48844208D10121F0
:10110000202000F009FB0021202000F005FB22E058
:10111000B848844208D10121402000F0FDFA0021A6
:10112000402000F0F9FA16E0B348844208D10121CA
:10113000802000F0F1FA0021802000F0EDFA0AE0B2
:10114000AE48844207D10121801500F0E5FA002164
:10115000A01500F0E1FA10BD10B50121084600F01D
:10116000DBFA0021012000F0D7FA10BD2DE9F04193
:10117000024600250026002000230024002791F8C5
:1011800003C00CF00F0591F803C00CF0100CBCF17B
:10119000000F03D091F802C04CEA050591F800C099
:1011A000BCF1000F31D0146800202BE04FF0010C8F
:1011B0000CFA00F3B1F800C00CEA03069E4220D1FD
:1011C00083004FF00F0C0CFA03F7BC4305FA03FC45
:1011D0004CEA040491F803C0BCF1280F06D14FF08B
:1011E000010C0CFA00FCC2F814C00AE091F803C02C
:1011F000BCF1480F05D14FF0010C0CFA00FCC2F80D
:1012000010C0401C0828D1D31460B1F800C0BCF154
:10121000FF0F34DD546800202EE000F1080C4FF081
:10122000010808FA0CF3B1F800C00CEA03069E426C
:1012300021D183004FF00F0C0CFA03F7BC4305FAE1
:1012400003FC4CEA040491F803C0BCF1280F05D15B
:1012500000F1080C08FA0CF8C2F8148091F803C0E9
:10126000BCF1480F07D100F1080C4FF0010808FA53
:101270000CF8C2F81080401C0828CED35460BDE89A
:10128000F0814FF6FF710180022181700421C1704D
:1012900070470246002093680B400BB1012000E02C
:1012A000002070470146886880B2704702460020DF
:1012B000D3680B400BB1012000E0002070470146CD
:1012C000C86880B2704701617047416170470AB1D8
:1012D000016100E041617047C16070474FF48032A6
:1012E0000A43826181618261826982697047024634
:1012F0000020434B18684FF68073184040EA0210F4
:1013000008433F4B186070473E49C8617047F0B5CD
:101310000A46002300240021002500F00046B6F113
:10132000004F02D1364EF16901E0354E7168C0F3CD
:10133000034583B200F44016B6F5401F08D121F0F2
:1013400070612F4E766826F070662D4F7E6012E039
:1013500000F48016B6F5801F06D1032606FA05F4C0
:10136000A14341F0706106E0460D360103FA06F62E
:10137000B14341F0706122B1460D360103FA06F621
:10138000314300F00046B6F1004F02D11C4EF1612E
:1013900001E01B4E7160F0BD30B500228B071C0FC1
:1013A0000F2303FA04F2164B08338C1053F8243041
:1013B0009343134C08348D1044F8253023468C1089
:1013C00053F824308C07240F00FA04F423430C4C08
:1013D00008348D1044F8253030BD0A49DC310860EE
:1013E0007047000000080140000C0140001001405F
:1013F0000014014000180140001C01400020014081
:101400000000014000002042DF48006840F0010079
:10141000DD49086008464068DC490840DA49486010
:1014200008460068DA490840D7490860084600685D
:1014300020F4802008600846406820F4FE004860E0
:101440004FF41F0088607047CF49096821F480314C
:10145000CD4A11601146096821F480211160B0F570
:10146000803F03D0B0F5802F0ED106E0C649096851
:1014700041F48031C44A116007E0C349096841F46E
:10148000A021C14A116000E000BF00BF704710B545
:1014900001460022002300204A11012A02D1BA4C41
:1014A000236806E0022A02D1B74C236A01E0B64C59
:1014B000636A01F01F02012494401C400CB101201A
:1014C00000E0002010BD38B5002000900024002569
:1014D00000BF3120FFF7DBFF05460098401C00905D
:1014E0000098B0F5A06F01D0002DF2D03120FFF7A9
:1014F000CEFF08B1012400E00024204638BD01469B
:101500000020A14A106820F0F80040EAC1001060F5
:101510007047A04908607047024600209A4B5868FF
:1015200020F47C1042EA01031843974B586070473F
:1015300098490866704701460020934A506820F099
:1015400003000843506070478F48406800F00C006B
:101550007047014600208C4A506820F0F000084394
:101560005060704701460020874A506820F4E060D0
:1015700008435060704701460020834A506820F4B9
:10158000605040EAC1005060704729B17E4A527AEB
:1015900002437D4B5A7204E07B4A527A82437A4B73
:1015A0005A7270477B49D831086070470146002065
:1015B000754A506820F4404008435060704700214D
:1015C000714A20321170704A82F82010012802D02E
:1015D00004280AD104E001216B4A2032117005E091
:1015E0000521694A2032117000E000BF00BF70473A
:1015F0006949086070476449096A0143624A116297
:101600007047654944390860704730B500210022B1
:10161000002400235C4D6D6805F00C0121B1042904
:1016200005D0082923D105E05C4D056022E05B4D23
:1016300005601FE0544D6D6805F47012524D6D68E1
:1016400005F48034022505EB92421CB9544D5543F4
:1016500005600BE04C4D6D6805F400351DB1504D33
:101660005543056002E04D4D5543056002E04B4D8A
:10167000056000BF00BF444D6D6805F0F001090929
:10168000484D6B5C0568DD4045603F4D6D6805F475
:10169000E061090A434D6B5C4568DD4085603A4D69
:1016A0006D6805F46051C90A3E4D6B5C4568DD40CC
:1016B000C560354D6D6805F44041890B3A4D6B5C52
:1016C000C568B5FBF3F5056130BD29B12E4A5269F5
:1016D00002432D4B5A6104E02B4A526982432A4B44
:1016E0005A61704729B1284A92690243264B9A6190
:1016F00004E0254A92698243234B9A61704729B1DD
:10170000214AD2690243204BDA6104E01E4AD269C1
:1017100082431D4BDA61704729B11B4AD2680243EC
:10172000194BDA6004E0184AD2688243164BDA603B
:10173000704729B1144A12690243134B1A6104E03D
:10174000114A12698243104B1A617047124940399D
:10175000086070470F49C86470470B49C8717047EB
:101760000948406A40F08070074948627047014666
:101770000020054A92680A400AB1012000E00020DA
:101780007047014988727047001002400000FFF85E
:10179000FFFFF6FE000042428004424200127A003F
:1017A00000093D00360000204600002010B5044628
:1017B000FB48844209D101218803FFF7ADFF0021D6
:1017C0004FF48040FFF7A8FF32E0F648844209D189
:1017D00001214804FFF7ADFF00214FF40030FFF76F
:1017E000A8FF25E0F048844209D101218804FFF7D1
:1017F000A0FF00214FF48020FFF79BFF18E0EB488B
:10180000844209D10121C804FFF793FF00214FF45E
:101810000020FFF78EFF0BE0E548844208D101214C
:101820000805FFF786FF00214FF48010FFF781FFC6
:1018300010BD2DE9F04786B005460E460024A246AD
:1018400000BFA1460027B08900B100BF2F462C8AF7
:101850004CF6FF700440F08804432C82AC894EF6AD
:10186000F3100440B0883189084371890843044368
:10187000AC81AC8A4FF6FF400440B0890443AC828F
:1018800001A8FFF7C2FEC648874202D1DDF810A0CA
:1018900001E0DDF80CA0A88900F4004040B10AEB9B
:1018A000CA0000EB0A1031684900B0FBF1F807E00C
:1018B0000AEBCA0000EB0A1031688900B0FBF1F8AE
:1018C0006420B8FBF0F004012009642101FB1089B9
:1018D000A88900F4004040B1322000EBC900B0FB01
:1018E000F1F000F00700044308E0322000EB09109B
:1018F0006421B0FBF1F000F00F0004432C8106B02E
:10190000BDE8F0874FF41651016000218180C1804D
:1019100001810C21418100218181704710B502466F
:101920000020108A4FF2FF0318400B884C88234395
:101930008C882343CC8823431843108210BD002198
:10194000018041808180C180704721B1828942F449
:101950000052828104E082894DF6FF731A40828131
:101960007047F0B50346002400260025002040F60D
:101970006A17B94200D100BF1846C1F3421401F002
:101980001F06012707FA06F5012C01D10C3004E0EF
:10199000022C01D1103000E014301AB107682F4337
:1019A000076002E00768AF430760F0BD1AB1838AA1
:1019B0000B43838202E0838A8B4383827047028ACF
:1019C0004FF6F0731A400282028A0A43028270477D
:1019D00082894FF2FF731A40828182890A43828191
:1019E000704721B1828942F00202828104E082893B
:1019F0004FF6FD731A4082817047028A4FF6DF73FB
:101A00001A400282028A0A430282704721B1028A86
:101A100042F48042028204E0028A4BF6FF731A40CD
:101A200002827047C1F308028280704701468888AD
:101A3000C0F308007047818941F00101818170473E
:101A4000028BD2B20283028B42EA012202837047E8
:101A5000028B02F47F420283028B0A4302837047A7
:101A600021B1828A42F02002828204E0828A4FF60B
:101A7000DF731A408282704721B1828A42F01002DD
:101A8000828204E0828A4FF6EF731A4082827047A6
:101A900021B1828A42F00802828204E0828A4FF6F3
:101AA000F7731A408282704721B1828942F4004262
:101AB000828103E08289C2F30E028281704721B1E4
:101AC000828A42F40062828204E0828A4FF2FF73CB
:101AD0001A4082827047828A4FF6FB731A408282D4
:101AE000828A0A438282704721B1828A42F00202CE
:101AF000828204E0828A4FF6FD731A408282704728
:101B000002460020B1F5007F00D100BF13880B40D2
:101B10000BB1012000E00020704701F40072B2F523
:101B2000007F00D100BFCA430280704770B50246F3
:101B3000002400230025002040F66A16B14200D19F
:101B400000BFC1F3421501F01F03012606FA03F39B
:101B5000012D02D19689334006E0022D02D1168A6A
:101B6000334001E0968A33400C12012606FA04F451
:101B70001688344013B10CB1012000E0002070BD84
:101B800010B50022002340F66A14A14200D100BF24
:101B90000A1201249440A3B2DC43048010BD00006B
:101BA000003801400044004000480040004C004024
:101BB00000500040002044490860091D0860091DCC
:101BC0000860091D086041483F49143108607047AA
:101BD00000213D498279002A3AD00A4612680368FA
:101BE0009A430B461A600A1D126803689A430B1D3C
:101BF0001A60027911440A6803681A430A60324A7B
:101C00000832126803689A432F4B08331A601A1D72
:101C1000126803689A432C4B0C331A604279102ADD
:101C20000ED11A1F126803681A43274B08331A6033
:101C30001A1D126803681A43234B0C331A600DE017
:101C40002149427911440A6803681A430A6005E091
:101C5000027911440A6803689A430A6070470021B8
:101C6000016001710C214171002181717047164999
:101C7000103109680143144A10321160704701465F
:101C80000020114A143212680A400AB1012000E013
:101C9000002070470C49143108607047014600204D
:101CA0000022094B1B6803EA0102074B14331B682F
:101CB0000B4013B10AB1012000E000207047024937
:101CC000143108607047000000040140FFFF0F005E
:101CD000704700000FB4044910B503AA029800F041
:101CE000D3F810BC5DF814FB300000202DE9F04162
:101CF0000E460446002020622046E168884730B343
:101D0000252805D0D4E901219047206A401CF2E73C
:101D1000E168204600278847050018D0A5F141005A
:101D2000192802D820354FF400673246294620464C
:101D30002760FEF737FA40B1012804D0F61D26F0DF
:101D400007060836D8E7361DD6E72846DAE7206AC0
:101D5000BDE8F0812DE9F0410646002410687529A0
:101D6000314616A510D0AFF30080002802DA4042B9
:101D700013A507E031688A0701D512A502E04907DB
:101D800004D511A5012401E0AFF3008000210A224F
:101D900006F1240709E0B0FBF2FCB0FBF2F302FB12
:101DA0001C00303078541846491C0028F3D12346D3
:101DB0002A463046BDE8F04100F00CB800000000B3
:101DC0002D0000002B00000020000000704770472D
:101DD000704770472DE9F0470D46994692460446F4
:101DE00000F124080168880604D5E06921F010019B
:101DF000216000E00120A84201DD471B00E0002730
:101E0000A1697A1902EB0900081AA0612078C006BE
:101E100002D42046AFF30080002608E0D4E9012177
:101E20001AF806009047206A401C761C20624E4536
:101E3000F4DB2078C0060AD52046AFF3008006E028
:101E4000D4E9012130209047206A401C2062381ECE
:101E5000A7F10107F4DC07E0D4E9012118F8050037
:101E60009047206A401C2062281EA5F10105F3DC82
:101E70002046AFF300802078000602D50220BDE89E
:101E8000F0870120FBE70000074B70B50D467B444F
:101E900000F011F80446284600F020F810B14FF089
:101EA000FF3070BD204670BDC5EFFFFF01694A1CC1
:101EB00002610878704700B58FB0CDE9013100218B
:101EC000059105497944CDE9031011466846FFF7AD
:101ED0000DFF0FB000BD0000E5FFFFFF007B00F02D
:101EE00080007047754600F02BF8AE460500694645
:101EF000534620F00700854618B020B5FFF756F886
:101F0000BDE820404FF000064FF000074FF00008FA
:101F10004FF0000B21F00701AC46ACE8C009ACE87B
:101F2000C009ACE8C009ACE8C0098D46704710B5DF
:101F30000446AFF300802046BDE81040FEF744B9E8
:101F400000487047140100202DE9C04130B4DFF88B
:101F5000A0C23CEA111418BF3CEA131400F0EC8054
:101F600081EA03051CEA111444EAD57418BF1CEA7F
:101F7000131500F0C780A4EB05044FF0004545EAB7
:101F8000C12145EAC32341EA505143EA525304F1C7
:101F90007F74994204F500344FEAC0204FEAC22210
:101FA00008BF904200F09C804FEA13650FF2401684
:101FB000765D4FEA134506FB05F7C7F1807706FB10
:101FC00007F74FEAD737A7FB03687642C8F5803892
:101FD000A7FB06CE38BFA8F1010807FB08E64FF0C3
:101FE000000EA6FB028CE6FB03CEDCF1000CCEF16A
:101FF000004E38BFAEF1010EA6FB0C584FF00007A3
:102000004FF00005E6FB0E87A1FB08C6A0FB07CE3C
:1020100016EB0E0645F10005E1FB076515F1E04EF4
:102020007EBFA4F580345FEA46066D4116F1800755
:1020300045F100054FEA17274FEA066647EA0567AC
:10204000A6F1DE46B6F1805F4FEA15251FD9384666
:1020500024F0010C05EBC471BCF1FE6F01EB0C1117
:1020600002D8F0BCBDE8008124425CBF01F5801EAF
:102070009EEAC47F02D4F0BCBDE80081244238D47B
:10208000F0BCA1F1C041BDE8004100F030B94FEA19
:10209000D22242EA43524FEAD323A7FB02864FEAF9
:1020A000D02040EA415007FB03661EEA0E0F4FEABC
:1020B000D12105FB026658BFA6EB0056B6EB0056D1
:1020C0004FEA520E4EEAC37E18EB0E0E56EB530E3D
:1020D000BDD518EB02085E417F1C55F10005B6E73F
:1020E0004FF480154FF000074FF000064FF0000846
:1020F000ADE7F0BC4FF0000001F1C04101F000413C
:10210000BDE8008111EA0C1F0CEA131500D00CE0A9
:1021100013EA0C1F00F025804FF00000F0BC81EAAC
:10212000030101F00041BDE80081F0BCBDE80041C1
:1021300081EA030100F0DBB8F0BCBDE8004170B5F6
:1021400000F087F8097EFC3E00F007B881EA030141
:102150004FF0000001F00041704781EA030100F0F8
:10216000C6B8F0BCBDE800414FF0000021497047FF
:10217000FFFDFBF9F7F5F4F2F0EEEDEBE9E8E6E44C
:10218000E3E1E0DEDDDBDAD8D7D5D4D3D1D0CFCDD3
:10219000CCCBCAC8C7C6C5C4C2C1C0BFBEBDBCBB0C
:1021A000BAB9B8B7B6B5B4B3B2B1B0AFAEADACAB07
:1021B000AAA9A8A8A7A6A5A4A3A3A2A1A09F9F9EE1
:1021C0009D9C9C9B9A999998979796959594939393
:1021D000929191908F8F8E8E8D8C8C8B8B8A89892A
:1021E00088888787868585848483838282818180AD
:1021F0000000FF070000F87F4FEA1153A3F580634A
:10220000D3F11E03A8BFD3F1200C08DB4FF000422E
:1022100042EAC12252EA505232FA03F070470942B0
:102220000BD4102BC4BF0020704703F5787CBCF1A1
:10223000FF3F05D04FF0FF3070474FF00000704770
:1022400070B500F006F800BF499224800020704766
:10225000F0E70EF1020E2EF0030E5EF8046B36422C
:1022600005D4012A43EB030515F5001F12D80128F8
:1022700041EB010C1CF5001F0CD80ED14FEAD17CAC
:1022800015F5001F0CEB4C0C0CF1020C08BF4CEBCD
:10229000D37C04E04FF0080C01E04FEAD37C0CEB58
:1022A0004C0526FA05F606F00706B6F1040C06D230
:1022B0000EEB860CBDE870404CF0010C6047DFE887
:1022C0000CF0090B02024FF000414FF00000A1F5A5
:1022D000002170BD19461046012851EB010418BFBA
:1022E000D4F5001484BF002001F0004170BD08083F
:1022F000A0F500114FEA31017047000043004FEA9A
:10230000D30C4FEA3C0C43401FBF40070CF1605117
:1023100013F0FE4F70471CF0006F03D100200CF04B
:10232000004170470CF0004343EA507010B540EA9A
:10233000CC0000F022F800BF000000924FEA00013C
:10234000FFF7D5BF4FF000414FF00000A1F500218D
:1023500070470000B0FA80F310FA03F2C3F19D0356
:102360000AD0D90501EB1220530638BF704700F19F
:10237000010008BF20F0010070470EF1020E2EF0A0
:10238000030E5EF8044B244204D44FEA4102B2F13A
:102390007F4F11D84FEA4003B3F17F4F0CD80ED1D5
:1023A0004FEAD07CB2F17F4F0CEB4C0C0CF1020CDD
:1023B00008BF4CEBD17C04E04FF0080C01E04FEA81
:1023C000D17C0CEB4C0324FA03F404F00704B4F1C1
:1023D000040C06D20EEB840CBDE810404CF0010C4E
:1023E0006047DFE80CF0070802024FF00040A0F55C
:1023F000800010BD0846420018BFD2F1807288BF2D
:1024000000F0004010BD000028240008000000205B
:102410004C0000006C010008742400084C000020EF
:102420002C070000880100080000000000A24A04F8
:102430000000000000000000010203040607080974
:10244000010000000000000000000000000000008B
:10245000000000000000000000000000000000007C
:102460000000010203040102030406070809020434
:04247000060800005A
:0400000508000131BD
:00000001FF
