:020000040800F2
:10000000C01A002001010008090100080B010008C6
:100010000D0100080F010008110100080000000098
:1000200000000000000000000000000013010008B4
:100030001501000800000000170100081901000860
:100040001B0100081B0100081B0100081B01000820
:100050001B0100081B010008D50100081B01000856
:100060001B0100081B0100081B0100081B01000800
:100070001B0100081B0100081B0100081B010008F0
:100080001B0100081B0100081B0100081B010008E0
:100090001B0100081B0100081B0100081B010008D0
:1000A0001B0100081B0100081B0100081B010008C0
:1000B0001B010008650800081B0100081B0100085F
:1000C0001B0100081B0100081B0100081B010008A0
:1000D0001B010008BD080008390900081B010008C1
:1000E0001B0100081B0100081B010008DFF80CD0F1
:1000F00000F02EF800480047E90C0008C01A002064
:100100000648804706480047FEE7FEE7FEE7FEE7B1
:10011000FEE7FEE7FEE7FEE7FEE7FEE7050800086C
:10012000ED00000830B50B460146002020220124D6
:1001300009E021FA02F59D4205D303FA02F5491BB5
:1001400004FA02F52844151EA2F10102F1DC30BDCB
:10015000064C074D06E0E06840F0010394E8070014
:1001600098471034AC42F6D3FFF7C4FF441500089B
:100170006415000870B58D1810F8014B14F00302D7
:1001800001D110F8012B231106D110F8013B03E037
:1001900010F8016B01F8016B521EF9D1ABB110F8E8
:1001A000012B04F00C048A1A0C2C03D0A2EB84124D
:1001B0009B1C08E010F8014BA2EB0422F8E712F8B0
:1001C000014B01F8014B5B1EF9D5A942D4D30020A5
:1001D00070BD000010B50D480088401C0B49088018
:1001E000084600880A49884202DD00200749088045
:1001F0000648028807A1094800F064FC074800F09F
:1002000075FA012000F00CF810BD0000A6150020C2
:100210003F420F002564202000000000AA160020A5
:100220000149086070470000140401402DE9F041C5
:10023000024600250026002000230024002791F814
:1002400003C00CF00F0591F803C00CF0100CBCF1CA
:10025000000F03D091F802C04CEA050591F800C0E8
:10026000BCF1000F31D0146800202BE04FF0010CDE
:100270000CFA00F3B1F800C00CEA03069E4220D14C
:1002800083004FF00F0C0CFA03F7BC4305FA03FC94
:100290004CEA040491F803C0BCF1280F06D14FF0DA
:1002A000010C0CFA00FCC2F814C00AE091F803C07B
:1002B000BCF1480F05D14FF0010C0CFA00FCC2F85C
:1002C00010C0401C0828D1D31460B1F800C0BCF1A4
:1002D000FF0F34DD546800202EE000F1080C4FF0D1
:1002E000010808FA0CF3B1F800C00CEA03069E42BC
:1002F00021D183004FF00F0C0CFA03F7BC4305FA31
:1003000003FC4CEA040491F803C0BCF1280F05D1AA
:1003100000F1080C08FA0CF8C2F8148091F803C038
:10032000BCF1480F07D100F1080C4FF0010808FAA2
:100330000CF8C2F81080401C0828CED35460BDE8E9
:10034000F0814161704701617047000010B54021A4
:100350000748FFF7F8FF80210548FFF7F4FF8021E9
:100360000348FFF7EEFF40210148FFF7EAFF10BD09
:10037000000C014010B540210548FFF7E4FF802143
:100380000348FFF7DEFF80210148FFF7DCFF10BDC7
:10039000000C014010B540210348FFF7D4FF402175
:1003A0000148FFF7CEFF10BD000C014070B50024DE
:1003B00018E004F1B000002100F07CF900210846AB
:1003C00000F078F90021102000F074F9002505E014
:1003D0000121002000F06EF9681CC5B2802DF7DB0A
:1003E000601CC4B2082CE4DB70BD000008B501211C
:1003F000082000F06BF9C020ADF8000003208DF854
:10040000020010208DF8030069463A48FFF70EFFFE
:10041000C82000F04BFC0021AE2000F04BF9002179
:10042000084600F047F90021102000F043F90021B0
:10043000402000F03FF90021B02000F03BF90021FE
:10044000812000F037F90021FF2000F033F900216E
:10045000A12000F02FF90021A62000F02BF90021A7
:10046000A82000F027F900213F2000F023F9002107
:10047000C82000F01FF90021D32000F01BF9002153
:10048000084600F017F90021D52000F013F90021EB
:10049000802000F00FF90021D82000F00BF9002196
:1004A000052000F007F90021D92000F003F9002110
:1004B000F12000F0FFF80021DA2000F0FBF8002125
:1004C000122000F0F7F80021DB2000F0F3F8002103
:1004D000302000F0EFF800218D2000F0EBF8002133
:1004E000142000F0E7F80021AF2000F0E3F8FFF758
:1004F0005DFF08BD000C014070B504460D4605F1D6
:10050000B000002100F0D6F8102141EA14100021BB
:1005100000F0D0F804F00F00002100F0CBF870BD1F
:100520002DE9F04180460E461546002731464046EB
:10053000FFF7E2FF00240AE0124A02EB8511085D92
:10054000012100F0B7F8781CC7B2601CC4B2102CAF
:10055000F2DB701CC1B24046FFF7CEFF00240CE076
:100560006900491C074A02EB4111085D012100F0B6
:10057000A1F8781CC7B2601CC4B2102CF0DBBDE837
:10058000F0810000060000202DE9F04707460E46E6
:100590009046994600250024A8F12000C5B27F2F7F
:1005A00002DD0027B01CC6B2B9F1100F24D13146CC
:1005B0003846FFF7A1FF002408E004EB0511194AB3
:1005C000505C012100F076F8601CC4B2082CF4DB0A
:1005D000701CC1B23846FFF78FFF002409E004EB1E
:1005E000051108310F4A505C012100F063F8601CCE
:1005F000C4B2082CF3DB12E031463846FFF77CFF2B
:1006000000240AE005EB4501074A02EB4101085DC1
:10061000012100F04FF8601CC4B2062CF2DBBDE8EB
:10062000F0870000540F00082C0D00082DE9FF5F33
:10063000074691461E460E9D4FF0000A002435E005
:10064000301B401EC1B20A2000F065FBB9FBF0F080
:100650000A21B0FBF1F201FB1208BAF1000F14D12C
:10066000701EA04211DDB8F1000F0CD1AB4605EBB6
:10067000DB71491001FB0471C8B22B46202201999D
:10068000FFF782FF10E04FF0010AAB4605EBDB718C
:10069000491001FB0471C8B208F13001CAB22B46FF
:1006A0000199FFF771FF00BF601CC4B2B442C7DB01
:1006B000BDE8FF9F70B504460D461DB1E0B200F0E5
:1006C000EBF902E0E0B200F0D1F970BD29B1064AC1
:1006D00092690243044B9A6104E0034A926982439F
:1006E000014B9A61704700000010024070B504464B
:1006F000002510E0605D68B1615D074800F088F991
:1007000000BF8021044800F027F90028F9D0681CB8
:10071000C5B200E070BDEDE70044004010B500F048
:1007200001F810BD0CB5002001900090334800681E
:1007300040F480303149086000BF3048006800F460
:10074000003000900198401C0190009818B9019861
:10075000B0F5A06FF1D12948006800F4003010B165
:100760000120009001E0002000900098012843D172
:100770002348006840F010002149086008460068DE
:1007800020F0030008600846006840F0020008609E
:100790001A48406819494860084640684860084659
:1007A000406840F4806048600846406820F47C104F
:1007B00048600846406840F4E81048600846006811
:1007C00040F08070086000BF0C48006800F00070C6
:1007D0000028F9D00948406820F003000749486024
:1007E0000846406840F00200486000BF0348406887
:1007F00000F00C000828F9D10CBD000000100240E8
:100800000020024010B51348006840F00100114973
:10081000086008464068104908400E49486008468C
:1008200000680E4908400B4908600846006820F43B
:10083000802008600846406820F4FE0048604FF4BD
:100840001F008860FFF76AFF4FF0006004490860EE
:1008500010BD0000001002400000FFF8FFFFF6FE90
:1008600008ED00E010B50121084800F016F858B175
:100870000748006808B9012000E00020044908602A
:100880000121024800F006F810BD000000040040FD
:10089000B4012242CA430282704730B502460020AA
:1008A00000230024158A05EA0103958905EA01045D
:1008B00013B10CB1012000E0002030BD10B540F2B2
:1008C0002771194800F055F8E0B11848027800780F
:1008D000401C164B18701648815C134800F098F8BD
:1008E0001248007813490978884205D1002240F265
:1008F00027710D4800F067F840F227710A4800F0B0
:100900001CF80AE040F22551074800F032F820B107
:1009100040F22551044800F010F84FF45871024895
:1009200000F00BF810BD000000380140040000206A
:10093000A815002005000020704710B500220023F4
:1009400040F66A14A14200D100BF0A12012494406B
:10095000A3B2DC43048010BD02460020B1F5007F45
:1009600000D100BF13880B400BB1012000E0002034
:10097000704770B50246002400230025002040F691
:100980006A16B14200D100BFC1F3421501F01F0346
:10099000012606FA03F3012D02D19689334006E0C1
:1009A000022D02D1168A334001E0968A33400C12A0
:1009B000012606FA04F41688344013B10CB1012064
:1009C00000E0002070BDF0B503460024002600259D
:1009D000002040F66A17B94200D100BF1846C1F3A3
:1009E000421401F01F06012707FA06F5012C01D178
:1009F0000C3004E0022C01D1103000E014301AB1A8
:100A000007682F43076002E00768AF430760F0BD47
:100A1000C1F30802828070472DE9F04105462C465B
:100A200040211148FFF78DFC002619E0274607F00A
:100A30008007802F04D180210B48FFF784FC03E05E
:100A400080210948FFF77DFC6006040E402106481E
:100A5000FFF779FC40210448FFF773FC701CC6B215
:100A6000082EE3DBBDE8F081000C014010B5044620
:100A7000FFF76CFC7820FFF7CFFFFFF78BFC00201F
:100A8000FFF7CAFFFFF786FC2046FFF7C5FFFFF719
:100A900081FCFFF76FFC10BD10B50446FFF756FC54
:100AA0007820FFF7B9FFFFF775FC4020FFF7B4FF90
:100AB000FFF770FC2046FFF7AFFFFFF76BFCFFF777
:100AC00059FC10BD0FB4084B10B504A902AA039835
:100AD00000F01CF8044602A9002000F0C1F82046EE
:100AE00010BC5DF814FB0000610C000802E008C8AF
:100AF000121F08C1002AFAD170477047002001E098
:100B000001C1121F002AFBD1704700002DE9FF4FE1
:100B100089B09B460446002506E025280BD05A469E
:100B20000B999047641C6D1C20780028F5D10DB0FE
:100B30002846BDE8F08F0027B8460122474900E06B
:100B4000074314F8013F203B02FA03F00842F7D1B3
:100B500020782E2819D114F8010F47F004072A280D
:100B60000ED06FF02F022078A0F1300109290CD8A7
:100B700008EB880102EB410100EB0108641CF2E77D
:100B80000A98641C50F8048B0A9020780028CED074
:100B9000642808D0692806D075281ED05A460B99BB
:100BA00090476D1C58E00A994FF00A0901C90A9153
:100BB000002802DA40422D2102E0390504D52B211C
:100BC0008DF82010012103E0F90704D02021F7E778
:100BD0008A4608AE0DE00021FAE70A994FF00A09AB
:100BE00001C90A91F7E74946FFF79CFA303106F848
:100BF000011D0028F7D1ADEB060000F120097807B0
:100C000001D44FF00108C84502DDA8EB090000E05F
:100C100000208046002706E008A85A46C05D0B99D0
:100C200090476D1C7F1C5745F6DB04E030205A4688
:100C30000B9990476D1CB8F10001A8F10108F5DC93
:100C400005E016F8010B5A460B9990476D1CB9F157
:100C50000001A9F10109F4DC641C65E70928010021
:100C60000A68531C0B601070704700004FF0E021C1
:100C7000096921F004014FF0E0221161C21700EB75
:100C80005272C2F3C702074B1A701946097801EB7A
:100C90004102C2EBC1114FF6FF7202EAC101024AE2
:100CA00011807047000000200200002001460D4A1C
:100CB00012884A434FF0E0235A6100229A610122D0
:100CC0001A6100BF4FF0E022106900F001021AB172
:100CD00000F48032002AF5D000224FF0E0231A61A0
:100CE0009A6170470200002008B500BF00BF48208D
:100CF000FFF7BCFFFFF77AFB0CE000221146122041
:100D0000FFF70EFC102002230A2200210090084663
:100D1000FFF78CFCF1E710B50246012000E05043DC
:100D20000B1EA1F10104E1B2F9D110BD00000000D9
:100D300000000000002F0000000007000700001462
:100D40007F147F1400242A7F2A1200626408132370
:100D500000364955225000000503000000001C2207
:100D60004100000041221C000014083E0814000845
:100D7000083E0808000000A06000000808080808F5
:100D8000000060600000002010080402003E51498D
:100D9000453E0000427F400000426151494600212B
:100DA00041454B31001814127F1000274545453945
:100DB000003C4A49493000017109050300364949A0
:100DC000493600064949291E000036360000000059
:100DD00056360000000814224100001414141414A4
:100DE000000041221408000201510906003249594D
:100DF000513E007C1211127C007F49494936003E69
:100E000041414122007F4141221C007F4949494123
:100E1000007F09090901003E4149497A007F08081D
:100E2000087F0000417F4100002040413F01007FDA
:100E300008142241007F40404040007F020C027FA6
:100E4000007F0408107F003E4141413E007F0909B8
:100E50000906003E4151215E007F091929460046DE
:100E6000494949310001017F0101003F4040403FB5
:100E7000001F2040201F003F4038403F00631408FF
:100E800014630007087008070061514945430000DA
:100E90007F41410000552A552A55000041417F00FD
:100EA00000040201020400404040404000000102F2
:100EB0000400002054545478007F484444380038DB
:100EC0004444442000384444487F00385454541863
:100ED00000087E0901020018A4A4A47C007F080475
:100EE00004780000447D4000004080847D00007F45
:100EF000102844000000417F4000007C0418047862
:100F0000007C0804047800384444443800FC24245D
:100F100024180018242418FC007C08040408004845
:100F20005454542000043F444020003C4040207C66
:100F3000001C2040201C003C4030403C0044281055
:100F40002844001CA0A0A07C004464544C44141409
:100F50001414141400000000000000000000000041
:100F600000000000000000F8000000000000003356
:100F70003000000000100C06100C060000000000FD
:100F80000000000040C07840C0784000043F0404E6
:100F90003F040400007088FC08300000001820FFA7
:100FA000211E0000F008F000E018000000211C03E2
:100FB0001E211E0000F00888700000001E2123245E
:100FC0001927211010160E0000000000000000007C
:100FD00000000000000000E018040200000000070C
:100FE0001820400000020418E00000000040201813
:100FF00007000000404080F0804040000202010FE6
:1010000001020200000000F0000000000101011FC9
:1010100001010100000000000000000080B070002D
:1010200000000000000000000000000000010101BD
:10103000010101010000000000000000003030004C
:101040000000000000000000806018040060180626
:101050000100000000E010080810E000000F102060
:1010600020100F00001010F8000000000020203FAA
:101070002020000000700808088870000030282434
:1010800022213000003008888848300000182020D5
:1010900020110E000000C02010F8000000070424FA
:1010A000243F240000F8088888080800001921203F
:1010B00020110E0000E0108888180000000F112099
:1010C00020110E0000380808C83808000000003F52
:1010D000000000000070880808887000001C2221B1
:1010E00021221C0000E010080810E000000031225E
:1010F00022110F00000000C0C000000000000030FE
:10110000300000000000008000000000000080604F
:1011100000000000000080402010080000010204D0
:1011200008102000404040404040400004040404B7
:101130000404040000081020408000000020100873
:1011400004020100007048080808F00000000030A8
:1011500036010000C030C828E810E0000718272436
:1011600023140B000000C038E0000000203C2302E4
:101170000227382008F8888888700000203F202047
:1011800020110E00C0300808080838000718202079
:101190002010080008F808080810E000203F202070
:1011A00020100F0008F88888E8081000203F202051
:1011B0002320180008F88888E8081000203F200045
:1011C00003000000C030080808380000071820207D
:1011D000221E020008F808000008F808203F21013C
:1011E00001213F20000808F8080800000020203FE7
:1011F0002020000000000808F8080800C080808057
:101200007F00000008F888C028180800203F20014F
:101210002638200008F8080000000000203F2020A9
:101220002020300008F8F800F8F80800203F003FC0
:10123000003F200008F830C00008F808203F2000D8
:1012400007183F00E01008080810E0000F102020E9
:1012500020100F0008F808080808F000203F2101BE
:1012600001010000E01008080810E0000F18242415
:1012700038504F0008F8888888887000203F200088
:10128000030C30200070880808083800003820213E
:1012900021221C00180808F8080818000000203F48
:1012A0002000000008F808000008F808001F2020AF
:1012B00020201F000878880000C838080000073880
:1012C0000E010000F80800F80008F800033C0700D1
:1012D000073C0300081868808068180820302C0339
:1012E000032C30200838C800C83808000000203F10
:1012F0002000000010080808C838080020382621FF
:1013000020201800000000FE020202000000007F02
:1013100040404000000C30C0000000000000000110
:101320000638C00000020202FE00000000404040FB
:101330007F00000000000402020204000000000020
:10134000000000000000000000000000808080809D
:101350008080808000020204000000000000000085
:10136000000000000000808080800000001924221E
:1013700022223F2008F8008080000000003F11205A
:1013800020110E000000008080800000000E11205F
:1013900020201100000000808088F800000E11203D
:1013A00020103F200000808080800000001F22224B
:1013B00022221300008080F0888888180020203FB7
:1013C000202000000000808080808000006B9494CA
:1013D0009493600008F8008080800000203F210086
:1013E00000203F2000809898000000000020203F4F
:1013F00020200000000000809898000000C080803D
:10140000807F000008F8000080808000203F2402D8
:101410002D302000000808F8000000000020203FC8
:10142000202000008080808080808000203F20007D
:101430003F20003F8080008080800000203F21000E
:1014400000203F200000808080800000001F2020BE
:1014500020201F00808000808000000080FFA120ED
:1014600020110E000000008080808000000E1120FE
:1014700020A0FF80808080008080800020203F218D
:101480002000010000008080808080000033242440
:1014900024241900008080E0808000000000001FEC
:1014A000202000008080000000808000001F20209D
:1014B00020103F20808080000080808000010E305E
:1014C0000806010080800080008080800F300C03BF
:1014D0000C300F0000808000808080000020312EC2
:1014E0000E312000808080000080808080818E709E
:1014F0001806010000808080808080000021302C50
:101500002221300000000000807C02020000000068
:10151000003F404000000000FF000000000000000D
:10152000FF0000000002027C800000000040403FFD
:101530000000000000060101020204040000000097
:10154000000000006415000800000020A81500003D
:1015500074010008401B0008A815002018050000B1
:10156000FC0A000852000113F0100122FF050312CB
:10157000F00001130F040122FF0502110F1E1009D4
:101580004040405F5555557504125F0C0111210014
:101590000C11200F094989790909090F201F20081A
:1015A00000FE02424ACA4A030004114202FE200021
:1015B0000E12FF40504C4340404F50505C40FFA043
:1015C00013F8880122FF050213F8C0131F08012237
:1015D0007F2003109F80E233808201040913E2A27E
:1015E000928A86828080020005140040807F191054
:1015F0000C00002424A4FEA3220022CCAA05123E43
:101600002407080601FF00013EF00604FF02020263
:101610009E357C539008C3F20840000F10044482AA
:101620007F01808040432C10284681A01009404053
:10163000484848C8784F06071248488011440409B2
:10164000130312122222528A061F3004106080BA3D
:1016500011040713C030E0140443407FE604041271
:101660007F4241E0013EC02141000B1110D030FF0C
:1016700030D0121C10101F3005080402019E000516
:10168000110102040821080E1000FE222222FE0091
:10169000FE828292A29E1E180880601F0242827FF4
:1016A000470405122F102C43E0040B1290884C576E
:1016B000A42454548C843C100801018042221A074F
:1016C00044040610423E010101E1080E1204E42424
:1016D0002CB4252624B42C24E404A0080B14FF0207
:1016E000011E1212121E418245100720202022F4F2
:1016F00028060A14107C1006404242427F04071458
:101700004242DE000B1308C8483E68B82E28D808AD
:101710007F080D14444424140C7F040A15246442E9
:10172000DE080916F0929CF0989492F0E3000916F6
:10173000F0908896909090F820337F44010D152307
:1017400003199E0C0A12C848482020FE2020E09F62
:10175000030C0C12181609084C38100F004070606A
:10176000041805008040F8B916FEC90514202808A1
:1017700001007F0804043E9D021578BF100490907C
:10178000FEC00214F0403DE00421C30404134F40A6
:10179000701F0C0C13F4888410D03CD010FC1290F5
:1017A0005D03040C127F103F663B2F70235A2760A5
:1017B0001E14076058C66010FC200613FC9F20070B
:1017C000002427141050800C04127F406020053242
:1017D000C001328001D3C0E0011408606070303075
:1017E00018080105123A113111019130714A021B9A
:1017F00000013139601DE0E0F0F8781C06000103BB
:101800000307E7E7C7C7C7878F8FDFFFFFFDF9F93A
:10181000FDFF017004FEFEFE0C310E8101927F017E
:1018200010063F1F1F1F3F0111071C0D1F070787D1
:10183000C7E12131111111131503300D32327272CB
:10184000F27266667676F6F201BC0D7A7B79793DA6
:101850003D1F0F0F0F07036D031D7C0312018B90BB
:10186000090307070F1F3F7F7F7722BF5710073FEE
:101870001F8F8F8F9F0110048F8743261004030151
:1018800081C26C09F07078381C0C060676051510BC
:1018900000084060301C0F070100012517230F0FBF
:1018A000D810097FFFFEF8F0E0C70F7531013D75D4
:1018B00006171E3F112FE1C031052175121886034E
:1018C0004203017801148C1806073FFF7F3E2B105E
:1018D0000FE07038389CCCEE6637331B090D04746A
:1018E0000357030176BDC5061404181C1EB2140468
:1018F000090C0EBA330C180132100600043C080C17
:10190000045C154451013D0D04810D72801A3E8026
:10191000A70671194FC0C039043DDF0722C02A61F4
:101920002B3DE007511F7C040040C0040811250135
:10193000145A40064000018784015007CC783000DB
:1019400003FF0D1E842C063EFF14092D18094F07B6
:1019500003AA086D9F081007030F38781C07063B81
:10196000701C6C3C043F714077032C0440603F2F97
:10197000054EFFCD03300A8001070E187070380C39
:101980002483FFCC5A6203741805C87830FF672C93
:1019900010FFFF0F07838101E1E101F9F101FFFF72
:1019A0000A036006FF7DBBC7EF013004C7BB7D158E
:1019B000013B01B008FD0507FF03FBFB033303FFF9
:1019C000D41005030302020461030955C51DDE039B
:1019D000E2020100057B03FFFF000101FF8001FF20
:1019E00080027B80016C11FF0003050911FF118942
:1019F00005C300E000F000E30C0C073B4428FF1196
:101A0000AA4459055C0B8301384482929274018385
:101A1000C80920087C44FF017D7D7D0441055F7D70
:101A200001D2049201028D91070D3FF103F1490D9E
:101A300010C5040D1BA80830083F3F0303F3131122
:101A4000011C0601F1116181C7042C05816111F1AE
:101A5000CF0433414107200401C12120A321C11437
:101A600031193137080736D33303033F3F9D1EE05A
:101A7000D10A6E7FF5071DDD0B4005010618060A29
:101A80002D980D3E7FB2062F1F20BC06A3201F14E9
:101A90003E00290A600540300C03460D34770710DC
:101AA00004070706011D5A0E1E845F0A7284078010
:101AB000050484C4041501120A711121400F400766
:101AC0000700081C05181412114A0B1DCC0D2D24FB
:101AD000102F101FC90D1C06081012120DE00B600C
:101AE0000500000D120A512951300D5E3D046DBBF9
:101AF00003013B4514047F030CA915DE1C05385473
:101B0000545825031F0404670C0C05213C40407CFD
:101B1000BD0400082CAAAAAA280800FF68100626FF
:101B200049494932102DEF0E110F0DFF00040DFF32
:101B300000040DFF00040DFB000402000000000083
:04000005080000ED02
:00000001FF
