:020000040800F2
:1000000010240020010100088D2000088F20000826
:1000100093200008972000089B20000800000000A3
:100020000000000000000000000000009F20000809
:10003000A120000800000000A3200008A52000085F
:100040001B0100081B0100081B0100081F210008FC
:100050001B0100081B0100081B0100081B01000810
:100060001B0100081B0100081B0100081B01000800
:100070001B0100081B0100081B0100081B010008F0
:100080001B0100081B0100081B0100081B010008E0
:100090001B0100081B0100081B0100081B010008D0
:1000A0001B0100081B0100081B0100081B010008C0
:1000B000D9230008FF2E00081B0100081B010008BF
:1000C0001B0100081B0100081B0100081B010008A0
:1000D0001B010008AF200008752F0008E72000086A
:1000E0001B0100081B0100081B010008DFF80CD0F1
:1000F00005F064FA00480047A51F000810240020FE
:100100000648804706480047FEE7FEE7FEE7FEE7B1
:10011000FEE7FEE7FEE7FEE7FEE7FEE70102000876
:10012000ED0000080CB50020019000906B480068BD
:1001300040F480306949086000BF6848006800F4F6
:10014000003000900198401C0190009818B9019867
:10015000B0F5A06FF1D16148006810F4003F02D003
:100160000120009001E0002000900098012842D179
:100170005B48006840F01000594908600846006874
:1001800020F0030008600846006840F002000860A4
:1001900052484068514948600846406848600846EF
:1001A000406840F4806048600846406820F47C1055
:1001B00048600846406840F4E81048600846006817
:1001C00040F08070086000BF4448006810F0007F75
:1001D000FAD04248406820F0030040494860084691
:1001E000406840F00200486000BF3C48406800F0B2
:1001F0000C000828F9D10CBD10B5FFF793FF10BD16
:1002000010B53648006840F00100344908600846DF
:10021000406834490840314948600846006832491E
:1002200008402E4908600846006820F480200860D5
:100230000846406820F4FE0048604FF41F008860C4
:10024000FFF7DAFF4FF000602849086010BD10B5D5
:10025000002100200022214B5B6803F00C0121B13A
:10026000042906D0082928D107E0214B214C23601E
:1002700027E01F4B1F4C236023E0184B5B6803F4FF
:100280007010164B5B6803F48032022303EB90403E
:1002900022B9194B4343174C23600DE00F4B5B68A9
:1002A00013F4003F04D0144B4343124C236003E08B
:1002B0000F4B43430F4C236003E00D4B0D4C236069
:1002C00000BF00BF054B5B68C3F303130B4CE15C3D
:1002D000084B1B68CB40074C236010BD0010024048
:1002E000002002400000FFF8FFFFF6FE08ED00E0EE
:1002F00000127A000000002000093D0004000020E8
:1003000031490143314A1160704770B50021002323
:100310000F22C4780CB32D4C246804F4E064C4F5B7
:10032000E064210AC1F10403CA40447804FA03F1ED
:100330008478144021430901254C0678A15504789E
:1003400004F01F050124AC4005786D114FF0E02644
:1003500006EB8505C5F8004109E0047804F01F05A7
:100360000124AC401B4D0678761145F8264070BD3F
:10037000194A0A400243154B1B1F1A60704739B1D6
:10038000124A121D12680243104B1B1D1A6006E030
:100390000E4A121D126882430C4B1B1D1A607047D7
:1003A000042808D14FF0E021096941F004014FF021
:1003B000E022116107E04FF0E021096921F004011A
:1003C0004FF0E022116170470000FA050CED00E0EB
:1003D00000E400E080E100E080FFFF1F10B504466C
:1003E000CA48844208D10121042000F047FB0021C3
:1003F000042000F043FB46E0C548844208D10121B7
:10040000082000F03BFB0021082000F037FB3AE019
:10041000C048844208D10121102000F02FFB0021A8
:10042000102000F02BFB2EE0BB48844208D10121B4
:10043000202000F023FB0021202000F01FFB22E001
:10044000B648844208D10121402000F017FB00216A
:10045000402000F013FB16E0B148844208D101218E
:10046000802000F00BFB0021802000F007FB0AE059
:10047000AC48844207D10121801500F0FFFA002129
:10048000A01500F0FBFA10BD10B50121084600F0E0
:10049000F5FA0021012000F0F1FA10BD2DE9F0413C
:1004A000024600250026002000230024002791F8A2
:1004B00003C00CF00F0591F803C01CF0100F03D01F
:1004C00091F802C04CEA050591F800C0BCF1000F9C
:1004D00031D0146800202BE04FF0010C0CFA00F32F
:1004E000B1F800C00CEA03069E4220D183004FF011
:1004F0000F0C0CFA03F7BC4305FA03FC4CEA0404A6
:1005000091F803C0BCF1280F06D14FF0010C0CFA92
:1005100000FCC2F814C00AE091F803C0BCF1480F17
:1005200005D14FF0010C0CFA00FCC2F810C0401CC1
:100530000828D1D31460B1F800C0BCF1FF0F34DD3E
:10054000546800202EE000F1080C4FF0010808FA72
:100550000CF3B1F800C00CEA03069E4221D18300DF
:100560004FF00F0C0CFA03F7BC4305FA03FC4CEAFE
:10057000040491F803C0BCF1280F05D100F1080C68
:1005800008FA0CF8C2F8148091F803C0BCF1480FC7
:1005900007D100F1080C4FF0010808FA0CF8C2F876
:1005A0001080401C0828CED35460BDE8F0814FF67F
:1005B000FF710180022181700421C17070470246E1
:1005C000002093680B4201D0012000E0002070471A
:1005D0000146886880B2704702460020D3680B420B
:1005E00001D0012000E0002070470146C86880B2B9
:1005F000704701617047416170470AB1016100E0D5
:1006000041617047C16070474FF480320A43826194
:100610008161826182698269704702460020424B93
:1006200018684FF68073184040EA021008433E4BAA
:10063000186070473D49C8617047F0B50A4600230D
:1006400000240021002500F00046B6F1004F02D141
:10065000354EF16901E0344E7168C0F3034583B251
:1006600000F44016B6F5401F08D121F070612E4EFF
:10067000766826F070662C4F7E6012E000F48016DB
:10068000B6F5801F06D1032606FA05F4A14341F012
:10069000706106E0460D360103FA06F6B14341F0FB
:1006A000706122B1460D360103FA06F6314300F0BF
:1006B0000046B6F1004F02D11B4EF16101E01A4E27
:1006C0007160F0BD30B500228B071C0F0F2303FAB9
:1006D00004F2154B08338C1053F824309343124C1A
:1006E00008348D1044F8253023468C1053F82430FC
:1006F0008C07240F00FA04F423430B4C08348D10AC
:1007000044F8253030BD0A490860704700080140B0
:10071000000C01400010014000140140001801408D
:10072000001C014000200140000001400000204268
:10073000DC0020420E49086070470D494860704750
:100740000B49886070474AF6AA200949086070473B
:100750004CF6CC4006490860704701460020044A28
:10076000D2680A4201D0012000E00020704700005A
:1007700000300040DD48006840F00100DB490860BF
:1007800008464068DA490840D84948600846006889
:10079000D8490840D54908600846006820F4802000
:1007A00008600846406820F4FE0048604FF41F00CF
:1007B00088607047CD49096821F48031CB4A1160C7
:1007C0001146096821F480211160B0F5803F03D003
:1007D000B0F5802F0ED106E0C449096841F480319C
:1007E000C24A116007E0C149096841F4A021BF4A2B
:1007F000116000E000BF00BF704710B50146002245
:10080000002300204A11012A02D1B84C236806E0D7
:10081000022A02D1B54C236A01E0B44C636A01F0AC
:100820001F02012494401C4201D0012000E000205E
:1008300010BD38B5002000900024002500BF3120F5
:10084000FFF7DBFF05460098401C00900098B0F5CC
:10085000A06F01D0002DF2D03120FFF7CEFF08B1FC
:10086000012400E00024204638BD014600209F4AB4
:10087000106820F0F80040EAC100106070479E49FF
:100880000860704702460020984B586820F47C109E
:1008900042EA01031843954B586070479649086631
:1008A000704701460020914A506820F00300084339
:1008B000506070478D48406800F00C00704701465A
:1008C00000208A4A506820F0F000084350607047CA
:1008D00001460020854A506820F4E06008435060DB
:1008E000704701460020814A506820F4605040EA79
:1008F000C1005060704729B17C4A527A02437B4B59
:100900005A7204E0794A527A8243784B5A7270479D
:100910007A490860704701460020744A506820F404
:1009200040400843506070470021754A11706F4A7B
:1009300082F82010012802D0042808D103E0012108
:100940006F4A117004E005216D4A117000E000BF8C
:1009500000BF70476B49086070476449096A0143EA
:10096000624A11627047674944390860704730B580
:1009700000210022002400235C4D6D6805F00C016D
:1009800021B1042905D0082923D105E05E4D056079
:1009900022E05D4D05601FE0544D6D6805F4701256
:1009A000524D6D6805F48034022505EB92421CB966
:1009B000564D554305600BE04C4D6D6815F4003FF6
:1009C00003D0524D5543056002E04F4D554305603D
:1009D00002E04D4D056000BF00BF444D6D6805F05D
:1009E000F00109094A4D6B5C0568DD4045603F4DEB
:1009F0006D6805F4E061090A454D6B5C4568DD40B2
:100A000085603A4D6D6805F46051C90A404D6B5CD4
:100A10004568DD40C560354D6D6805F44041890B82
:100A20003C4D6B5CC568B5FBF3F5056130BD29B184
:100A30002E4A526902432D4B5A6104E02B4A5269F7
:100A400082432A4B5A61704729B1284A926902436E
:100A5000264B9A6104E0254A92698243234B9A61AE
:100A6000704729B1214AD2690243204BDA6104E080
:100A70001E4AD26982431D4BDA61704729B11B4A75
:100A8000D2680243194BDA6004E0184AD268824304
:100A9000164BDA60704729B1144A12690243134BAE
:100AA0001A6104E0114A12698243104B1A617047BF
:100AB00014494039086070470F49C86470470B49B2
:100AC000C87170470948406A40F080700749486221
:100AD000704701460020054A92680A4201D0012071
:100AE00000E0002070470149887270470010024002
:100AF0000000FFF8FFFFF6FE00004242D80042422D
:100B0000201002408004424200127A0000093D0099
:100B1000140000202400002029B14F4A128802430B
:100B20004D4B1A8004E04C4A128882434A4B1A808B
:100B300070474948001D008840F010004649091DD3
:100B4000088070474448001D00884FF6EF71084048
:100B50004149091D0880704700213F481C30018829
:100B6000001F008841EA0040704700B50246FFF7C9
:100B7000E0FF100C384918310880091D0A80FFF782
:100B8000E1FF00BD00B50246FFF7D3FFC2F303400B
:100B9000314908310880091D0A80FFF7D3FF00BDE5
:100BA00000B50246FFF7C5FF100C2B492031088025
:100BB000091D0A80FFF7C6FF00BD0020264910313D
:100BC00009880907080B244914310988084370472C
:100BD00000BF2148001D008810F0200FF9D0704799
:100BE0001D48001D00884FF6F77108401A49091D7D
:100BF000088000BF1848001D008810F0080FF9D0C9
:100C0000704701460020144A121D12880A4201D082
:100C1000012000E0002070470F49091D0988814329
:100C20000D4A121D11807047014600200A4A121D0C
:100C300012880A40D0B2084A12880A4202D008B18B
:100C4000012000E0002070470349091D0988814305
:100C5000014A121D118070470028004010B504465B
:100C6000FE48844208D10121C014FFF707FF00218C
:100C7000E014FFF703FFC4E0B4F1804F08D1012175
:100C80000846FFF708FF00210120FFF704FFB8E046
:100C9000F348844208D101210220FFF7FCFE002125
:100CA0000220FFF7F8FEACE0EE48844208D10121B3
:100CB0000420FFF7F0FE00210420FFF7ECFEA0E087
:100CC000E948844208D101210820FFF7E4FE002111
:100CD0000820FFF7E0FE94E0E448844208D10121B7
:100CE0001020FFF7D8FE00211020FFF7D4FE88E087
:100CF000DF48844208D101212020FFF7CCFE0021EB
:100D00002020FFF7C8FE7CE0DA48844208D10121A8
:100D10004014FFF7B3FE00216014FFF7AFFE70E050
:100D2000D548844209D10121C804FFF7A7FE00215C
:100D30004FF40020FFF7A2FE63E0D048844209D1BF
:100D400001210805FFF79AFE00214FF48010FFF7FC
:100D500095FE56E0CA48844209D101214805FFF7B3
:100D60008DFE00214FF40010FFF788FE49E0C548D2
:100D7000844208D101214020FFF78DFE0021402050
:100D8000FFF789FE3DE0C048844208D10121802060
:100D9000FFF781FE00218020FFF77DFE31E0BB4898
:100DA000844208D101218015FFF775FE0021A015AE
:100DB000FFF771FE25E0B648844209D101210804FD
:100DC000FFF75CFE00214FF48030FFF757FE18E07C
:100DD000B048844209D101214804FFF74FFE0021A9
:100DE0004FF40030FFF74AFE0BE0AB48844208D1D5
:100DF00001218804FFF742FE00214FF48020FFF715
:100E00003DFE10BD00220288944B98420ED0994BB3
:100E100098420BD0B0F1804F08D0914B984205D04A
:100E2000904B984202D0904B984204D14FF68F736A
:100E30001A404B881A438D4B984207D08C4B9842EE
:100E400004D04FF6FF431A40CB881A4302808B88A8
:100E500083850B880385814B98420BD0854B984244
:100E600008D08B4B984205D08A4B984202D08A4BCF
:100E7000984201D10B7A038601238382704770B5B3
:100E8000002400220023058C4FF6FE7635400584B1
:100E9000028C8388048B4FF68F752C40B51E2C4036
:100EA0000D882C43751E2A400D892A434D882A43FC
:100EB0006A4DA8420BD06F4DA84208D0744DA8428D
:100EC00005D0744DA84202D0734DA84213D14FF6FD
:100ED000F7752A404D892A434FF6FB752A408D88C5
:100EE0002A434FF6FF652B404FF6FF552B408D8967
:100EF0002B43CD892B4383800483CD888586028450
:100F000070BD70B5002400220023058C4FF6EF76EB
:100F100035400584028C8388048B48F6FF752C408D
:100F20004FF6FF452C400D884FF6FF7606EA052563
:100F30002C434FF6DF752A400D8906EA05152A4332
:100F40004D8806EA05152A43444DA84202D0494D72
:100F5000A8421DD14FF67F752A404D894FF6FF7686
:100F600006EA05152A434FF6BF752A408D8806EA22
:100F700005152A434FF6FF352B404FF2FF752B40E6
:100F80008D8906EA85052B43CD8906EA85052B4325
:100F900083800483CD880587028470BD70B50024EA
:100FA00000220023058C4FF6FF6635400584028C35
:100FB0008388848B4FF68F752C404FF6FC752C4040
:100FC0000D882C434FF6FF552A400D894FF6FF76CA
:100FD00006EA05252A434D8806EA05252A431F4DC2
:100FE000A84202D0234DA8421DD14FF2FF752A40DE
:100FF0004D894FF6FF7606EA05252A434FF6FF3561
:101000002A408D8806EA05252A434EF6FF752B40B7
:101010004DF6FF752B408D8906EA05152B43CD89CA
:1010200006EA05152B4383808483CD888587028457
:1010300070BD70B5002200230024058C4EF6FF76AB
:1010400035400584038C8488828B48F6FF752A40DE
:101050004FF6FF452A400D8820E00000002C01409B
:101060000004004000080040000C00400010004058
:101070000014004000340140004C01400050014089
:101080000054014000180040001C004000200040B7
:101090000040014000440140004801404FF6FF7607
:1010A00006EA05252A434DF6FF752B400D8906EA11
:1010B00005352B434D8806EA05352B43FA4DA842EA
:1010C00002D0FA4DA84208D14BF6FF752C408D890D
:1010D0004FF6FF7606EA85152C4384808283CD88FF
:1010E000A0F84050038470BD828B4FF2FF331A404A
:1010F0008283828B4FF6FF7303EA01231A438283B4
:101100007047F0B50C461546002200210026078CDA
:101110004EF6FF7C07EA0C070784828B018C4FF6A2
:10112000FF7707EA043640F6FF473A404FF6FF776D
:1011300007EA05273A434FF6FF7707EA03373A43B2
:10114000D94FB8420ED0D94FB8420BD0B0F1804F32
:1011500008D0D74FB84205D0D64FB84202D0D64FAC
:10116000B84206D14DF6FF77394046F480573943EF
:1011700005E047F6FF57394044F4805739438283EE
:101180000184F0BD828B4FF6F3731A408283828B09
:101190000A4382837047F0B50C46154600220021B1
:1011A0000026078C4FF6FF6C07EA0C070784828B3A
:1011B000018C4FF6FF7707EA04264FF60C773A408A
:1011C0004FF6FF7707EA03172F433A43B64FB8426B
:1011D0000ED0B64FB8420BD0B0F1804F08D0B44F0C
:1011E000B84205D0B34FB84202D0B34FB84206D18F
:1011F0004FF6FF57394046F48077394305E04FF208
:10120000FF57394044F48077394382830184F0BD2D
:10121000028B4FF2FF331A400283028B4FF6FF73AB
:1012200003EA01231A4302837047F0B50C461546C2
:10123000002200210026078C4FF6EF7C07EA0C07FE
:101240000784028B018C4FF6FF7707EA041640F6FD
:10125000FF473A404FF6FF7707EA03373A434FF626
:10126000FF7707EA05273A438F4FB8420ED08F4FDA
:10127000B8420BD0B0F1804F08D08D4FB84205D0A6
:101280008C4FB84202D08C4FB84206D14FF6DF7770
:10129000394046F01007394305E04FF65F77394093
:1012A00044F01007394302830184F0BD028B4FF6EE
:1012B000F3731A400283028B0A4302837047F0B52E
:1012C0000C46154600220021068C4FF6FE773E4064
:1012D0000684028B018C4FF60C7632407E1C06EAA7
:1012E00003162E433243704EB0420ED06F4EB042C2
:1012F0000BD0B0F1804F08D06D4EB04205D06D4E8E
:10130000B04202D06C4EB04206D14FF6FD7631406D
:1013100044F00106314305E04FF6F576314044F0E4
:101320000106314302830184F0BD70B505460C46C9
:101330005D4885420ED05D4885420BD0B5F1804FA7
:1013400008D05B48854205D05A48854202D05A48A9
:10135000854200D100E000BF208850B92389A288CF
:1013600061882846FFF7ABFFE1882846FFF79EFF1C
:1013700025E0208804280AD12389A288618828468C
:10138000FFF753FFE1882846FFF742FF17E0208868
:1013900008280AD12389A28861882846FFF7FBFE26
:1013A000E1882846FFF7EEFE09E02389A2886188DC
:1013B0002846FFF7A6FEE1882846FFF795FE70BD98
:1013C0002DE9F04105460C4600260127608808B942
:1013D000022600E00026A088012801D1022700E0B3
:1013E00001272088A0B92389A28861882846FFF7B1
:1013F00066FFE1882846FFF759FF23893A463146C0
:101400002846FFF712FFE1882846FFF701FF13E0A7
:101410002389A28861882846FFF707FFE1882846CC
:10142000FFF7F6FE23893A4631462846FFF747FF85
:10143000E1882846FFF73AFFBDE8F0810A884B882B
:101440001A438B881A43CB881A430B891A434B895A
:101450001A438B891A43A0F8442070474FF6FF7156
:10146000818000210180C18041800172704700218C
:10147000018041808180C180018141818181C18160
:101480007047002101804180012181800021C180BD
:10149000018170470021018041808180C1800181EC
:1014A0004181818170470000002C014000340140DF
:1014B0000004004000080040000C004021B10288F8
:1014C00042F00102028004E002884FF6FE731A40E7
:1014D0000280704731B1B0F8442042F40042A0F8D5
:1014E000442005E0B0F84420C2F30E02A0F84420E6
:1014F00070471AB183890B43838102E083898B4350
:10150000838170478182704741EA0203A0F8483026
:1015100070471AB183890B43838102E083898B432F
:101520008381704701894FF6F8721140018170473D
:101530000A46002101894FF68F731940114301813A
:10154000704730B504460D4629462046FFF7F0FFA8
:10155000208940F00700208130BD2DE9F04104468C
:101560000D4616461F46602D06D13B4601223146E8
:101570002046FFF75AFE05E03B4601223146204651
:10158000FFF79DFE29462046FFF7D2FF208940F055
:1015900007002081BDE8F08130B50C4600210189AB
:1015A000C9B24FF6FF7505EA0325154325432943C4
:1015B000018130BD2DE9F04105460E46174698469B
:1015C000002443463A4631462846FFF7E5FF2C897A
:1015D0004FF6F870044044F007044FF68F70044053
:1015E00044F070042C81BDE8F081F0B504460D464E
:1015F00016461F463B46324629462046FFF7CCFF9B
:10160000208940F480402081F0BD018582827047AE
:101610000A46002101884FF68F731940114301805B
:101620007047F0B50C4615461E46002100220023E7
:101630000189028B038C4FF6F877394021434FF62E
:10164000FC473A4040F201173A434FF6DD773B4002
:101650004FF6FF7707EA06172F433B4301810283CA
:101660000384F0BD0A460021018B4FF68F731940A9
:101670001143018370470A460021018B48F6FF732E
:1016800019404FF6FF7303EA0223194301837047A1
:101690000A460021818B4FF68F73194011438183D5
:1016A00070470A460021818B48F6FF7319404FF6B8
:1016B000FF7303EA022319438183704721B1028833
:1016C00042F08002028004E002884FF67F731A40E5
:1016D0000280704721B1828842F00402828004E0D7
:1016E00082884FF6FB731A408280704721B182884E
:1016F00042F00802828004E082884FF6F7731A40B5
:101700008280704721B1828842F00102828004E029
:1017100082884FF6FE731A40828070470A46002185
:10172000018B4FF6F77319401143018370470A4646
:101730000021018B4FF2FF7319404FF6FF7303EA4C
:1017400002231943018370470A460021818B4FF61B
:10175000F77319401143818370470A460021818B3A
:101760004FF2FF7319404FF6FF7303EA0223194348
:10177000818370470A460021018B4FF6FB731940A5
:101780001143018370470A460021018B4FF6FF3356
:1017900019404FF6FF7303EA022319430183704790
:1017A0000A460021818B4FF6FB7319401143818358
:1017B00070470A460021818B4FF6FF3319404FF6E0
:1017C000FF7303EA02231943818370470A4600210D
:1017D000018B4FF67F7319401143018370470A460E
:1017E0000021018BC1F30E014FF6FF7303EA0223C0
:1017F0001943018370470A460021818B4FF67F739E
:1018000019401143818370470A460021818BC1F33F
:101810000E014FF6FF7303EA0223194381837047D9
:101820000A460021018C4FF6FD73194011430184D3
:1018300070470A460021018C4FF6F7731940114397
:10184000018470470A460021018C4FF6DF7319406E
:101850004FF6FF7303EA02131943018470470A46E7
:101860000021018C4FF67F7319404FF6FF7303EA96
:1018700002131943018470470A460021018C4FF678
:10188000FF5319404FF6FF7303EA02231943018403
:1018900070470A460021018C4FF2FF7319404FF642
:1018A000FF7303EA02231943018470470A460021AB
:1018B000018C4DF6FF7319404FF6FF7303EA0233B4
:1018C00019430184704730B5002301248C40A3B232
:1018D000048C9C430484048C02FA01F5ADB22C43C1
:1018E000048430BD30B5002304248C40A3B2048CA2
:1018F0009C430484048C02FA01F5ADB22C430484A9
:1019000030BD70B50346002000241846183001256C
:101910008D40ACB21D8CA5431D8409B1082909D1A5
:1019200000EB6100056825F070050560056815434A
:1019300005600EE00D1FC5F34E052844056825F42B
:10194000E045056005684FF6FF7606EA0226354356
:10195000056070BD21B1028842F00202028004E0FD
:1019600002884FF6FD731A400280704721B1028849
:1019700042F00402028004E002884FF6FB731A4032
:101980000280704721B1828842F08002828004E0A8
:1019900082884FF67F731A408280704702884FF624
:1019A000F7731A40028002880A43028070478288D7
:1019B0004FF68F731A40828082880A438280704774
:1019C00002894FF6F8731A40028102890A430281A4
:1019D000704702894FF67F731A40028102890A43D9
:1019E0000281704781847047818570478186704786
:1019F0000187704781877047A0F8401070470288C0
:101A00004FF6FF431A40028002880A430280704763
:101A10000146888E70470146088F70470146888FBF
:101A200070470146B1F8400070470146888C704706
:101A30000146088D704702460020138A0B4201D0F0
:101A4000012000E000207047CA430282704730B591
:101A50000246002000230024158A05EA0103958927
:101A600005EA010413B10CB1012000E0002030BDF3
:101A7000CA4302827047000010B50446FB48844206
:101A800009D101218803FEF7F9FF00214FF48040BE
:101A9000FEF7F4FF32E0F648844209D10121480400
:101AA000FEF7F9FF00214FF40030FEF7F4FF25E0C8
:101AB000F048844209D101218804FEF7ECFF00219F
:101AC0004FF48020FEF7E7FF18E0EB48844209D18D
:101AD0000121C804FEF7DFFF00214FF40020FEF7CC
:101AE000DAFF0BE0E548844208D101210805FEF742
:101AF000D2FF00214FF48010FEF7CDFF10BD2DE97D
:101B0000F04786B005460E460024A24600BFA14617
:101B10000027B08900B100BF2F462C8A4CF6FF7019
:101B20000440F08804432C82AC894EF6F310044044
:101B3000B08831890843718908430443AC81AC8A79
:101B40004FF6FF400440B0890443AC8201A8FEF781
:101B50000EFFC648874202D1DDF810A001E0DDF893
:101B60000CA0A88910F4004F08D00AEBCA0000EBC3
:101B70000A1031684900B0FBF1F807E00AEBCA002F
:101B800000EB0A1031688900B0FBF1F86420B8FB63
:101B9000F0F004012009642101FB1089A88910F4E8
:101BA000004F08D0322000EBC900B0FBF1F000F08C
:101BB0000700044308E0322000EB09106421B0FB69
:101BC000F1F000F00F0004432C8106B0BDE8F0876F
:101BD0004FF41651016000218180C18001810C21E8
:101BE000418100218181704710B502460020108A92
:101BF0004FF2FF0318400B884C8823438C88234303
:101C0000CC8823431843108210BD002101804180FD
:101C10008180C180704721B1828942F40052828163
:101C200004E082894DF6FF731A4082817047F0B557
:101C300003460024002600250020A1F510676A3F16
:101C400000D100BF1846C1F3421401F01F0601275E
:101C500007FA06F5012C01D10C3004E0022C01D169
:101C6000103000E014301AB107682F43076002E01B
:101C70000768AF430760F0BD1AB1838A0B438382C4
:101C800002E0838A8B4383827047028A4FF6F073A7
:101C90001A400282028A0A430282704782894FF206
:101CA000FF731A40828182890A438281704721B181
:101CB000828942F00202828104E082894FF6FD733C
:101CC0001A4082817047028A4FF6DF731A400282FF
:101CD000028A0A430282704721B1028A42F480429A
:101CE000028204E0028A4BF6FF731A4002827047B8
:101CF000C1F308028280704701468888C0F308005B
:101D00007047818941F0010181817047028BD2B215
:101D10000283028B42EA012202837047028B02F4A3
:101D20007F420283028B0A430283704721B1828A79
:101D300042F02002828204E0828A4FF6DF731A406A
:101D40008282704721B1828A42F01002828204E0CE
:101D5000828A4FF6EF731A408282704721B1828ADD
:101D600042F00802828204E0828A4FF6F7731A403A
:101D70008282704721B1828942F40042828103E06D
:101D80008289C2F30E028281704721B1828A42F4B5
:101D90000062828204E0828A4FF2FF731A408282DC
:101DA0007047828A4FF6FB731A408282828A0A4306
:101DB0008282704721B1828A42F00202828204E06C
:101DC000828A4FF6FD731A408282704702460020D5
:101DD000B1F5007F00D100BF13880B4201D0012074
:101DE00000E00020704701F40072B2F5007F00D1DE
:101DF00000BFCA430280704770B50246002400232A
:101E000000250020A1F510666A3E00D100BFC1F395
:101E1000421501F01F03012606FA03F3012D02D13A
:101E20009689334006E0022D02D1168A334001E044
:101E3000968A33400C12012606FA04F416883440C0
:101E400013B10CB1012000E0002070BD10B50022DC
:101E50000023A1F510646A3C00D100BF0A120124DE
:101E60009440A3B2DC43048010BD00000038014060
:101E70000044004000480040004C0040005000403A
:101E800010B5482000F058F900F0E0FE00F06EFCBC
:101E900000F0E8FB00F0D5FB00F0E9FD00F0F8FEF3
:101EA000022000F015FF2121484803F02EFA0020FF
:101EB00000F0A1FB10BD10B5002400F0FCFE43496A
:101EC000887401F0B8FA42490968401AB0F5FA6F0F
:101ED0000DD93E491731081F00F02DFD044614B1FD
:101EE0003CA003F09DFB01F0A6FA3949086010BD43
:101EF00010B53EA003F094FB032002F045FE10BD98
:101F000010B542A003F08CFB002002F03DFE10BD96
:101F100010B546A003F084FB00221146FA2000F021
:101F200045FC012002F030FE10BD10B546A003F0C4
:101F300077FB0022FA21104600F038FC022002F064
:101F400023FE10BD00B589B0AFF24B00AFF25F01C8
:101F50004FF48063444ACDE90010082103A800F043
:101F600077FA152203A9414803F0B6F9AFF245000C
:101F7000AFF263014FF480733D4ACDE900100421B4
:101F800003A800F065FA152203A93848153003F0BC
:101F9000A3F936483749C1F80100084600F081FA34
:101FA00009B000BDFEF72CF9FFF76AFFFFF7CAFF83
:101FB00002F0D6FD30A003F033FB06E000F09EFEF9
:101FC000FFF779FF014802F0A5FFF7E75400002072
:101FD000280000204661696C656420746F2072657A
:101FE00061642044485431310D0A00004B45593199
:101FF000205052455353202C50726F64756374699E
:102000006F6E204D6F64650A000000004B4559312A
:10201000205052455353204C4F4E47202C57696651
:10202000692052657365740A000000004B455932FF
:10203000205052455353202C536F6674204150203A
:102040006D6F64650A0000004B45593220505245BF
:102050005353204C4F4E47202C4169724C696E6B94
:10206000206D6F64650A0000000C014075000020BF
:10207000000801402C0000204D435520496E697432
:102080002053756363657373200A0000704700BFB7
:10209000FEE700BFFEE700BFFEE700BFFEE77047B8
:1020A0007047704700204FF0E0218861704710B5FD
:1020B00040F225511E48FFF79FFE98B140F225518E
:1020C0001B48FFF7C3FE1A48FFF716FE04462146D9
:1020D0001748FFF70DFE00BF80211548FFF776FE79
:1020E0000028F9D010BD10B540F225511148FFF776
:1020F00083FE98B140F225510E48FFF7A7FE0D4828
:10210000FFF7FAFD044621460A48FFF7F1FD00BF3C
:1021100080210848FFF75AFE0028F9D010BD10B5FD
:102120000120FEF781FD10B10120FEF78DFD10BDED
:10213000003801400048004010B504466FF004002C
:10214000FEF72EF9E11704EB5171C1F3C701224AE2
:1021500011701046007800EB4001C1EBC0104FF643
:10216000FF7101EAC0001D49088010BD01461A4AEE
:1021700012784A434FF0E0235A6100229A6101220B
:102180001A6100BF4FF0E022106910F0010F02D079
:1021900010F4803FF6D000224FF0E0231A619A61DC
:1021A000704701460D4A12884A434FF0E0235A61B6
:1021B00000229A6101221A6100BF4FF0E0221069EB
:1021C00010F0010F02D010F4803FF6D000224FF043
:1021D000E0231A619A617047320000203400002029
:1021E00070B505460024002600BF22E0D5F8012086
:1021F000C4EBC40303EB43031A44B2F8092091B2C1
:10220000D5F80120C4EBC40303EB43031A44D2F80E
:102210000500FEF7D4F950B9D5F80100C4EBC401AC
:1022200001EB4101415C01208840304386B2601CD3
:10223000C4B2BC480078A042D8DC304670BD70B54E
:10224000054600240026B8480078401CB6490870AE
:10225000084600781E2804DB002008700120B349DE
:102260000870B2480078012856D10020AF490870A4
:102270002846FFF7B5FF0446AD48007830B1012885
:102280000BD0022819D0032845D13CE024B1A9483D
:1022900004800120A64908703DE0A64800888442D9
:1022A00007D10220A2490870A248008840F4805655
:1022B00002E000209E4908702DE09E48008884427C
:1022C0000AD000209A4908709B49088099480088E4
:1022D00040F40056304670BD96480088844211D1C3
:1022E00095480088401C9449088008460088642866
:1022F00008DB0020088003208D49087044F4004664
:102300003046E8E707E08B480088844202D000208E
:102310008749087000BF00BF0020DCE770B50546A4
:10232000002400262846FFF78AFF064606B970BD3E
:1023300016F4005F25D0002420E0D5F80100C4EB9E
:10234000C40101EB4101415C01208840304213D0BF
:10235000D5F80100C4EBC40101EB41010844D0F8F9
:102360000D0048B1D5F80110C4EBC40202EB4202E3
:102370001144D1F80D008047601CC4B22878A042F7
:10238000DBDC16F4004F25D0002420E0D5F8010056
:10239000C4EBC40101EB4101415C012088403042A3
:1023A00013D0D5F80100C4EBC40101EB410108448E
:1023B000D0F8110048B1D5F80110C4EBC40202EB0B
:1023C00042021144D1F811008047601CC4B2287841
:1023D000A042DBDC00BFAAE710B501218807FFF7A8
:1023E00036FB30B101218807FFF742FB4D48FFF76C
:1023F00095FF10BD7FB541F61F4509240121084610
:10240000FEF72FFBADF80850ADF804400020ADF802
:102410000A00ADF8060001A9A007FEF7F3FC0122AF
:1024200011469007FFF765F81C208DF8000000208A
:102430008DF8010002208DF8020001208DF80300C4
:102440006846FDF762FF01218807FFF737F87FBD77
:102450002DE9F04387B007460C4615461E46DDE9D8
:102460000E89CDF80540CDF80950CDF80D60334800
:102470000078401C40B231490870C0B28DF80400A9
:10248000CDF81590CDF811802D480078401C2C49CE
:102490000870152201A9384602F01EFF07B0BDE8FA
:1024A000F08338B50446002504B938BD24480078C7
:1024B000207020780C2801DD0C20207000252AE0F7
:1024C00054F8011FC5EBC50202EB42021144D1F8DA
:1024D00001000121FEF7B8FA03208DF80200482020
:1024E0008DF803002068C5EBC50101EB41010844EC
:1024F000B0F8090080B2ADF8000054F80119C5EB3E
:10250000C50202EB42021144D1F805006946FDF70D
:10251000C5FF681CC5B22078A842D1DCFFF76AFF6E
:1025200000BFC2E72C0000203F0000203700002041
:10253000380000203C0000203A0000203E0000202F
:102540003600002008B501210920FEF77DFA01219F
:102550000220FEF786FA01213E48FEF76EF80121BF
:102560003D48FEF76AF83020ADF8000018208DF8DD
:10257000030003208DF8020069463848FDF78EFFFE
:1025800008BD7FB54FF4FA752C466020ADF8000009
:102590000120ADF80200ADF806500020ADF80800AB
:1025A00069462F48FEF76BFC08212D48FFF7B6F867
:1025B0000120ADF80200ADF8064069462848FEF754
:1025C000A0FC08212648FFF7B2F801212448FEF7B5
:1025D00075FF7FBD70B504460D46092604FB06F065
:1025E00081B21F48FFF702FA05FB06F081B21C48D2
:1025F000FFF7FEF970BD70B5044624B90021084606
:10260000FFF7E8FF1CE0002C0DDD251E01DB29464D
:1026100000E06942491D01EB81014906080E0021D5
:10262000FFF7D8FF0CE0251E01DB284600E06842DA
:10263000401D00EB80004006010E0020FFF7CAFF9E
:1026400070BD10B5FFF77EFFFFF79BFF0020FFF77F
:10265000D2FF10BD0002300000081A00000C01403B
:102660000004004008B501210420FEF7EDF9032025
:102670008DF8020010208DF8030003208DF8020071
:102680000120ADF8000069465348FDF707FF08BD7B
:1026900008B500210091009102E00099491C0091C9
:1026A00000998142F9D308BD10B54FF480714B48B1
:1026B000FDF7A1FF2820FFF7EBFF4FF4807147489B
:1026C000FDF797FF2820FFF7E3FF10BD10B54FF48B
:1026D00000714248FDF78FFF002403E0FFF7E4FF9D
:1026E000601CC4B2202CF9DB10BD01460020CA4397
:1026F000C2F38110704770B50446002512E014F053
:10270000004F05D04FF400713448FDF772FF04E02C
:102710004FF400713148FDF76EFF6400FFF7C4FF0E
:10272000681CC5B2202DEADB70BD2DE9F0410746DB
:102730000D461646002444F040443046FFF7D5FFCE
:1027400044EA00742846FFF7D0FF44EA8064384624
:10275000FFF7CBFF44EA006444EA064444EA052458
:102760003C432046FFF7C7FFBDE8F08108B50121D3
:102770000820FEF769F910208DF803004FF440702F
:10278000ADF8000003208DF8020069461348FDF7FC
:1027900085FEFFF79BFF002211461046FFF7C5FF9D
:1027A000002211461046FFF7C0FF08BD70B5044671
:1027B0000D46164601210848FDF71BFFFFF786FF6F
:1027C000324629462046FFF7B0FF324629462046CA
:1027D000FFF7ABFF70BD000000080140000C014096
:1027E00008B50820ADF8000010208DF80300012086
:1027F0008DF802006946AF48FDF750FE0020AE4953
:1028000008604FF01400FFF7CCFC0120AB49C1F881
:102810008C011E20FFF7AAFC08BD38B50024082053
:10282000ADF8000048208DF8030001208DF802006B
:102830006946A048FDF732FE04E0601CC4B20120E6
:10284000FFF794FC9E48006808B1642CF5DB642C0B
:1028500001DB012038BD002404E0601CC4B201206B
:10286000FFF784FC9648006808B9642CF5DB642CFB
:1028700001DB0120EEE70020ECE710B5002404E0C6
:10288000601CC4B20120FFF771FC8D48006808B1DC
:10289000642CF5DB002404E0601CC4B20120FFF7C7
:1028A00065FC8748006808B9642CF5DB1E20FFF73B
:1028B0005DFC8348006808B1012010BD0020FCE7E2
:1028C00070B50024002506E06006040EFFF7D5FF72
:1028D0000443681CC5B2082DF6DB204670BD7CB5EC
:1028E00005460E46FFF77CFFFFF797FFF8B9002477
:1028F00005E0FFF7E5FF0DF80400601CC4B2052CED
:10290000F7DB9DF800009DF8011008449DF80210C7
:1029100008449DF8031008449DF80410884208D12B
:102920009DF8000030709DF80200287001E0012041
:102930007CBD0020FCE72DE9FC47074688460020C7
:10294000019000900024814600250026694601A8D8
:10295000FFF7C5FF8146B9F1010F30D05948007823
:102960000A2814DA9DF8041056480278801C00F8F2
:1029700012109DF80010801E0278801C00EB4200AF
:10298000417050480078401C4E4908701AE0002001
:102990004C4908709DF804104A480278801C00F8E1
:1029A00012109DF80010801E0278801C00EB42007F
:1029B000417044480078401C4249087002E0012000
:1029C000BDE8FC873F4800780A2802DB0A203D4921
:1029D00048703C48407810BB00240EE03948801C09
:1029E00010F81400284485B23648801C00EB4400DF
:1029F0004078304486B2601CC4B232480078A042AD
:102A0000ECDC3048007895FBF0F085B22D4800787A
:102A100096FBF0F086B23D7088F8006025E029480A
:102A200040780A2821D100240EE02648801C10F8A6
:102A30001400284485B22348801C00EB44004078F1
:102A4000304486B2601CC4B21E484078A042ECDC20
:102A50001C48407895FBF0F085B21A48407896FB08
:102A6000F0F086B23D7088F800600020A8E708B555
:102A700001210820FDF7E8FF01211348FDF7DDFDE6
:102A80000820ADF8000010208DF8030003208DF819
:102A9000020069460748FDF701FD08210548FDF7DA
:102AA000A8FDFFF79DFE1621064802F02EFCFFF759
:102AB000B4FE08BD000C01408C81214200802142FF
:102AC0000C8121429F0000200002300008B5012146
:102AD0000420FDF7B9FF01210846FDF7B5FF0121EC
:102AE0008803FDF7B1FF4FF40070ADF80000182027
:102AF0008DF8030003208DF8020069465F48FDF75A
:102B0000CDFC4FF48060ADF8000004208DF8030088
:102B100069465A48FDF7C2FC01211020FDF794FFD9
:102B200001218804FDF79DFF01210846FDF78CFF78
:102B300001215348FDF781FD4FF48060ADF800009E
:102B400018208DF8030003208DF8020069464D48D7
:102B5000FDF7A4FC4FF40060ADF8000004208DF8F0
:102B6000030069464748FDF799FC08BD1FB54FF4BF
:102B7000E13000900020ADF80400ADF80600ADF89B
:102B80000800ADF80C000C20ADF80A0069463E487C
:102B9000FEF7B5FF012240F225513B48FFF747F809
:102BA00001213948FFF737F840213748FFF71BF973
:102BB0004FF4E13000900020ADF80400ADF80600BD
:102BC000ADF80800ADF80C000C20ADF80A0069461D
:102BD0002E48FEF794FF012240F225512B48FFF7C3
:102BE00026F801212948FFF716F840212748FFF76A
:102BF000FAF81FBD08B525208DF8000000208DF8DB
:102C000001008DF8020001208DF803006846FDF7F1
:102C10007CFB27208DF8000000208DF801000120AA
:102C20008DF802008DF803006846FDF76EFB08BDC5
:102C300010B5044621461448FFF75AF800BF80211A
:102C40001148FFF7C3F80028F9D010BD10B5FFF701
:102C50003DFFFFF78BFFFFF7CDFF10BD70B50446BA
:102C60000D46E1B20848FFF743F800BF802106484F
:102C7000FFF7ACF80028F9D0204670BD00080140ED
:102C800010001400001001400038014000480040CE
:102C900008B501210820FDF7D7FE8020ADF800001F
:102CA00048208DF8030002208DF80200694607488D
:102CB000FDF7F4FB08BD10B580210448FDF77FFC4B
:102CC00008B1002010BD0120FCE70000000C01400D
:102CD00070B50446042540F27120604386B245F287
:102CE0005550FDF727FD2846FDF727FD3046FDF737
:102CF00027FDFDF728FDFDF72BFD70BD4AF6AA2044
:102D00000149086070470000003000402DE9FF478E
:102D100007460E4692464FF000083446B146354607
:102D200007B126B94FF0FF3004B0BDE8F0874FF08F
:102D30000008CBE0781C10F80800162876D2DFE8EF
:102D400000F0999A9BBFBF9CA2A3A4BFBFBFBFA521
:102D5000AFAB0B23516376882078DC4908700846B6
:102D60000178DBA002F05CFCD8480078012805D18E
:102D700000221146FE20FFF719FD04E00022114653
:102D80001046FFF713FD9CE06078D0494870084674
:102D90004178D6A002F044FCCC48407830B10128FC
:102DA0000BD002280FD0032819D112E0C74B9A7A12
:102DB00099799878FFF7FAFC12E00022FE21084684
:102DC000FFF7F4FC0CE046220021FE20FFF7EEFCAA
:102DD00006E01E221146EE20FFF7E8FC00E000BFEF
:102DE00000BF6EE0D4F80200B849C1F802000846FE
:102DF000D0F80210C4A002F013FCB44B9A7A99796F
:102E00009878FFF7D3FC5CE0D4F80600AF49C1F82E
:102E100006000846D0F80610C0A002F001FCAB4B3B
:102E20009A7A99799878FFF7C1FC4AE048E0D4F89B
:102E30000A00A649C1F80A000846D0F80A10BCA04A
:102E400002F0EEFBA14B9A7A99799878FFF7AEFCE5
:102E500037E0D4F80E009D49C1F80E000846D0F8BE
:102E60000E10B8A002F0DCFB9849C98908B2FFF740
:102E7000C2FB26E025E024E023E0002211461046B4
:102E8000FFF794FC1DE01CE01BE01AE099F800102D
:102E9000B3A002F0C5FB14E0B4A002F0C1FB10E047
:102EA000D5F80700A9796A792B79CDE90032CDE907
:102EB0000210EB78AA782988B1A002F0B1FB00E0FB
:102EC00000BF00BF08F1010000F0FF08387840455E
:102ED0003FF730AF002027E7012080F3138800BFC1
:102EE00000BFB248006800F4E060B1490843001D2B
:102EF000AE490860BFF3408F00BF00BFFEE710B5CA
:102F00000121AC48FEF7A3FD28B10121A948FEF735
:102F1000AFFD00F088FA10BD7FB541F61F450924CA
:102F200001210220FDF79DFDADF80850ADF80440E9
:102F30000020ADF80A00ADF8060001A99D48FDF794
:102F400061FF012211469B48FEF7D3FA1D208DF840
:102F5000000000208DF8010002208DF80200012001
:102F60008DF803006846FDF7D0F901219148FEF77E
:102F7000A5FA7FBD08B50020009040F225518E488B
:102F8000FEF73AFF68B140F225518B48FEF75EFF2D
:102F90008948FEF7B1FEC0B200900121684600F0FA
:102FA00028FA08BD2DE9F04105460E46002415B962
:102FB000601EBDE8F08100F03EFA07463246394611
:102FC0007EA002F02DFB002423E0295D7A48FEF765
:102FD0008FFE00BF80217848FEF7F8FE0028F9D068
:102FE000295D7BA002F01CFB022C11D3285DFF2879
:102FF0000ED155217048FEF77BFE00BF80216E4840
:10300000FEF7E4FE0028F9D0552171A002F008FB7C
:10301000641CB442D9D334A002F002FB3046C8E7A6
:1030200000B587B001210420FDF70EFD0121480401
:10303000FDF717FD01210846FDF706FD0420ADF858
:10304000180018208DF81B0003208DF81A0006A91F
:103050006148FDF723FA0820ADF8180004208DF828
:103060001B0006A95C48FDF719FA4FF416500290B0
:103070000020ADF80C00ADF80E00ADF81000ADF872
:1030800014000C20ADF8120002A94B48FEF737FDE2
:10309000012240F225514848FEF7C9FD012146486A
:1030A000FEF7B9FD40214448FEF79DFE26208DF82D
:1030B000040000208DF8050001208DF806008DF831
:1030C000070001A8FDF721F907B000BD540000205A
:1030D0004576743A204556454E545F4C45445F4F03
:1030E0004E4F4646202564200A0000004576743A7B
:1030F000204556454E545F4C45445F434F4C4F521C
:103100002025640A000000004576743A4556454E75
:10311000545F4C45445F522025640A004576743A5A
:103120004556454E545F4C45445F472025640A0090
:103130004576743A4556454E545F4C45445F4220AF
:1031400025640A004576743A4556454E545F4D4F06
:10315000544F525F53504545442025640A000000F7
:10316000525353492025640A000000005452414E36
:1031700053504152454E545F44415441200A00008F
:10318000574946495F4E5450203A205B25642D250F
:10319000642D256420253032643A253032643A2586
:1031A0003032645D5B25645D200A00000CED00E0B8
:1031B0000000FA0500040040004400404D43553231
:1031C000576946695B2534643A2534645D3A2000CA
:1031D00025303278200000000008014010B5044678
:1031E0001CB9FAA002F01CFA10BDE0686060E0684B
:1031F000A06000BFF8E710B504461CB9F3A002F0C8
:103200000FFA10BD0020E0606060A060206000BF89
:10321000F7E710B504462CB9ECA002F001FA4FF024
:10322000FF3010BD2068FCE710B504462CB9E7A0BC
:1032300002F0F6F94FF0FF3010BDD4E901018842E9
:1032400001D10020F8E7D4E90101884203D2D4E992
:103250000110401AF0E72046FFF7DBFFD4E9011226
:10326000891A401AE8E770B504462CB9D7A002F0D5
:10327000D7F94FF0FF3070BD2046FFF7CAFF054673
:103280002046FFF7D1FF281AF5E72DE9F041044663
:103290000F46164600252CB9CCA002F0C1F9681ED5
:1032A000BDE8F0812FB9D0A002F0BAF94FF0FF309D
:1032B000F6E7D4E90101884214D22046FFF7B4FFB3
:1032C000B04201D9304602E02046FFF7ADFF054687
:1032D0002A463846616801F0FFFF60682844606054
:1032E0002846DDE72046FFF794FFE2686168891A07
:1032F000401AB0420AD935462A463846616801F07C
:10330000EBFF6068284460602846C9E72046FFF765
:1033100080FFE2686168891A451A2A463846616862
:1033200001F0DAFFE0686060721B79192046FFF750
:10333000ACFF05442846B3E72DE9F04104460F46AB
:10334000154600262CB9AFA002F06AF9701EBDE840
:10335000F0812FB9B1A002F063F94FF0FF30F6E72A
:103360002046FFF780FFA8420AD82046FFF77BFFE0
:1033700080464146AFA002F053F94FF0FF30E6E738
:10338000D4E9010188422AD82046FFF742FFD4E958
:103390000212891A461AB54213D82A463946A0683D
:1033A00001F09AFFA0682844A0602046FFF731FF93
:1033B000E1680844A168884201D1E068A06028461D
:1033C000C5E732463946A06801F086FFE068A06094
:1033D000AA1BB9192046FFF7AFFF3044B7E72A46CA
:1033E0003946A06801F078FFA0682844A06028460C
:1033F000ADE770B504460D46002624B993A002F04F
:103400000FF9701E70BD2A4621469948FFF794FFB8
:103410000646AE4205D097A002F002F94FF0FF3009
:10342000F0E73046EEE79A48D0F87507401C984917
:10343000C1F8750770479648D0F8750770472DE9B1
:10344000F04104460D460027002604B135B929464F
:1034500090A002F0E5F80020BDE8F081022603E02C
:10346000A05D3844C7B2761C681EB042F8D8384612
:10347000F2E701B581B0694601AA5078087010786A
:103480004870BDF800000CBD0146080601F47F42FB
:1034900040EA022001F47F0240EA122040EA116073
:1034A00070472DE9F04104460E4600250027A84646
:1034B0002CB986A002F0B4F8681EBDE8F0810025A2
:1034C0000AE0675D701B401E14F8008004F8058058
:1034D000701B401E27546D1CB5EB560FF1D3002016
:1034E000EBE710B503460020541AB4FBF3F010BD0F
:1034F00010B50346002002FB031010BD2DE9F04774
:1035000004460E46154600273146284601F05AFF6C
:103510008146214601F092FF804601F0D4FF074624
:103520003846BDE8F0872DE9F04704460E461546BB
:103530000027284601F0C2FF8146214601F048FFDE
:103540008046314601F0ECFE07463846BDE8F0877C
:10355000024612B112F0070F05D1082901D8002048
:1035600070470120FCE702F00700C0F10800884224
:1035700001D30020F4E70120F2E72DE9FC5F0546C6
:103580000C46164699460C9F4FF0000AD346002081
:1035900001908046B9F1000F00D037B956A002F073
:1035A0003FF84FF0FF30BDE8FC9F3A464946684679
:1035B00001F092FE012F07D939466846FFF771FFE7
:1035C000B0F1FF3F00D1AFE0B4E000004552524FF0
:1035D000523A20696E707574207262206973204EB1
:1035E000554C4C0A000000004552524F523A206997
:1035F0006E7075742064617461206973204E554C3F
:103600004C0A00004552524F523A207262206973B0
:1036100020656D707479200A000000004552524FF9
:10362000523A206461746120697320656D70747909
:10363000200A00004552524F523A206E6F206D65AD
:103640006D6F7279202564200A0000004552524FA8
:10365000523A2067697A50757444617461206275CA
:103660006620697320656D707479200A000000007F
:10367000900C00204552524F523A204661696C65C9
:103680006420746F2072625772697465200A0000AA
:10369000B80000204552524F523A2067697A507262
:1036A0006F746F636F6C53756D202C20627566208C
:1036B000697320656D707479206F72206C656E205F
:1036C0006572726F72202564200A000067697A4271
:1036D0007974654F7264657245786368616E676579
:1036E000204572726F72202C20496C6C6567616C8A
:1036F00020506172616D0A0067697A4465636F6D7D
:103700007072657373696F6E56616C756520457272
:10371000726F72202C20496C6C6567616C2050615F
:1037200072616D0A00000000FEA001F079FF4FF009
:10373000FF3038E731462046FFF70AFF8246BAF1EC
:10374000000F0CD11DF8050004F007010841C6F177
:103750000802FF211141084040EA080821E0BAF1BF
:10376000010F1ED1681C1DF8000004F00701C1F113
:103770000801711AC1F10802FF21114100EA010B91
:103780001DF8050004F007010841019004F007004E
:10379000C0F108010BFA01F040EA0808019848EA74
:1037A00000084046FFE62DE9F05F05460E469046CC
:1037B0001C460A9F4FF0000AD346D14634B9E6A012
:1037C00001F02EFF4FF0FF30BDE8F09F414630463C
:1037D000FFF7BEFE8146B9F1000F07D1605D06F02C
:1037E000070107FA01F1084360551EE0B9F1010F26
:1037F0001BD1F8B206F00701C1F1080140FA01FA45
:1038000006F00700C0F10801FF20084100EA070B9D
:10381000681C205C40EA0A00691C6054605D06F088
:1038200007010BFA01F1084360550020CCE72DE9B0
:10383000FE4F80460E4617464FF0000B00200290C8
:1038400081468246002534460090B8F1000F01D031
:1038500006B137B9CAA001F0E3FE4FF0FF30BDE872
:10386000FE8F4046FFF7E0FC00F0FF0ABAF1000FC0
:1038700002D14FF0FF30F2E74FF0000960E0012283
:1038800001A94046FFF701FD00F0FF0BBBF1000F5F
:1038900052D0C7480078FF281FD19DF80400FF28A8
:1038A0001BD1C448007848B9FF2020706070022006
:1038B000C14908800120BF49087034E0BE48008833
:1038C000042830DDBC480088A8422CD0FF2020709E
:1038D00060700220B849088025E0B5480078FF28CC
:1038E00003D19DF8040055281DD0B2480078012866
:1038F00019D19DF80400B04909886054AE48008889
:10390000401CAD4908800846008804280BDD00945F
:10391000009C6088FFF7ADFD001D85B2A6480088B9
:10392000A84200D10EE09DF80400A1490870A34808
:103930000078401CA149087009F1010000F0FF095E
:10394000D1459CDB00BF9C480088042823DD9A48B1
:103950000088A8421FD1984801882046FFF76FFDD4
:10396000029095480088401E215C029881420FD148
:103970002A462146304601F0AFFC3D8000208D49AB
:1039800008708D4908808D4908708949087066E77C
:103990006FF0010063E7012061E7F8B505460C46CA
:1039A00016460DB104B12EB985A001F039FE4FF0D5
:1039B000FF30F8BD287810F0010F13D010212278C5
:1039C000601C81542078401C207001206B1C024632
:1039D000002100900846FFF7D0FD08B1012000E06B
:1039E000002030702878C0F3400078B1112122788F
:1039F000601C81542078401C207001206B1C022226
:103A0000014600900020FFF7B8FD70702878C0F3E1
:103A1000800068B112212278601C81542078401CFB
:103A20002070AA7800210120FFF762FDC6F802008D
:103A30002878C0F3C00068B113212278601C81543B
:103A40002078401C2070EA7800210120FFF750FD0B
:103A5000C6F806002878C0F3001068B11421227857
:103A6000601C81542078401C20702A79002101209C
:103A7000FFF73EFDC6F80A002878C0F3401098B161
:103A800015212278601C81542078401C2070B5F8E4
:103A90000500FFF7EEFC07463A466FF004010120EF
:103AA000FFF726FDC6F80E00002082E770B5044639
:103AB0000D46002604B12DB94CA001F0B1FD4FF028
:103AC000FF3070BD28782178884203D051A001F0E2
:103AD000A7FD012668786178884203D053A001F0E1
:103AE0009FFD0126D5F80200D4F80210884203D0C9
:103AF00054A001F095FD0126D5F80600D4F8061073
:103B0000884203D054A001F08BFD0126D5F80A00AD
:103B1000D4F80A10884203D054A001F081FDAFE030
:103B2000AFE0000067697A4465636F6D707265731A
:103B300073696F6E56616C75652067697A42797436
:103B4000654F7264657245786368616E676520458C
:103B500072726F72200A000067697A436F6D70722B
:103B600065737356616C7565204572726F72202C97
:103B700020496C6C6567616C20506172616D0A0050
:103B800067697A50726F746F636F6C4765744F6EBC
:103B9000655061636B6574204572726F72202C20D2
:103BA000496C6C6567616C20506172616D0A000040
:103BB000440000204000002042000020450000207A
:103BC00067697A44617461506F696E7432457665D5
:103BD0006E74204572726F72202C20496C6C656780
:103BE000616C20506172616D0A00000067697A4360
:103BF0006865636B5265706F7274204572726F7284
:103C0000202C20496C6C6567616C20506172616D7D
:103C10000A00000076616C75654C45445F4F6E4F3D
:103C20006666204368616E6765640A0076616C753C
:103C3000654C45445F436F6C6F72204368616E67EB
:103C400065640A0076616C75654C45445F5220439B
:103C500068616E6765640A0076616C75654C454401
:103C60005F47204368616E6765640A0076616C7522
:103C7000654C45445F42204368616E6765640A0095
:103C80000126D5F80E00D4F80E10884203D0DEA02D
:103C900001F0C6FC0126A87CA17C884203D0E1A0EB
:103CA00001F0BEFC0126E87EE17E884203D0E3A05D
:103CB00001F0B6FC0126287F217F884203D0E5A0D1
:103CC00001F0AEFC0126687F617F884203D0E7A047
:103CD00001F0A6FC0126A87FA17F884203D0E9A0BD
:103CE00001F09EFC0126E87FE17F884203D0ECA032
:103CF00001F096FC012695F8200094F820108842E7
:103D000003D0EEA001F08CFC0126D5F81300D4F806
:103D10001310884210D0FFF78EFBEE490968401A55
:103D200041F27071884207D3EBA001F079FCFFF7F4
:103D300082FBE84908600126D5F81700D4F817106F
:103D4000884210D0FFF777FBE2490968401A41F238
:103D50007071884207D3E7A001F062FCFFF76BFBAC
:103D6000DC49086001263046ABE6F8B505460C464E
:103D700005B12CB9E5A001F053FC4FF0FF30F8BDC0
:103D800000202070A0712878234601220021009095
:103D90000846FFF708FD68782346022201210090BB
:103DA0000020FFF700FDA87CAD1C23460122002166
:103DB00000900620FFF7F7FC01212046FFF771FB7A
:103DC0000121A01DFFF76DFB697E607A61F30000A1
:103DD0006072A97E607A61F341006072E97EA07A28
:103DE00061F30000A072297FA07A61F34100A07204
:103DF000697FA07A61F38200A072A97FA07A61F343
:103E0000C300A0722A6800210120FFF76AFB6070DE
:103E10006A6800210120FFF764FBA070AA680021F6
:103E20000120FFF75EFBE070D5F811206FF00C0168
:103E30000120FFF756FBE071D5F815200021012085
:103E4000FFF74FFB2072EA68A5F102056FF004014D
:103E50004FF00100FFF745FB86B23046FFF709FB44
:103E6000A08000208BE710B504462CB9B3A001F068
:103E7000D7FB4FF0FF3010BD002020606060FF20B6
:103E8000207060700020F6E770B504460D4634B926
:103E9000AFF6780001F0C4FB4FF0FF3070BD40F288
:103EA000BE31B14801F031FA2A462146AE48801CA5
:103EB00001F012FAAD48A0F8315B012180F87A17C1
:103EC000FFF7B9FAA949C1F8330B0020E6E710B5AE
:103ED0000024A64890F87A0700B910BDA4A001F00C
:103EE0009FFBA248B0F8311B00F27B70FFF75AF835
:103EF000C4B29E48B0F8310BA04202D0A4A001F099
:103F00008FFBFFF798FA9949C1F8330B00BFE4E73C
:103F100070B50446944DAD1C34B9AFF6001001F0F5
:103F20007FFB4FF0FF3070BD2879401C217988421B
:103F300004D140F2BE318C4801F0E7F90020F2E7ED
:103F40003EB50446002524B998A001F069FB681E1F
:103F50003EBD20680090606801909DF80400401C00
:103F6000C0B28DF804000520FFF783FAADF8020017
:103F700009216846FFF763FA8DF8080009216846B1
:103F8000FFF710F80546002D03DA294692A001F04C
:103F900047FB2846DCE710B5744890F87A070128FB
:103FA0002AD1724890F87907022820DCFFF743FAFB
:103FB0006E49D1F8331B401A40F6B83188421BD9FC
:103FC000FFF739FA0446694890F87937D0F8332B6F
:103FD000214689A001F024FBFFF779FF634890F8A0
:103FE0007907401CC1B2614880F8791704E040F2BB
:103FF000BE315D4801F089F910BD30B595B0044679
:10400000002504B90CE111E176616C75654D6F74A2
:104010006F725F5370656564204368616E676564A5
:104020000A00000076616C7565496E6672617265A2
:1040300064204368616E6765640A000076616C7590
:1040400065416C6572745F31204368616E676564B9
:104050000A00000076616C7565416C6572745F32B0
:10406000204368616E6765640A00000076616C75C4
:10407000654661756C745F4C4544204368616E67AA
:1040800065640A0076616C75654661756C745F4D98
:104090006F746F72204368616E6765640A00000088
:1040A00076616C75654661756C745F54656D4875B5
:1040B0006D204368616E6765640A000076616C7507
:1040C000654661756C745F4952204368616E67652F
:1040D000640A00004800002076616C756554656DC7
:1040E0007065726174757265204368616E6765649E
:1040F0000A00000076616C756548756D69646974C5
:1041000079204368616E6765640A000067697A44D4
:10411000617461506F696E7473325265706F72743E
:1041200044617461204572726F72202C20496C6C5E
:104130006567616C20506172616D0A004552524F93
:10414000523A2067697A50726F746F636F6C48657A
:104150006164496E697420686561642069732065D3
:104160006D707479200A000031080020B80000202A
:104170005761726E696E673A2074696D656F757408
:104180002C20726573656E642064617461200A007E
:104190004552524F523A20726573656E64206461D5
:1041A0007461206572726F720A0000004552524FAE
:1041B000523A2067697A50726F746F636F6C436F05
:1041C0006D6D6F6E41636B20646174612069732053
:1041D000656D707479200A004552524F523A20752D
:1041E000617274207772697465206572726F7220D3
:1041F0002564200A000000005761726E696E673AFC
:1042000067697A50726F746F636F6C526573656E15
:1042100064446174612025642025642025640A00BB
:10422000F6A001F0FDF9681E15B030BD6846FFF735
:104230001AFE02208DF8040060798DF80500FBA1BC
:1042400003C9CDE90201FCA103C9CDE90401FDA127
:1042500003C9CDE90801FEA103C9CDE90601202269
:10426000FEA10AA801F038F80020CDF84A00CDF8E8
:104270004E009DF851008DF851009DF8510040F01E
:1042800002018DF851100020FFF7F3F8ADF8480057
:104290004F20FFF7EEF8ADF8020053216846FFF714
:1042A000CEF88DF8520053216846FEF77BFE054696
:1042B000002D04DA2946AFF2E00001F0B1F92846FA
:1042C000B2E7FEB504460E46002524B9ECA001F085
:1042D000A7F9681EFEBD6846FFF7C5FD12208DF8E0
:1042E000040060798DF805000620FFF7C2F8ADF8EC
:1042F00002008DF808600A216846FFF7A0F88DF8E3
:1043000009000A216846FEF74DFE0546002D04DA35
:104310002946AFF23C1001F083F92846DAE770B580
:1043200004460026254624B9E0A001F079F9701E64
:1043300070BDE448A9680160E9684160298A01818B
:10434000A97C8172A0F6CA31B1F8CA0BFFF791F8C7
:10435000DD49A1F8CA0BD1F8D10BFFF795F8DA497E
:10436000C1F8D10B0E21D84890F8652B00F66630C5
:104370008154D54890F8650B401CC1B2D24880F8F2
:10438000651B0420D04908700020D1E710B5FFF765
:1043900052F8044600BFFFF74EF8001BB0F5167F39
:1043A000F9D9FEF799FD10BD10B504462CB9C7A088
:1043B00001F036F94FF0FF3010BD2089FFF759F8B2
:1043C0002081CE480078C0F38000217AC1F38001BB
:1043D00088425ED0207AC0F3800000282DD0207A59
:1043E00010F0010F11D00021B74890F84E2B00F6C5
:1043F0004F308154B44890F84E0B401CC1B2B248C3
:1044000080F84E1BBEA001F00BF9207AC0F34000EB
:1044100000283ED00121AC4890F84E2B00F64F30DA
:104420008154A94890F84E0B401CC1B2A64880F8B0
:104430004E1BBBA001F0F4F82BE0207A10F0010F26
:1044400011D00021A04890F84E2B00F64F30815437
:104450009D4890F84E0B401CC1B29B4880F84E1B03
:10446000A7A001F0DDF8207AC0F3400088B1022156
:10447000954890F84E2B00F64F308154924890F8B2
:104480004E0B401CC1B2904880F84E1BABA001F00F
:10449000C7F89A480078C0F3C000217AC1F3C00180
:1044A000884231D0207AC0F3C0019448007861F38B
:1044B000C30092490870207AC0F3C00090B1032174
:1044C000814890F84E2B00F64F3081547E4890F88A
:1044D0004E0B401CC1B27C4880F84E1B9EA001F0E0
:1044E0009FF811E00421784890F84E2B00F64F30E9
:1044F0008154754890F84E0B401CC1B2724880F848
:104500004E1B9DA001F08CF87C480078C0F3001091
:10451000217AC1F30011884231D0207AC0F3001112
:104520007648007861F3041074490870207AC0F36B
:10453000001090B10521644890F84E2B00F64F30E2
:104540008154614890F84E0B401CC1B25E4880F81F
:104550004E1B91A001F064F811E006215A4890F832
:104560004E2B00F64F308154574890F84E0B401CAC
:10457000C1B2554880F84E1B8FA001F051F85F483A
:104580000078C0F34010217AC1F34011884231D045
:10459000207AC0F340115948007861F3451057491B
:1045A0000870207AC0F3401090B10721464890F877
:1045B0004E2B00F64F308154434890F84E0B401C70
:1045C000C1B2414880F84E1B84A001F029F811E0E7
:1045D00008213D4890F84E2B00F64F3081543A4860
:1045E00090F84E0B401CC1B2374880F84E1B82A099
:1045F00001F016F8414840780EE1000067697A50F2
:10460000726F746F636F6C47657444657669636538
:10461000496E666F204572726F72202C20496C6C57
:104620006567616C20506172616D0A003030303016
:104630003030303400000000303030303030303234
:1046400000000000303330313031303200000000E3
:1046500030333031303130300000000036663330D6
:10466000373466653433383934353437613466313C
:1046700033313462643765336165306200000000B5
:1046800067697A50726F746F636F6C4572726F7284
:10469000436D64204572726F72202C20496C6C65EA
:1046A00067616C20506172616D0A00004552524F83
:1046B000523A204E545020697320656D70747920F1
:1046C0000A000000820C0020B800002067697A50C0
:1046D000726F746F636F6C4D6F64756C655374614A
:1046E000747573204572726F72202C20496C6C6552
:1046F00067616C20506172616D0A00004C000020FF
:104700004F6E426F617264696E673A20536F6674D0
:104710004150206F7220576562206D6F64650A00FA
:104720004F6E426F617264696E673A204169724CE4
:10473000696E6B206D6F64650A0000004F6E426FFA
:10474000617264696E673A2053746174696F6E2098
:104750006D6F64650A0000005769466920737461D3
:104760007475733A20696E2062696E64696E6720A1
:104770006D6F64650A0000005769466920737461B3
:104780007475733A206F75742062696E64696E6720
:10479000206D6F64650A0000576946692073746173
:1047A0007475733A20636F6E6E656374656420720E
:1047B0006F757465720A00005769466920737461E9
:1047C0007475733A20646973636F6E6E65637465A4
:1047D0006420726F757465720A000000576946693B
:1047E000207374617475733A20636F6E6E656374C1
:1047F0006564206D326D0A005769466920737461E3
:104800007475733A20646973636F6E6E6563746563
:1048100064206D326D0A0000C0F3C001607AC0F3FD
:10482000C000814231D0607AC0F3C001FE484078B8
:1048300061F3C300FC494870607AC0F3C00090B1D6
:104840000B21FA4890F84E2B00F64F308154F74870
:1048500090F84E0B401CC1B2F44880F84E1BF4A0F7
:1048600000F0DEFE11E00C21F04890F84E2B00F62F
:104870004F308154ED4890F84E0B401CC1B2EB48CC
:1048800080F84E1BF1A000F0CBFEE7484078C0F363
:104890000011607AC0F30010814231D0607AC0F319
:1048A0000011E148407861F30410DF494870607AF4
:1048B000C0F3001090B10921DC4890F84E2B00F6AF
:1048C0004F308154D94890F84E0B401CC1B2D748A4
:1048D00080F84E1BE5A000F0A3FE11E00A21D348AA
:1048E00090F84E2B00F64F308154D04890F84E0B84
:1048F000401CC1B2CD4880F84E1BE3A000F090FEF2
:104900000D21CA4890F84E2B00F64F308154C7480D
:1049100090F84E0B401CC1B2C44880F84E1B607A20
:1049200000F00701C14880F8C91B90F8C91BDDA041
:1049300000F076FE0220BD49087000203CE52DE91C
:10494000F0478AB00446884616460027BA46B9465C
:10495000254614B1B8F1000F07D1D6A000F060FED3
:104960004FF0FF300AB0BDE8F087D6B901A8FFF7D5
:104970007AFA2079401CC0B28DF8080060798DF871
:1049800009000520FEF775FDADF80600092101A814
:10499000FEF755FD8DF80C000DF1040A4FF00909E2
:1049A00025E004A8FFF75FFA2879401CC0B28DF813
:1049B000140068798DF81500B11D88B2FEF759FD15
:1049C000ADF81200287A401CC0B28DF818003246AB
:1049D00041460DF1190000F07FFC152104A8FEF7F7
:1049E0002EFD8DF824000DF1100A4FF015094946EF
:1049F0005046FEF7D7FA0746002F04DA4A463946F2
:104A0000B84800F00DFE3846ACE7F0B587B0054673
:104A10000E46174600242EB9B3A000F001FE601E1A
:104A200007B0F0BD01A8FFF71EFA05208DF80800B9
:104A30007E4890F87127D0F87107401C7B49C1F877
:104A40007107D0B28DF809008DF80C501120FEF7D7
:104A500010FDADF806003A4631460DF10D0000F0AC
:104A60003BFC152101A8FEF7EAFC8DF81800152182
:104A700001A8FEF797FA0446002C04DA2146AFF6A7
:104A8000A80000F0CDFD152101A8FFF7FDF9204693
:104A9000C6E72DE9F04704460E4617461D46A046D8
:104AA0004FF0000998F808900CB107B135B998A0FB
:104AB00000F0B6FD4FF0FF30BDE8F0871721A048A9
:104AC00000F023FCB9F1010F06D0B9F1020F11D0AB
:104AD000B9F1050F40D120E0994A4532984904F1D7
:104AE0000900FEF75AFF01205049087000270020F6
:104AF000286032E092498731A1F12100FFF735F9B2
:104B00008F4887300168396041687960018939814F
:104B1000807AB8720B2028601FE0A6F10A0204F127
:104B20000901884800F0D8FBA6F10A003F49C1F806
:104B30006D070F213D4890F8372B00F6383081542F
:104B40003A4890F8370B401CC1B2384880F8371B00
:104B500003203649087000E000BF00BF0020ABE72B
:104B600010B5FEF7D9F9FEF75BFA40F26C707649A2
:104B700008607648C8600846FEF730FB40F6D5313D
:104B80002A4800F0C2FB10BD30B587B005460024AE
:104B9000052D47D2DFE805F00331FBF9F80001A845
:104BA000FFF761F90B208DF80800204890F8712775
:104BB000D0F87107401C1D49C1F87107D0B28DF8BB
:104BC00009000520FEF755FCADF80600092101A8F3
:104BD000FEF735FC8DF80C00092101A8FEF7E2F97B
:104BE0000446002C04DA2146AFF6142000F018FD2C
:104BF000092101A8FFF748F959E104A8FFF733F9A3
:104C000009208DF81400094890F87127D0F8710731
:104C1000401C0649C1F87107D0B28DF815008DF817
:104C2000185095E03FE100004C000020B800002043
:104C300057694669207374617475733A20617070A6
:104C400020636F6E6E6563740A00000057694669E1
:104C5000207374617475733A206E6F2061707020D8
:104C6000636F6E6E6563740A0000000057694669E1
:104C7000207374617475733A20696E20746573745F
:104C8000206D6F64650A000057694669207374617E
:104C90007475733A206F75742074657374206D6F2A
:104CA00064650A0052535349206973202564200A21
:104CB0000000000067697A50726F746F636F6C490F
:104CC00073737565644461746141636B20457272EE
:104CD0006F72202C20496C6C6567616C205061728A
:104CE000616D0A00C05A000867697A5265706F7278
:104CF0007444617461204572726F72202C20496C7B
:104D00006C6567616C20506172616D0A0000000083
:104D100067697A50726F746F636F6C4973737565EE
:104D20006450726F63657373204572726F72202CCA
:104D300020496C6C6567616C20506172616D0A007E
:104D4000EF0B00206F040020900C0020A00C00202E
:104D50000620FEF78EFBADF812000A2104A8FEF72C
:104D60006EFB8DF819000A2104A8FEF71BF9044612
:104D7000002C04DA2146AFF6A03000F051FC0A21E5
:104D800004A8FFF781F892E05FE030E0FFE704A8B5
:104D9000FFF769F809208DF81400FA4890F8712798
:104DA000D0F87107401CF749C1F87107D0B28DF8EF
:104DB00015008DF818500620FEF75BFBADF81200C9
:104DC0000A2104A8FEF73BFB8DF819000A2104A86C
:104DD000FEF7E8F80446002C04DA2146AFF6084056
:104DE00000F01EFC0A2104A8FFF74EF85FE001A8BE
:104DF000FFF739F813208DF80800E24890F8712782
:104E0000D0F87107401CDF49C1F87107D0B28DF8A6
:104E100009000520FEF72DFBADF80600092101A8C9
:104E2000FEF70DFB8DF80C00092101A8FEF7BAF87A
:104E30000446002C04DA2146AFF6644000F0F0FB93
:104E4000092101A8FFF720F831E001A8FFF70BF8CE
:104E500015208DF80800CB4890F87127D0F871071D
:104E6000401CC849C1F87107D0B28DF8090005206F
:104E7000FEF7FFFAADF80600092101A8FEF7DFFAF8
:104E80008DF80C00092101A8FEF78CF80446002CCF
:104E900004DA2146AFF6C04000F0C2FB092101A8A8
:104EA000FEF7F2FF03E0B8A000F0BAFB00BF00BFBE
:104EB000204607B030BD3EB500246846FEF7D3FF5C
:104EC00017208DF80400AF4890F87127D0F87107CB
:104ED000401CAC49C1F87107D0B28DF8050005201F
:104EE000FEF7C7FAADF8020009216846FEF7A7FAF7
:104EF0008DF8080009216846FEF754F80446002C96
:104F000003DA2146A6A000F08BFB09216846FEF7D4
:104F1000BBFF3EBD2DE9F041ADF5EF6D0446002528
:104F2000002600200290019000273CB9A5A000F0C7
:104F300077FB681E0DF5EF6DBDE8F081FFF72BF8EC
:104F400002AA9049491CA948FEF771FC0546002DAC
:104F500075D1A7A000F064FBFEF76DFA8046BDF89E
:104F600008204146A7A000F05BFB002607E085482B
:104F7000401C815DA8A000F053FB701C86B2BDF8F8
:104F800008008642F3DB8EA000F04AFB7D4F7F1CB9
:104F900038790D2834D00EDC07282DD006DC012806
:104FA00016D0032818D0062854D130E00A282FD074
:104FB0000C284FD12DE014283AD004DC0F282DD036
:104FC000112847D133E0162824D0182842D137E0E1
:104FD0003846FFF712F845E001AB03AABDF8081008
:104FE0006848401CFFF755FD054625B903A938461A
:104FF000019AFFF7A4FC35E03846FEF7A1FF31E047
:105000003846FEF79DFF3846FFF7CEF92AE000BF8D
:1050100000BF00BF3846FEF77BFF23E03846FEF7AF
:105020008FFF7FA000F0FCFAFFF7B0F91AE019E05B
:105030003846FEF76DFF7FA000F0F2FA12E012E0B2
:105040003846FEF765FF3846FFF769F981A000F0A2
:10505000E7FA07E002213846FFF733F983A000F0B2
:10506000DFFA00BF0EE015F1020F0BD1454F7F1C98
:1050700001213846FFF725F982A000F0D1FA6FF040
:10508000010057E73F480078012806D0022813D0D6
:10509000032821D004283BD12AE000203949087098
:1050A000212201F67C31A1F14500FDF72FFE1721E9
:1050B0007B4800F02AF92BE00020324908700122D9
:1050C00001F6C931A1F17B00FDF720FE17217448DC
:1050D000173000F01AF91BE000202A490870084632
:1050E000D0F86D2700F2B7316D48FDF70FFE0FE0E5
:1050F0000020244908700B2201F6CA31A1F1650095
:10510000FDF704FE172166482E3000F0FEF800BFC0
:1051100000BF634966312046FEF7C8FC012813D161
:1051200060A000F07DFA5E4987312046FEF71DFE43
:105130000B225B4987310420FFF767FC21222146BF
:105140005748663000F0C8F8FEF775F95B49B0FBC8
:10515000F1F201FB120098B959A000F061FA504930
:1051600087312046FEF701FE0B224D49873104208E
:10517000FFF74BFC212221464948663000F0ACF88D
:105180000020D7E6B80000204552524F523A204343
:1051900066674D6F6465206572726F72210A000048
:1051A0004552524F525B4E54505D3A2075617274B5
:1051B000207772697465206572726F722025642091
:1051C0000A00000047697A7769747348616E646CFD
:1051D00065204572726F72202C20496C6C65676186
:1051E0006C20506172616D0A00000000900C00207C
:1051F000476574204F6E65205061636B6574210AAA
:105200000000000057694669324D43555B25346400
:105210003A2534645D3A20002530327820000000C1
:105220007265706F72743A4D4355207265626F6F8C
:1052300074210A0041636B2050524F445543544936
:105240004F4E5F4D4F444520737563636573732004
:105250000A00000041636B204745545F55545420B9
:1052600073756363657373200A0000004552524FE3
:10527000523A20636D6420636F6465206572726FBB
:1052800072210A004552524F523A20636865636B9F
:105290002073756D206572726F72210A0000000024
:1052A000EF0B00206368616E6765642C2072657087
:1052B0006F727420646174610A000000C0270900E5
:1052C000496E666F3A2036303053207265706F72C7
:1052D0007420646174610A0040EA01039B0703D0F3
:1052E00009E008C9121F08C0042AFAD203E011F825
:1052F000013B00F8013B521EF9D27047D2B201E0E7
:1053000000F8012B491EFBD270470022F6E710B5CA
:1053100013460A4604461946FFF7F0FF204610BD23
:10532000F0B480EA0102D40F4200B2EB410F02D286
:105330000246084611464A0042D0C30DDDB2C1F311
:10534000C752AD1A202D35DAC1F3160141F400021F
:1053500004B15242C5F1200602FA06F12A41104476
:10536000B3EBD05F23D0C4B1012DA0EBC35009DC57
:10537000F0BC4FF0004202EAC35200F50000DBB27D
:1053800000F0EFB8400000F1807000EBC350A0F1D6
:10539000807040EAD170490009E0490841EAC071D3
:1053A000A0EBC35000F50000400800EBC350F0BC78
:1053B00000F0CEB86142012202EB4101001BF6E78A
:1053C000F0BC704781F00041AAE780F00040A7E7F9
:1053D00080EA010210B502F00043400026D04A00E6
:1053E00023D04FEA106101EB1261C0F35600C2F303
:1053F000560240F4000042F40002A0FB0220A1F19A
:105400007F014FEA0040140401D000F1010050EA8E
:10541000124001D44000491EC2B20C0604EBD01069
:10542000401C4008802A02D003E0002010BD20F07C
:105430000100002900DA0020184310BD30B480EAD2
:10544000010202F0004530F0004221F0004015D08A
:10545000A0B1C0F3C753C2F3C754C2F31601C0F3DF
:105460001600E41A41F4000140F400027D34914238
:1054700001D3641C00E04900002C02DA30BC00209B
:1054800070474FF400000023914201D3891A03436F
:1054900040084FEA4101F7D151B1914202D14FF09A
:1054A000004105E002D24FF0010101E06FF001017F
:1054B00003EBC450284430BC00F04AB896230022C5
:1054C000114600F04EB820F00040C10DC0F31600A8
:1054D00040F400007F2901DA00207047962903DCA0
:1054E000C1F19601C84070479639884070472DE950
:1054F000F05F0546002092469B4688460646814658
:1055000040241BE0284641464746224600F077F8F3
:1055100053465A46C01A914110D3114618462246A6
:1055200000F05EF82D1A67EB01084F462246012075
:10553000002100F055F817EB00094E41201EA4F1A0
:105540000104DFDC484631462A464346BDE8F09F69
:105550000029A8BF7047401C490008BF20F0010087
:10556000704710B4B0FA80FC00FA0CF050EA010465
:1055700004BF10BC704749B1CCF1200421FA04F4F7
:1055800011FA0CF118BF012121430843A3EB0C01D0
:10559000CB1D0106000A002BBEBF002010BC7047C7
:1055A00000EBC35010440029A4BF10BC7047401C3E
:1055B000490008BF20F0010010BC7047064C074DA1
:1055C00006E0E06840F0010394E8070098471034D3
:1055D000AC42F6D3FAF78EFD045B0008245B0008AA
:1055E000202A04DB203A00FA02F1002070479140A3
:1055F000C2F1200320FA03F3194390407047202A98
:1056000004DB203A21FA02F00021704721FA02F36C
:10561000D040C2F120029140084319467047000073
:105620000FB4054B10B503A9044A029800F018F80E
:1056300010BC5DF814FB00005D2C00085000002039
:1056400002E008C8121F08C1002AFAD1704770474B
:10565000002001E001C1121F002AFBD170470000A9
:105660002DE9FF4F8DB00F4605460026DEE12528C7
:1056700074D100246D1CF149A246A14601222B7869
:10568000203B02FA03F0084202D004436D1CF6E707
:1056900028782A2810D06FF02F022878A0F1300146
:1056A000092915D80AEB8A0102EB410144F00204F2
:1056B00000EB010A6D1CF0E757F804ABBAF1000FDC
:1056C00003DA44F40054CAF1000A44F002046D1CE9
:1056D00028782E2817D115F8010F44F004042A2841
:1056E0000ED06FF02F022878A0F1300109290AD8D6
:1056F00009EB890102EB410100EB01096D1CF2E7A6
:1057000057F8049B6D1C28786C280FD006DC4C28B9
:1057100017D068280DD06A2814D104E0742810D05E
:105720007A280FD10DE044F400140AE044F4801408
:1057300001E044F440146978814202D16D1C04F503
:1057400080146D1C2A786E2A20D00DDC632A33D099
:1057500005DC002A6FD0582A12D1A2E011E0642A99
:105760006AD0692A0CD167E0732A2FD004DC6F2A33
:105770006FD0702A04D199E0752A6BD0782A6AD04C
:105780001046DDE90F129047761C4EE1C4F302503B
:10579000022806D003280AD0042801CF0AD00660C8
:1057A00043E101CF4FEAE671C0E900613DE101CF7D
:1057B00006803AE1067038E117F8040B8DF8000016
:1057C00000208DF80100EB46012003E057F804BBF0
:1057D0004FF0FF3061074FF0000102D40DE008F1F7
:1057E0000101884649450FDA8045F8DB1BF80810AF
:1057F0000029F4D108E008F1010188468142FADB72
:105800001BF808100029F6D1DDE90F23AAEB0800E8
:105810008146214600F03BF9304400EB080604E0E5
:10582000DDE90F121BF8010B9047B8F10108F7D220
:1058300021464846F4E0FDE00A21C4F302534FF04C
:10584000000B0891022B07D001CFC117032B09D001
:105850000AE034E023E024E0FF1D27F00707F7E823
:10586000020105E000B2C117042B01D140B2C117FB
:10587000002907DA4FF0000CD0EB0C006CEB0101B3
:105880002D2302E0230504D52B238DF8243001239A
:1058900003E0E30701D02023F7E7984650E00A2110
:1058A0000EE010204FF0000B08900CE010214FF09C
:1058B000000B44F004044FF00809089103E00821AC
:1058C0004FF0000B0891C4F30253022B04D001CF18
:1058D0000021032B06D006E0FF1D27F00707F7E89D
:1058E000020103E080B2042B00D1C0B24FF00008E7
:1058F000230725D5702A2AD0DDF820C08CF0100CA3
:105900005CEA0B0C09D150EA010306D030238DF874
:1059100024308DF8252002239846DDF820C08CF035
:10592000080C5CEA0B0C0BD150EA010301D16307B0
:1059300006D530238DF824304FF00108A9F1010974
:10594000582A09D03EA20B9208AA0A9211E04023DD
:105950008DF824300123DFE73EA2F4E75B46089A86
:10596000FFF7C5FD0B9B9B5C0A9AA2F101020A920C
:10597000137050EA0102F1D10A98ADEB000000F17A
:10598000200B600702D524F4803401E04FF00109B8
:10599000D94502DDA9EB0B0000E0002000EB0B0174
:1059A00041440890AAEB010AE00306D4DDE90F2385
:1059B0002146504600F06BF80644002008E009A993
:1059C00011F80900DDE90F129047761C09F101007A
:1059D00081464045F3DBE0030CD5DDE90F2321468A
:1059E000504600F054F8064404E0DDE90F12302080
:1059F0009047761C0899481E08900029F5DC08E0BD
:105A00000A980A990078491C0A91DDE90F1290471B
:105A1000761CBBF10001ABF1010BF1DC21465046D5
:105A2000DDE90F2300F020F806446D1C28780028DB
:105A30007FF41DAE11B03046BDE8F08F092801009B
:105A400030313233343536373839616263646566F4
:105A500000000000303132333435363738394142B6
:105A600043444546000000002DE9F041044600256E
:105A70001E461746880405D406E039462020B04764
:105A800005F10105641EF8D52846BDE8F0812DE931
:105A9000F041044600251E469046C80301D5302734
:105AA00000E02027880405D506E041463846B04787
:105AB00005F10105641EF8D52846BDE8F081000017
:105AC0004552524F523A2067697A50726F746F6331
:105AD0006F6C4973737565644461746141636B20D5
