:020000040800F2
:1000000008040020450100084D0100084F010008C8
:1000100051010008530100085501000800000000CC
:100020000000000000000000000000005701000870
:1000300059010008000000005B0100085D01000894
:100040005F0100085F0100085F0100085F01000810
:100050005F0100085F0100085F0100085F01000800
:100060005F0100085F0100085F0100085F010008F0
:100070005F0100085F0100085F0100085F010008E0
:100080005F0100085F0100085F0100085F010008D0
:100090005F0100085F0100085F0100085F010008C0
:1000A0005F0100085F0100085F0100085F010008B0
:1000B0005F0100085F0100085F0100085F010008A0
:1000C0005F0100085F0100085F0100085F01000890
:1000D0005F0100085F0100085F0100085F01000880
:1000E0005F0100085F0100085F0100085F01000870
:1000F0005F0100085F0100085F0100085F01000860
:100100005F0100085F0100085F0100085F0100084F
:100110005F0100085F0100085F0100085F0100083F
:100120005F0100085F0100085F0100085F0100082F
:10013000DFF80CD000F05AFA00480047E10C000844
:10014000080400200648804706480047FEE7FEE70F
:10015000FEE7FEE7FEE7FEE7FEE7FEE7FEE7FEE777
:100160001D0B000831010008F0B480EA0102D40F31
:100170004200B2EB410F02D20246084611464A0045
:1001800042D0C30DDDB2C1F3C752AD1A202D35DA0E
:10019000C1F3160141F4000204B15242C5F1200638
:1001A00002FA06F12A411044B3EBD05F23D0C4B168
:1001B000012DA0EBC35009DCF0BC4FF0004202EA75
:1001C000C352DBB200F5000000F084B9400000F13A
:1001D000807000EBC350A0F1807040EAD1704900FC
:1001E00009E0490841EAC071A0EBC35000F50000E6
:1001F000400800EBC350F0BC00F063B9614201223B
:1002000002EB4101001BF6E7F0BC704781F00041B2
:10021000AAE780F00040A7E780EA010210B502F0EB
:100220000043400022D04A001FD0010E01EB1261B2
:10023000C0F35600C2F3560240F4000042F400023C
:10024000A0FB022000047F39140400D0401C50EAB7
:10025000124001D44000491EC2B20C0604EBD0107B
:10026000401C4008802A02D003E0002010BD20F08E
:100270000100002900DA0020184310BD2DE9FE4FCF
:1002800081EA030404F0004421F0004100944FF09F
:10029000000B23F0004350EA01045ED052EA03044D
:1002A0005BD0C3F30A54C1F30A552C44A4F2F334CF
:1002B0000194A0FB0254C1F3130141F48011C3F374
:1002C000130343F4801301FB024400FB034E840A32
:1002D000970A44EA815447EA8357A4FB07680295CA
:1002E0008D0A05FB07854FEA932C04FB0C54270568
:1002F000029D4FEA065847EA1637B5EB08056EEB44
:10030000070C870E920E47EA811742EA8312A7FB79
:100310000201B6EB0B0164EB00042B0D43EA0C3336
:100320005E1844EB1C50DA465146E7FB0201C5F368
:1003300013044FEA0B3343EA14534FEA0432019C8F
:1003400043EA0603A4F10C040294009CCDE900B436
:1003500000F0FDF803B0BDE8F08F00200146F9E79A
:100360002DE9F04D81EA030404F0004B21F0004533
:1003700014464FF0000A23F0004150EA050220D055
:1003800054EA01021DD0C5F30A570246C5F3130310
:10039000C1F31300C1F30A5640F4801543F48013EF
:1003A000A7EB0608101BD64608F2FD3873EB0500D4
:1003B00002D308F1010801E092185B41B8F1000F87
:1003C00003DA00200146BDE8F08D00204FF48011D3
:1003D000064684460EE0171B73EB050705D3121B78
:1003E00063EB050306434CEA010C49084FEA300071
:1003F00092185B4150EA0107EDD152EA030012D096
:1004000082EA040083EA0501084305D0101BAB41D2
:1004100006D20122002306E000224FF0004302E052
:100420006FF0010253101AEB06004CEB085110EB71
:100430000A0041EB0B01BDE8F04D00F079B89623BE
:100440000022114600F046B80EB540F23341029149
:100450000021CDE900110A460B4600F078F803B000
:1004600000BD20F00040C10DC0F3160040F40000B4
:100470007F2901DA00207047962903DCC1F196013B
:10048000C840704796398840704701F0004330B447
:1004900021F0004150EA010206D00A0DA2F5607277
:1004A000C1F31301002A02DC30BC00207047440F66
:1004B00044EAC104C100E01830BC00EBC250AFF305
:1004C00000800029A8BF7047401C490008BF20F0E9
:1004D0000100704710B4B0FA80FC00FA0CF050EA4A
:1004E000010404BF10BC704749B1CCF1200421FACB
:1004F00004F411FA0CF118BF012121430843A3EBC6
:100500000C01CB1D4FEA00614FEA102042BF0020D2
:1005100010BC704700EBC35010440029A4BF10BCAE
:100520007047401C490008BF20F0010010BC704714
:1005300010B5141E73F1000408DA401C41F10001EB
:1005400092185B411A4301D120F0010010BD2DE942
:10055000F04D92469B4611B1B1FA81F202E0B0FA39
:1005600080F22032904600F053F804460F4640EAED
:100570000A0041EA0B0153465A46084313D011467C
:1005800053EA010019D0C8F14002504600F04FF87C
:1005900005460E4650465946424600F039F8084393
:1005A00005D0012004E020463946BDE8F08D00204A
:1005B000054346EAE0762C4337430A986305E40A8C
:1005C000A0EB08000022FD0A44EA47540A3002D595
:1005D00000200146E9E7010510196941DDE90845F8
:1005E00000196941BDE8F04DA2E70000064C074D37
:1005F00006E0E06840F0010394E8070098471034F3
:10060000AC42F6D3FFF798FD180D0008380D00082E
:10061000202A04DB203A00FA02F1002070479140C2
:10062000C2F1200320FA03F3194390407047202AB7
:1006300004DB203A21FA02F00021704721FA02F38C
:10064000D040C2F12002914008431946704710B5CE
:1006500000F018F90121462000F008F8102146208A
:1006600000F004F8B42000F039F810BD70B505466C
:100670000C4600F057F9284600F096F900F022F9F0
:1006800000B107E0204600F08FF900F01BF900B13F
:1006900000E000BF00F06AF970BD00004FF0E021FB
:1006A000096921F004014FF0E0221161C21700EB4B
:1006B0005272C2F3C702074B1A701946097801EB50
:1006C0004102C2EBC1114FF6FF7202EAC101024AB8
:1006D00011807047000000200200002001460D4AF2
:1006E00012884A434FF0E0235A6100229A610122A6
:1006F0001A6100BF4FF0E022106900F001021AB148
:1007000000F48032002AF5D000224FF0E0231A6175
:100710009A6170470200002001460D4A12784A4350
:100720004FF0E0235A6100229A6101221A6100BF52
:100730004FF0E022106900F001021AB100F480329B
:10074000002AF5D000224FF0E0231A619A61704729
:10075000000000202DE9F04102460025002600207F
:1007600000230024002791F803C00CF00F0591F836
:1007700003C00CF0100CBCF1000F03D091F802C0C4
:100780004CEA050591F800C0BCF1000F31D01468A7
:1007900000202BE04FF0010C0CFA00F3B1F800C080
:1007A0000CEA03069E4220D183004FF00F0C0CFA96
:1007B00003F7BC4305FA03FC4CEA040491F803C0B8
:1007C000BCF1280F06D14FF0010C0CFA00FCC2F866
:1007D00014C00AE091F803C0BCF1480F05D14FF0F6
:1007E000010C0CFA00FCC2F810C0401C0828D1D340
:1007F0001460B1F800C0BCF1FF0F34DD5468002074
:100800002EE000F1080C4FF0010808FA0CF3B1F8E3
:1008100000C00CEA03069E4221D183004FF00F0C6A
:100820000CFA03F7BC4305FA03FC4CEA040491F804
:1008300003C0BCF1280F05D100F1080C08FA0CF830
:10084000C2F8148091F803C0BCF1480F07D100F141
:10085000080C4FF0010808FA0CF8C2F81080401C90
:100860000828CED35460BDE8F0810246002093688A
:100870000B400BB1012000E0002070474161704740
:100880000161704708B50121082000F0C3F8142069
:100890008DF803004FF44060ADF8000003208DF8A0
:1008A000020069460648FFF755FF4FF4806104488F
:1008B000FFF7E6FF4FF400610148FFF7E1FF08BDD5
:1008C000000C014010B500244FF480611448FFF77C
:1008D000D5FF4FF400611248FFF7D2FF0520FFF764
:1008E0001BFF4FF480610E48FFF7CAFF07E0601C52
:1008F000C4B2FA2C03DB00F039F8012010BD4FF42C
:1009000000610748FFF7B1FF00B1F0E70420FFF7EF
:1009100003FF4FF480610248FFF7B0FF0020EDE7CE
:10092000000C014010B54FF480610F48FFF7A6FF9F
:100930004FF400610C48FFF7A3FF4FF480610A48B1
:10094000FFF79EFF0520FFF7E7FE4FF40061064822
:10095000FFF794FF0420FFF7DFFE4FF480610248A9
:10096000FFF78CFF10BD0000000C014010B54FF4E4
:1009700080610C48FFF782FF4FF400610948FFF7E0
:100980007DFF4FF480610748FFF77AFF0420FFF7EF
:10099000C3FE4FF400610348FFF772FF0520FFF725
:1009A000BBFE10BD000C014070B50446002521E0DF
:1009B0004FF480611148FFF761FF04F0800028B117
:1009C0004FF400610D48FFF75BFF04E04FF4006156
:1009D0000A48FFF753FF0520FFF79EFE4FF48061A2
:1009E0000648FFF74DFF0420FFF796FE6006040E51
:1009F000681CC5B2082DDBDB70BD0000000C014097
:100A000002490143024A1160704700000000FA05E4
:100A10000CED00E029B1064A92690243044B9A6149
:100A200004E0034A92698243014B9A6170470000D7
:100A30000010024010B500F001F810BD0CB5002008
:100A4000019000903348006840F4803031490860DC
:100A500000BF3048006800F4003000900198401C4E
:100A60000190009818B90198B0F5A06FF1D129480C
:100A7000006800F4003010B10120009001E0002077
:100A800000900098012843D12348006840F01000EE
:100A9000214908600846006820F003000860084605
:100AA000006840F0020008601A4840681949486030
:100AB0000846406848600846406840F480604860E6
:100AC0000846406820F47C1048600846406840F4BE
:100AD000E81048600846006840F08070086000BF79
:100AE0000C48006800F000700028F9D00948406800
:100AF00020F00300074948600846406840F00200C3
:100B0000486000BF0348406800F00C000828F9D195
:100B10000CBD0000001002400020024010B5134838
:100B2000006840F00100114908600846406810491B
:100B300008400E494860084600680E4908400B49C5
:100B400008600846006820F4802008600846406875
:100B500020F4FE0048604FF41F008860FFF76AFF32
:100B60004FF000600449086010BD00000010024012
:100B70000000FFF8FFFFF6FE08ED00E02DE9F04F62
:100B800085B0044689463648806940F4804034493F
:100B900088610846806940F0040088613148006837
:100BA00020F47F602F4908600846006840F4966092
:100BB00008604846FFF748FC074600222A4BFFF72B
:100BC0005DFB05460E46294904FB01F0FFF73CFC9E
:100BD0002A463346CDE90001FFF7C2FBCDE9020109
:100BE000FFF753FC82465046FFF73BFC1FFA80FBA1
:100BF0005846FFF724FC07465146FFF70AFB064616
:100C00004FF08341FFF708FB0546FFF72AFC0490ED
:100C1000049840EA0B1016490880081D008840F42B
:100C20000050091D08800846008820F48050088084
:100C30000846008820F4806008800846008840F05C
:100C4000080008800846008840F004000880081D5D
:100C5000008820F44050091D088005B0BDE8F08FE1
:100C600000100240040801400000304040420F00E4
:100C700008380140014A024900F013B8C50C0008C9
:100C80000400002002E008C8121F08C1002AFAD19F
:100C900070477047002001E001C1121F002AFBD1FC
:100CA00070472DE9F04116460F460446002503E043
:100CB0003946B047641C6D1C20780028F8D12846BE
:100CC000BDE8F081054B188000BF044A121F12884E
:100CD00002F08002002AF8D070470000043801407A
:100CE0004FF4A060FFF78CFEE820FFF7D7FC4FF42D
:100CF000E1314720FFF742FFFFF7A9FC06E004A01F
:100D0000FFF7B8FF4FF4FA70FFF7E8FCF7E70000D1
:100D10006C696768743A0000380D00080000002014
:100D200008000000840C0008400D000808000020A6
:100D300000040000940C0008000000000000000007
:0400000508000131BD
:00000001FF
