:020000040800F2
:100000005029002069120008510500085305000816
:10001000570500085B0500085F05000800000000A8
:100020000000000000000000000000006305000860
:100030006505000800000000670500086905000864
:10004000831200088312000883120008831200083C
:10005000831200088312000883120008831200082C
:10006000831200088312000883120008831200081C
:10007000831200088312000883120008831200080C
:1000800083120008831200088312000883120008FC
:1000900083120008831200088312000883120008EC
:1000A00083120008831200088312000883120008DC
:1000B00083120008EF07000883120008831200086B
:1000C00083120008831200088312000883120008BC
:1000D000831200083D120008831200080D08000872
:1000E000831200088312000883120008831200089C
:1000F000831200088312000883120008831200088C
:10010000831200088312000883120008831200087B
:10011000831200088312000883120008831200086B
:10012000831200088312000883120008831200085B
:1001300000F002F800F06FF80AA090E8000C82448A
:100140008344AAF10107DA4501D100F064F8AFF267
:10015000090EBAE80F0013F0010F18BFFB1A43F0A5
:1001600001031847A4710000C471000010F8013B9E
:100170000A4413F0030408BF10F8014B1D1108BF17
:1001800010F8015B641E05D010F8016B641E01F8C5
:10019000016BF9D1002D15D010F8014B03F00C03C1
:1001A0000C2BA1EB04040ABF10F8013BA4EB831451
:1001B000A4EB032405F1010314F8016B5B1E01F8A5
:1001C000016BF9D5914238BF10F8013BD1D370478C
:1001D0000023002400250026103A28BF78C1FBD850
:1001E000520728BF30C148BF0B607047642905F033
:1001F0009D84782905F0D684002070471FB505F04E
:10020000F1FE04000020002105F086FF401C606024
:100210001FBD10B510BD05F009FF1146FFF7EEFF39
:1002200000F021F905F027FF03B4FFF7F2FF03BC4C
:1002300000F0AAFF10B541F61F41092000F0AAFA0C
:100240004FF4165000F0AEFF1D21B94805F008FE2E
:1002500004F0D4F810BD38B5B6480088B0F57A7F00
:100260007DDD0020B3490880B349B44800F0CFFBDE
:10027000B24800780A2190FBF1F090FBF1F201FB0B
:10028000120410200123224600210090302000F0AB
:1002900079FDAA4800780A2190FBF1F201FB1204D3
:1002A00010200123224600210090382000F06AFD32
:1002B000A14800780A2190FBF1F090FBF1F201FBDC
:1002C000120410200123224602210090302000F069
:1002D00059FD994800780A2190FBF1F201FB1204C4
:1002E00010200123224602210090382000F04AFD10
:1002F000924800788E49C1F80F008F480078C1F805
:10030000130005F029FB8E4908800846008842F258
:10031000107190FBF1F00A2190FBF1F201FB120445
:1003200010200123224604210090302000F02AFDF5
:10033000834800884FF47A7190FBF1F00A2190FB1A
:10034000F1F201FB12041020012322460421009047
:10035000382000F017FD7A480088642100E081E031
:1003600090FBF1F00A2190FBF1F201FB1204102046
:100370000123224604210090402000F003FD704834
:1003800000880A2190FBF1F090FBF1F201FB1204CE
:1003900010200123224604210090482000F0F2FCA6
:1003A000674800880A2190FBF1F201FB120410203B
:1003B0000123224604210090502000F0E3FC604815
:1003C00000885B49C1F8170008468078002844D1AE
:1003D0000D220621302000F036FD5548D0F80300EC
:1003E0005649097888420DD95148D0F8070052493A
:1003F0000978884206D94E48D0F80B005049098840
:10040000884225D84A48D0F8030008B34848D0F8B5
:100410000700E8B14648D0F80B00C8B11122062108
:10042000002000F010FD0120464908604649C1F84F
:1004300088014FF4FA7000F07AFE122206210020A3
:1004400000F001FD00203F4908603F49C1F88801E4
:10045000002037494870087004E00B220621302044
:1004600000F0F1FC38BD00F025FE4FF4A06000F074
:100470001BFF00F06BF900F0F6FA00F02FFA00F025
:1004800057FD05F08EF9FFF7D5FE00221146104604
:1004900000F0D9FC01220021102000F0D4FC0A2237
:1004A0000021202000F0CFFC08220021482000F08D
:1004B000CAFC02221146002000F0C5FC03220221E2
:1004C000102000F0C0FC0A220221202000F0BBFC1A
:1004D00009220221482000F0B6FC04221146002027
:1004E00000F0B1FC06220421102000F0ACFC0A222E
:1004F0000421202000F0A7FC102314A20421602076
:1005000000F084FC0E220621402000F09CFC0F220B
:100510000621502000F097FC10220621602000F0F8
:1005200092FC04E0FFF797FE014804F0F0F9F9E7C8
:1005300020150020FE1400200300002002000020EF
:100540000000002084012142000021426C7800005C
:10055000704700BFFEE700BFFEE700BFFEE700BF39
:10056000FEE7704770477047704700000CB50020E9
:10057000019000906C48006840F480306A4908603F
:1005800000BF6948006800F4003000900198401CEA
:100590000190009818B90198B0F5A06FF1D16248A8
:1005A000006800F4003010B10120009001E000204C
:1005B00000900098012843D15C48006840F010008A
:1005C0005A4908600846006820F0030008600846A1
:1005D000006840F002000860534840685249486093
:1005E0000846406848600846406840F480604860BB
:1005F0000846406820F47C1048600846406840F493
:10060000E81048600846006840F08070086000BF4D
:100610004548006800F000700028F9D04248406862
:1006200020F00300404948600846406840F002005E
:10063000486000BF3C48406800F00C000828F9D131
:100640000CBD10B5FFF792FF10BD10B5364800681D
:1006500040F00100344908600846406834490840C9
:100660003149486008460068324908402E49086010
:100670000846006820F4802008600846406820F49E
:10068000FE0048604FF41F008860FFF7DAFF4FF06C
:1006900000602949086010BD10B50021002000222B
:1006A000214B5B6803F00C0121B1042906D0082915
:1006B00028D107E0214B224C236027E01F4B204C20
:1006C000236023E0184B5B6803F47010164B5B68E3
:1006D00003F48032022303EB904022B9194B4343C9
:1006E000174C23600DE0104B5B6803F4003323B11B
:1006F000144B4343124C236003E0104B4343104C14
:10070000236003E00D4B0E4C236000BF00BF064B7F
:100710005B68C3F303130C4CE15C094B1B68CB40D3
:10072000074C236010BD0000001002400020024072
:100730000000FFF8FFFFF6FE08ED00E000127A006F
:100740000400002000093D000800002008B5012138
:100750004C2001F033F90420ADF8000010208DF892
:10076000030003208DF802006946094800F06AFE84
:100770000421074800F015FF8020ADF8000069460D
:10078000034800F05FFE8021014800F008FF08BD2B
:10079000000801407FB505460C460121022001F00A
:1007A0001AF9ADF80850ADF804400020ADF80A0081
:1007B000ADF8060001A9144801F038FA01221146EB
:1007C000114801F0AAFD1D208DF8000000208DF8D1
:1007D000010003208DF8020001208DF80300684617
:1007E00000F067FD0121084801F07CFD7FBD10B5D8
:1007F0000121054802F03FF828B10121024802F02A
:100800004BF802F02AFB10BD0004004008B540F28E
:100810002551304802F004FA40B12E4802F080F928
:10082000C0B200900121684602F02EFC08BD10B550
:1008300086B004460121082001F0C0F80121880497
:1008400001F0C9F8234802F02BF84FF48060ADF8AE
:10085000100003208DF8120018208DF8130004A951
:100860001D4800F0EFFD4FF40060ADF810000420CB
:100870008DF8130004A9184800F0E4FD009400204E
:10088000ADF80400ADF80600ADF80800ADF80C00B6
:100890000C20ADF80A0069460E4802F044F8012128
:1008A0000C4802F0CCF8012240F22551094802F030
:1008B000D2F827208DF8140002208DF815000320AF
:1008C0008DF8160001208DF8170005A800F0F1FC46
:1008D00006B010BD00480040000C014008B50121E1
:1008E000042001F06BF80220ADF8000010208DF814
:1008F000030003208DF802006946044800F0A2FDC1
:100900000221024800F04DFE08BD00000008014031
:1009100010B56148006820F0F0005F4908600846A3
:10092000006840F03000086000205C490860142036
:1009300000F0FDFB01205A49C1F8A4011E2000F07F
:10094000D2FB10BD10B500245348006820F0F00021
:10095000514908600846006840F08000086004E0E3
:10096000601CC4B2012000F0BEFB4C488038006817
:1009700008B1642CF4DB642C01DB012010BD0024E1
:1009800004E0601CC4B2012000F0ADFB4348803895
:10099000006808B9642CF4DB642C01DB0120EDE76E
:1009A0000020EBE710B5002404E0601CC4B2012075
:1009B00000F099FB39488038006808B1642CF4DBFA
:1009C000002404E0601CC4B2012000F08CFB33481A
:1009D0008038006808B9642CF4DB282000F083FB21
:1009E0002E488038006808B1012010BD0020FCE7C7
:1009F00070B50024002506E06006040EFFF7D2FF64
:100A00000443681CC5B2082DF6DB204670BD7CB5DA
:100A100005460E46FFF77CFFFFF794FFF8B9002468
:100A200005E0FFF7E5FF0DF80400601CC4B2052CDB
:100A3000F7DB9DF800009DF8011008449DF80210B6
:100A400008449DF8031008449DF80410884208D11A
:100A50009DF8000030709DF80200287001E0012030
:100A60007CBD0020FCE708B50121082000F0A6FFAE
:100A70004FF40070ADF8000010208DF80300032043
:100A80008DF8020069460448001F00F0DBFCFFF708
:100A90003FFFFFF757FF08BD040C0140A48121422E
:100AA0000080214210B54021F74800F078FD8021F8
:100AB000F54800F074FD8021F34800F072FD4021FC
:100AC000F14800F06EFD10BD10B54021EE4800F079
:100AD00066FD8021EC4800F064FD8021EA4800F0CA
:100AE0005EFD10BD10B54021E74800F058FD4021E3
:100AF000E54800F056FD10BD2DE9F04105462C46B5
:100B00004021E14800F04DFD002619E0274607F09E
:100B10008007802F04D18021DB4800F040FD03E0F6
:100B20008021D94800F03DFD6006040E4021D648E2
:100B300000F035FD4021D44800F033FD701CC6B2F2
:100B4000082EE3DBBDE8F08110B50446FFF7AAFFED
:100B50007820FFF7D1FFFFF7C5FF0020FFF7CCFF9C
:100B6000FFF7C0FF2046FFF7C7FFFFF7BBFFFFF708
:100B7000ABFF10BD10B50446FFF794FF7820FFF7D8
:100B8000BBFFFFF7AFFF4020FFF7B6FFFFF7AAFF5D
:100B90002046FFF7B1FFFFF7A5FFFFF795FF10BD58
:100BA00070B504460D461DB1E0B2FFF7E3FF02E069
:100BB000E0B2FFF7C9FF70BD70B50646002418E02B
:100BC00004F1B0000021FFF7EBFF00210846FFF71A
:100BD000E7FF00211020FFF7E3FF002505E00121DA
:100BE0003046FFF7DDFF681CC5B2802DF7DB601CC7
:100BF000C4B2082CE4DB70BD70B504460D4605F1A7
:100C0000B0000021FFF7CCFF102141EA14100021B1
:100C1000FFF7C6FF04F00F000021FFF7C1FF70BD12
:100C200010B500218D20FFF7BBFF00211420FFF736
:100C3000B7FF0021AF20FFF7B3FF10BD10B50021B3
:100C40008D20FFF7ADFF00211020FFF7A9FF002145
:100C5000AE20FFF7A5FF10BD70B5002418E004F129
:100C6000B0000021FFF79CFF00210846FFF798FF26
:100C700000211020FFF794FF002505E0012100204E
:100C8000FFF78EFF681CC5B2802DF7DB601CC4B275
:100C9000082CE4DB70BD70B5002418E004F1B0004E
:100CA0000021FFF77DFF00210846FFF779FF0021B3
:100CB0001020FFF775FF002505E001210846FFF72A
:100CC0006FFF681CC5B2802DF7DB601CC4B2082C16
:100CD000E4DB70BD2DE9F04707460E469046994685
:100CE00000250024A8F12000C5B27F2F02DD0027D7
:100CF000B01CC6B2B9F1100F24D131463846FFF707
:100D00007BFF002408E004EB0511604A505C0121E0
:100D1000FFF746FF601CC4B2082CF4DB701CC1B2A4
:100D20003846FFF769FF002409E004EB051108319C
:100D3000564A505C0121FFF733FF601CC4B2082CF7
:100D4000F3DB12E031463846FFF756FF00240AE095
:100D500005EB45014E4A02EB4101085D0121FFF719
:100D60001FFF601CC4B2062CF2DBBDE8F08710B593
:100D70000246012000E050430B1EA1F10104E1B244
:100D8000F9D110BD2DE9FF5F074691461E460E9D25
:100D90004FF0000A002435E0301B401EC1B20A208B
:100DA000FFF7E5FFB9FBF0F00A21B0FBF1F201FB20
:100DB0001208BAF1000F14D1701EA04211DDB8F173
:100DC000000F0CD1AB4605EBDB71491001FB047140
:100DD000C8B22B4620220199FFF77CFF10E04FF0AC
:100DE000010AAB4605EBDB71491001FB0471C8B287
:100DF00008F13001CAB22B460199FFF76BFF00BF23
:100E0000601CC4B2B442C7DBBDE8FF9F2DE9F041CE
:100E100004460F461546984600260FE0AA5D434655
:100E200039462046FFF756FF04F10800C4B2782C7B
:100E300002DD0024B81CC7B2701CC6B2A85D002831
:100E4000ECD1BDE8F0812DE9F04180460E46154613
:100E5000002731464046FFF7CFFE00240AE00D4A46
:100E600002EB8511085D0121FFF79AFE781CC7B2DD
:100E7000601CC4B2102CF2DB701CC1B24046FFF7FC
:100E8000BBFE002415E00000000C0140AA6C000825
:100E9000826A0008180000206900491C7F4A02EBA2
:100EA0004111085D0121FFF77BFE781CC7B2601C71
:100EB000C4B2102CF0DBBDE8F0812DE9F05F0646EE
:100EC0000F4690461C46DDF828A04FF0000BE117B6
:100ED00004EB5171C910A4EBC10131B92046E117EF
:100EE00004EB5171C1F3C70506E02046E11704EB9E
:100EF0005171C910491CCDB23D4615E02946304616
:100F0000FFF77AFEB1460BE059460BF1010B1AF8D8
:100F100001000121FFF744FE09F1010000F0FF0983
:100F2000C145F1DB681CC5B2A542E7DBBDE8F09F17
:100F300008B50121082000F041FDC020ADF80000F7
:100F400003208DF8020010208DF8030069465448F4
:100F500000F078FAC82000F0EAF80021AE20FFF790
:100F60001FFE00210846FFF71BFE00211020FFF79F
:100F700017FE00214020FFF713FE0021B020FFF7ED
:100F80000FFE00218120FFF70BFE0021FF20FFF75D
:100F900007FE0021A120FFF703FE0021A620FFF796
:100FA000FFFD0021A820FFF7FBFD00213F20FFF7F8
:100FB000F7FD0021C820FFF7F3FD0021D320FFF744
:100FC000EFFD00210846FFF7EBFD0021D520FFF7DC
:100FD000E7FD00218020FFF7E3FD0021D820FFF787
:100FE000DFFD00210520FFF7DBFD0021D920FFF701
:100FF000D7FD0021F120FFF7D3FD0021DA20FFF714
:10100000CFFD00211220FFF7CBFD0021DB20FFF7F1
:10101000C7FD00213020FFF7C3FD00218D20FFF721
:10102000BFFD00211420FFF7BBFD0021AF20FFF71B
:10103000B7FDFFF711FE08BD38B50446012C06D0F8
:10104000022C0DD0032C14D0042C24D11AE0154806
:1010500008238022002100900846FFF72EFF1AE0A7
:10106000114808238022002100900846FFF725FF41
:1010700011E00E4808238022002100900846FFF767
:101080001CFF08E00A48082380220021009008463F
:10109000FFF713FF00BF00BF38BD0000180000209D
:1010A000000C0140D8040020D8080020D80C0020F3
:1010B000D810002010B56FF0040000F044F92E485D
:1010C00000682E49B0FBF1F02D4908700846007801
:1010D00000EB4001C1EBC0104FF6FF7101EAC00008
:1010E0002849088010BD0146254A12784A434FF02E
:1010F000E0235A6100229A611A46126942F0010205
:101100001A6100BF4FF0E022106900F001021AB12D
:1011100000F48032002AF5D04FF0E022126922F06C
:1011200001024FF0E0231A6100229A6170470146E4
:10113000144A12884A434FF0E0235A6100229A6110
:101140001A46126942F001021A6100BF4FF0E02214
:10115000106900F001021AB100F48032002AF5D0C3
:101160004FF0E022126922F001024FF0E0231A61F1
:1011700000229A61704700000400002000127A00EB
:10118000D8140020DA14002000BF704700BF344A92
:10119000128802F04002002AF9D0C2B2304B1B1D67
:1011A0001A80704710B586B00446012144F204004D
:1011B00000F004FC4FF40070ADF8140003208DF82B
:1011C000160018208DF8170005A9264800F03AF9F6
:1011D0004FF48060ADF8140004208DF8170005A9C5
:1011E000204800F02FF925208DF8000003208DF80D
:1011F00001008DF8020001208DF80300684600F020
:1012000058F801940020ADF80800ADF80A00ADF8D8
:101210000C00ADF810000C20ADF80E0001A910482C
:1012200001F081FB012240F225510D4801F013FC31
:1012300001210B4801F003FC06B010BD08B540F2D7
:101240002551074801F0ECFC40B1054801F068FC6D
:10125000C0B200900121684601F016FF08BD0000F1
:10126000003801400008014009488047094800470C
:10127000FEE7FEE7FEE7FEE7FEE7FEE7FEE7FEE746
:10128000FEE7FEE704480549054A064B70470000A3
:101290004B0600083101000850170020502900209B
:1012A000501900205019002031490143314A116082
:1012B000704770B5002100230F22C47804B32D4C71
:1012C000246804F4E064C4F5E064210AC1F1040375
:1012D000CA40447804FA03F1847814402143090198
:1012E000254C0678A155047804F01F050124AC4074
:1012F00005786D11AD0005F1E025C5F8004109E064
:10130000047804F01F050124AC401C4D06787611CA
:1013100045F8264070BD1A4A0A400243154B1B1F70
:101320001A60704739B1134A121D12680243114BFB
:101330001B1D1A6006E00F4A121D126882430D4BF6
:101340001B1D1A607047042808D14FF0E02109697D
:1013500041F004014FF0E022116107E04FF0E0217D
:10136000096921F004014FF0E0221161704700008B
:101370000000FA050CED00E000E400E080E100E090
:1013800080FFFF1F10B50446CC48844208D10121DC
:10139000042000F02DFB0021042000F029FB46E092
:1013A000C748844208D10121082000F021FB002118
:1013B000082000F01DFB3AE0C248844208D1012118
:1013C000102000F015FB0021102000F011FB2EE092
:1013D000BD48844208D10121202000F009FB0021F2
:1013E000202000F005FB22E0B848844208D101210A
:1013F000402000F0FDFA0021402000F0F9FA16E04C
:10140000B348844208D10121802000F0F1FA002184
:10141000802000F0EDFA0AE0AE48844207D10121B5
:10142000801500F0E5FA0021A01500F0E1FA10BDEA
:1014300010B50121084600F0DBFA0021012000F080
:10144000D7FA10BD2DE9F041024600250026002004
:1014500000230024002791F803C00CF00F0591F839
:1014600003C00CF0100CBCF1000F03D091F802C0C7
:101470004CEA050591F800C0BCF1000F31D01468AA
:1014800000202BE04FF0010C0CFA00F3B1F800C083
:101490000CEA03069E4220D183004FF00F0C0CFA99
:1014A00003F7BC4305FA03FC4CEA040491F803C0BB
:1014B000BCF1280F06D14FF0010C0CFA00FCC2F869
:1014C00014C00AE091F803C0BCF1480F05D14FF0F9
:1014D000010C0CFA00FCC2F810C0401C0828D1D343
:1014E0001460B1F800C0BCF1FF0F34DD5468002077
:1014F0002EE000F1080C4FF0010808FA0CF3B1F8E7
:1015000000C00CEA03069E4221D183004FF00F0C6D
:101510000CFA03F7BC4305FA03FC4CEA040491F807
:1015200003C0BCF1280F05D100F1080C08FA0CF833
:10153000C2F8148091F803C0BCF1480F07D100F144
:10154000080C4FF0010808FA0CF8C2F81080401C93
:101550000828CED35460BDE8F0814FF6FF710180BA
:10156000022181700421C1707047024600209368F7
:101570000B400BB1012000E0002070470146886855
:1015800080B2704702460020D3680B400BB10120A7
:1015900000E0002070470146C86880B270470161D2
:1015A0007047416170470AB1016100E041617047D5
:1015B000C16070474FF480320A4382618161826169
:1015C00082698269704702460020434B18684FF6D3
:1015D0008073184040EA021008433F4B1860704780
:1015E0003E49C8617047F0B50A4600230024002137
:1015F000002500F00046B6F1004F02D1364EF169E9
:1016000001E0354E7168C0F3034583B200F4401623
:10161000B6F5401F08D121F070612F4E766826F094
:1016200070662D4F7E6012E000F48016B6F5801FC4
:1016300006D1032606FA05F4A14341F0706106E0E5
:10164000460D360103FA06F6B14341F0706122B14E
:10165000460D360103FA06F6314300F00046B6F1B6
:10166000004F02D11C4EF16101E01B4E7160F0BDD4
:1016700030B500228B071C0F0F2303FA04F2164B20
:1016800008338C1053F824309343134C08348D10D6
:1016900044F8253023468C1053F824308C07240F4F
:1016A00000FA04F423430C4C08348D1044F8253020
:1016B00030BD0A49DC310860704700000008014075
:1016C000000C0140001001400014014000180140CE
:1016D000001C0140002001400000014000002042A9
:1016E000DF48006840F00100DD49086008464068B6
:1016F000DC490840DA49486008460068DA49084091
:10170000D74908600846006820F480200860084631
:10171000406820F4FE0048604FF41F008860704766
:10172000CF49096821F48031CD4A1160114609681A
:1017300021F480211160B0F5803F03D0B0F5802FF7
:101740000ED106E0C649096841F48031C44A1160EF
:1017500007E0C349096841F4A021C14A116000E0D3
:1017600000BF00BF704710B50146002200230020D3
:101770004A11012A02D1BA4C236806E0022A02D19A
:10178000B74C236A01E0B64C636A01F01F020124E2
:1017900094401C400CB1012000E0002010BD38B581
:1017A000002000900024002500BF3120FFF7DBFF60
:1017B00005460098401C00900098B0F5A06F01D03D
:1017C000002DF2D03120FFF7CEFF08B1012400E058
:1017D0000024204638BD01460020A14A106820F0B0
:1017E000F80040EAC10010607047A04908607047E7
:1017F000024600209A4B586820F47C1042EA01030C
:101800001843974B586070479849086670470146DF
:101810000020934A506820F003000843506070474E
:101820008F48406800F00C007047014600208C4A49
:10183000506820F0F00008435060704701460020D7
:10184000874A506820F4E0600843506070470146C2
:101850000020834A506820F4605040EAC100506084
:10186000704729B17E4A527A02437D4B5A7204E096
:101870007B4A527A82437A4B5A7270477B49D831FD
:101880000860704701460020754A506820F44040C7
:101890000843506070470021714A20321170704A2D
:1018A00082F82010012802D004280AD104E0012186
:1018B0006B4A2032117005E00521694A203211700F
:1018C00000E000BF00BF7047694908607047644985
:1018D000096A0143624A11627047654944390860E8
:1018E000704730B500210022002400235C4D6D6854
:1018F00005F00C0121B1042905D0082923D105E008
:101900005C4D056022E05B4D05601FE0544D6D6845
:1019100005F47012524D6D6805F48034022505EB14
:1019200092421CB9544D554305600BE04C4D6D6817
:1019300005F400351DB1504D5543056002E04D4D95
:101940005543056002E04B4D056000BF00BF444DAC
:101950006D6805F0F0010909484D6B5C0568DD40D4
:1019600045603F4D6D6805F4E061090A434D6B5CCD
:101970004568DD4085603A4D6D6805F46051C90ADF
:101980003E4D6B5C4568DD40C560354D6D6805F4C6
:101990004041890B3A4D6B5CC568B5FBF3F50561B9
:1019A00030BD29B12E4A526902432D4B5A6104E0E1
:1019B0002B4A526982432A4B5A61704729B1284AFF
:1019C00092690243264B9A6104E0254A9269824358
:1019D000234B9A61704729B1214AD2690243204BB7
:1019E000DA6104E01E4AD26982431D4BDA61704716
:1019F00029B11B4AD2680243194BDA6004E0184A45
:101A0000D2688243164BDA60704729B1144A1269D2
:101A10000243134B1A6104E0114A12698243104BCE
:101A20001A61704712494039086070470F49C8640D
:101A300070470B49C87170470948406A40F0807090
:101A400007494862704701460020054A92680A40EB
:101A50000AB1012000E000207047014988727047F8
:101A6000001002400000FFF8FFFFF6FE00004242B7
:101A70008004424200127A0000093D00E214002076
:101A8000F214002010B50446FE48844208D101211A
:101A9000C014FFF7ADFF0021E014FFF7A9FFC4E079
:101AA000B4F1804F08D101210846FFF7AEFF0021B5
:101AB0000120FFF7AAFFB8E0F348844208D10121D2
:101AC0000220FFF7A2FF00210220FFF79EFFACE0FB
:101AD000EE48844208D101210420FFF796FF00213F
:101AE0000420FFF792FFA0E0E948844208D10121D9
:101AF0000820FFF78AFF00210820FFF786FF94E007
:101B0000E448844208D101211020FFF77EFF002124
:101B10001020FFF77AFF88E0DF48844208D10121D6
:101B20002020FFF772FF00212020FFF76EFF7CE0EE
:101B3000DA48844208D101214014FFF759FF0021FF
:101B40006014FFF755FF70E0D548844209D10121A8
:101B5000C804FFF74DFF00214FF40020FFF748FFB6
:101B600063E0D048844209D101210805FFF740FF16
:101B700000214FF48010FFF73BFF56E0CA48844233
:101B800009D101214805FFF733FF00214FF4001070
:101B9000FFF72EFF49E0C548844208D101214020CB
:101BA000FFF733FF00214020FFF72FFF3DE0C04843
:101BB000844208D101218020FFF727FF00218020E7
:101BC000FFF723FF31E0BB48844208D10121801593
:101BD000FFF71BFF0021A015FFF717FF25E0B64810
:101BE000844209D101210804FFF702FF00214FF4CC
:101BF0008030FFF7FDFE18E0B048844209D1012192
:101C00004804FFF7F5FE00214FF40030FFF7F0FE27
:101C10000BE0AB48844208D101218804FFF7E8FEBD
:101C200000214FF48020FFF7E3FE10BD0022028860
:101C3000944B98420ED0994B98420BD0B0F1804F04
:101C400008D0914B984205D0904B984202D0904BCF
:101C5000984204D14FF68F731A404B881A438D4B2C
:101C6000984207D08C4B984204D04FF6FF431A405D
:101C7000CB881A4302808B8883850B880385814B30
:101C800098420BD0854B984208D08B4B984205D098
:101C90008A4B984202D08A4B984201D10B7A038634
:101CA00001238382704770B5002400220023058C35
:101CB0004FF6FE7635400584028C8388048B4FF600
:101CC0008F752C40B51E2C400D882C43751E2A4064
:101CD0000D892A434D882A436A4DA8420BD06F4D87
:101CE000A84208D0744DA84205D0744DA84202D035
:101CF000734DA84213D14FF6F7752A404D892A43F8
:101D00004FF6FB752A408D882A434FF6FF652B401E
:101D10004FF6FF552B408D892B43CD892B43838074
:101D20000483CD888586028470BD70B500240022AE
:101D30000023058C4FF6EF7635400584028C8388AE
:101D4000048B48F6FF752C404FF6FF452C400D885C
:101D50004FF6FF7606EA05252C434FF6DF752A403D
:101D60000D8906EA05152A434D8806EA05152A431A
:101D7000444DA84202D0494DA8421DD14FF67F756F
:101D80002A404D894FF6FF7606EA05152A434FF69D
:101D9000BF752A408D8806EA05152A434FF6FF35A0
:101DA0002B404FF2FF752B408D8906EA85052B43AA
:101DB000CD8906EA85052B4383800483CD8805877A
:101DC000028470BD70B5002400220023058C4FF6FC
:101DD000FF6635400584028C8388848B4FF68F75AF
:101DE0002C404FF6FC752C400D882C434FF6FF55C8
:101DF0002A400D894FF6FF7606EA05252A434D88CD
:101E000006EA05252A431F4DA84202D0234DA842C9
:101E10001DD14FF2FF752A404D894FF6FF7606EA35
:101E200005252A434FF6FF352A408D8806EA052509
:101E30002A434EF6FF752B404DF6FF752B408D89DA
:101E400006EA05152B43CD8906EA05152B43838049
:101E50008483CD888587028470BD70B500220023FD
:101E60000024058C4EF6FF7635400584038C84886B
:101E7000828B48F6FF752A404FF6FF452A400D88B1
:101E800020E00000002C0140000400400008004059
:101E9000000C0040001000400014004000340140DD
:101EA000004C014000500140005401400018004027
:101EB000001C004000200040004001400044014060
:101EC000004801404FF6FF7606EA05252A434DF605
:101ED000FF752B400D8906EA05352B434D8806EA30
:101EE00005352B43FA4DA84202D0FA4DA84208D13D
:101EF0004BF6FF752C408D894FF6FF7606EA851567
:101F00002C4384808283CD88A0F84050038470BD28
:101F1000828B4FF2FF331A408283828B4FF6FF731E
:101F200003EA01231A4382837047F0B50C46154635
:101F3000002200210026078C4EF6FF7C07EA0C07E2
:101F40000784828B018C4FF6FF7707EA043640F650
:101F5000FF473A404FF6FF7707EA05273A434FF627
:101F6000FF7707EA03373A43D94FB8420ED0D94F2B
:101F7000B8420BD0B0F1804F08D0D74FB84205D04F
:101F8000D64FB84202D0D64FB84206D14DF6FF77B1
:101F9000394046F48057394305E047F6FF5739404A
:101FA00044F48057394382830184F0BD828B4FF61D
:101FB000F3731A408283828B0A4382837047F0B5A1
:101FC0000C461546002200210026078C4FF6FF6CB8
:101FD00007EA0C070784828B018C4FF6FF7707EA2C
:101FE00004264FF60C773A404FF6FF7707EA0317BF
:101FF0002F433A43B64FB8420ED0B64FB8420BD03B
:10200000B0F1804F08D0B44FB84205D0B34FB842BA
:1020100002D0B34FB84206D14FF6FF57394046F4CD
:102020008077394305E04FF2FF57394044F4807719
:10203000394382830184F0BD028B4FF2FF331A4093
:102040000283028B4FF6FF7303EA01231A430283D4
:102050007047F0B50C461546002200210026078C7B
:102060004FF6EF7C07EA0C070784028B018C4FF6D2
:10207000FF7707EA041640F6FF473A404FF6FF772E
:1020800007EA03373A434FF6FF7707EA05273A4353
:102090008F4FB8420ED08F4FB8420BD0B0F1804F67
:1020A00008D08D4FB84205D08C4FB84202D08C4F2B
:1020B000B84206D14FF6DF77394046F01007394372
:1020C00005E04FF65F77394044F01007394302834B
:1020D0000184F0BD028B4FF6F3731A400283028B2A
:1020E0000A4302837047F0B50C46154600220021D2
:1020F000068C4FF6FE773E400684028B018C4FF62D
:102100000C7632407E1C06EA03162E433243704E94
:10211000B0420ED06F4EB0420BD0B0F1804F08D01D
:102120006D4EB04205D06D4EB04202D06C4EB04202
:1021300006D14FF6FD76314044F00106314305E00B
:102140004FF6F576314044F00106314302830184B5
:10215000F0BD70B505460C465D4885420ED05D4821
:1021600085420BD0B5F1804F08D05B48854205D041
:102170005A48854202D05A48854200D100E000BF4B
:10218000208850B92389A28861882846FFF7ABFFD1
:10219000E1882846FFF79EFF25E0208804280AD121
:1021A0002389A28861882846FFF753FFE1882846E3
:1021B000FFF742FF17E0208808280AD12389A28868
:1021C00061882846FFF7FBFEE1882846FFF7EEFE10
:1021D00009E02389A28861882846FFF7A6FEE188E6
:1021E0002846FFF795FE70BD2DE9F04105460C46E7
:1021F00000260127608808B9022600E00026A08892
:10220000012801D1022700E001272088A0B92389F5
:10221000A28861882846FFF766FFE1882846FFF715
:1022200059FF23893A4631462846FFF712FFE188D5
:102230002846FFF701FF13E02389A288618828461A
:10224000FFF707FFE1882846FFF7F6FE23893A46A5
:1022500031462846FFF747FFE1882846FFF73AFF57
:10226000BDE8F0810A884B881A438B881A43CB88D3
:102270001A430B891A434B891A438B891A43A0F8D6
:10228000442070474FF6FF71818000210180C1809A
:102290004180017270470021018041808180C180AE
:1022A000018141818181C18170470021018041808C
:1022B000012181800021C1800181704700210180BE
:1022C00041808180C180018141818181704700000E
:1022D000002C014000340140000400400008004090
:1022E000000C004021B1028842F00102028004E0AB
:1022F00002884FF6FE731A400280704731B1B0F881
:10230000442042F40042A0F8442005E0B0F8442004
:10231000C2F30E02A0F8442070471AB183890B4320
:10232000838102E083898B43838170478182704778
:1023300041EA0203A0F8483070471AB183890B4381
:10234000838102E083898B438381704701894FF643
:10235000F8721140018170470A46002101894FF649
:102360008F73194011430181704730B504460D4603
:1023700029462046FFF7F0FF208940F00700208122
:1023800030BD2DE9F04104460D4616461F46602D2E
:1023900006D13B46012231462046FFF75AFE05E0B2
:1023A0003B46012231462046FFF79DFE2946204646
:1023B000FFF7D2FF208940F007002081BDE8F081BF
:1023C00030B50C4600210189C9B24FF6FF7505EA08
:1023D0000325154325432943018130BD2DE9F041F3
:1023E00005460E4617469846002443463A4631466F
:1023F0002846FFF7E5FF2C894FF6F870044044F0BB
:1024000007044FF68F70044044F070042C81BDE83F
:10241000F081F0B504460D4616461F463B4632464F
:1024200029462046FFF7CCFF208940F480402081D8
:10243000F0BD0185828270470A46002101884FF66F
:102440008F731940114301807047F0B50C46154653
:102450001E460021002200230189028B038C4FF6C7
:10246000F877394021434FF6FC473A4040F20117D4
:102470003A434FF6DD773B404FF6FF7707EA061702
:102480002F433B43018102830384F0BD0A460021B0
:10249000018B4FF68F7319401143018370470A4631
:1024A0000021018B48F6FF7319404FF6FF7303EAD2
:1024B00002231943018370470A460021818B4FF69E
:1024C0008F7319401143818370470A460021818B25
:1024D00048F6FF7319404FF6FF7303EA02231943CE
:1024E0008183704721B1028842F08002028004E0BB
:1024F00002884FF67F731A400280704721B18288AC
:1025000042F00402828004E082884FF6FB731A4096
:102510008280704721B1828842F00802828004E004
:1025200082884FF6F7731A408280704721B1828803
:1025300042F00102828004E082884FF6FE731A4066
:10254000828070470A460021018B4FF6F7731940CD
:102550001143018370470A460021018B4FF2FF733C
:1025600019404FF6FF7303EA0223194301837047B2
:102570000A460021818B4FF6F7731940114381837E
:1025800070470A460021818B4FF2FF7319404FF6C6
:10259000FF7303EA02231943818370470A4600212F
:1025A000018B4FF6FB7319401143018370470A46B4
:1025B0000021018B4FF6FF3319404FF6FF7303EAFA
:1025C00002231943018370470A460021818B4FF68D
:1025D000FB7319401143818370470A460021818BA8
:1025E0004FF6FF3319404FF6FF7303EA02231943F6
:1025F000818370470A460021018B4FF67F73194093
:102600001143018370470A460021018BC1F30E017B
:102610004FF6FF7303EA02231943018370470A460A
:102620000021818B4FF67F731940114381837047DE
:102630000A460021818BC1F30E014FF6FF7303EAB6
:1026400002231943818370470A460021018C4FF60B
:10265000FD7319401143018470470A460021018C23
:102660004FF6F77319401143018470470A46002161
:10267000018C4FF6DF7319404FF6FF7303EA021324
:102680001943018470470A460021018C4FF67F737D
:1026900019404FF6FF7303EA021319430184704790
:1026A0000A460021018C4FF6FF5319404FF6FF7385
:1026B00003EA02231943018470470A460021018C72
:1026C0004FF2FF7319404FF6FF7303EA02231943D9
:1026D000018470470A460021018C4DF6FF731940B2
:1026E0004FF6FF7303EA023319430184704730B594
:1026F000002301248C40A3B2048C9C430484048CEA
:1027000002FA01F5ADB22C43048430BD30B500238C
:1027100004248C40A3B2048C9C430484048C02FAED
:1027200001F5ADB22C43048430BD70B503460020E2
:1027300000241846183001258D40ACB21D8CA543ED
:102740001D8409B1082909D100EB6100056825F055
:10275000700505600568154305600EE00D1FC5F3A3
:102760004E052844056825F4E045056005684FF6E8
:10277000FF7606EA02263543056070BD21B1028866
:1027800042F00202028004E002884FF6FD731A4014
:102790000280704721B1028842F00402028004E006
:1027A00002884FF6FB731A400280704721B182887D
:1027B00042F08002828004E082884FF67F731A40E4
:1027C0008280704702884FF6F7731A4002800288B1
:1027D0000A430280704782884FF68F731A408280C6
:1027E00082880A438280704702894FF6F8731A4044
:1027F000028102890A430281704702894FF67F7382
:102800001A40028102890A4302817047818470471D
:10281000818570478186704701877047818770473F
:10282000A0F84010704702884FF6FF431A4002801C
:1028300002880A43028070470146888E704701462D
:10284000088F70470146888F70470146B1F84000F5
:1028500070470146888C70470146088D70470246D4
:102860000020138A0B400BB1012000E000207047CC
:10287000CA430282704730B502460020002300247C
:10288000158A05EA0103958905EA010413B10CB123
:10289000012000E0002030BDCA43028270470000E2
:1028A00010B50446FB48844209D101218803FFF793
:1028B0009FF800214FF48040FFF79AF832E0F64885
:1028C000844209D101214804FFF79FF800214FF409
:1028D0000030FFF79AF825E0F048844209D1012141
:1028E0008804FFF792F800214FF48020FFF78DF85D
:1028F00018E0EB48844209D10121C804FFF785F8AC
:1029000000214FF40020FFF780F80BE0E5488442F7
:1029100008D101210805FFF778F800214FF4801055
:10292000FFF773F810BD2DE9F04786B005460E4657
:102930000024A24600BFA1460027B08900B100BF15
:102940002F462C8A4CF6FF700440F08804432C82FA
:10295000AC894EF6F3100440B08831890843718980
:1029600008430443AC81AC8A4FF6FF400440B08971
:102970000443AC8201A8FEF7B4FFC648874202D1E7
:10298000DDF810A001E0DDF80CA0A88900F40040FB
:1029900040B10AEBCA0000EB0A1031684900B0FBF5
:1029A000F1F807E00AEBCA0000EB0A103168890071
:1029B000B0FBF1F86420B8FBF0F0040120096421B9
:1029C00001FB1089A88900F4004040B1322000EBDF
:1029D000C900B0FBF1F000F00700044308E032202A
:1029E00000EB09106421B0FBF1F000F00F0004438C
:1029F0002C8106B0BDE8F0874FF41651016000212C
:102A00008180C18001810C21418100218181704739
:102A100010B502460020108A4FF2FF0318400B88C1
:102A20004C8823438C882343CC882343184310824B
:102A300010BD0021018041808180C180704721B19B
:102A4000828942F40052828104E082894DF6FF734C
:102A50001A4082817047F0B5034600240026002505
:102A6000002040F66A17B94200D100BF1846C1F3F2
:102A7000421401F01F06012707FA06F5012C01D1C7
:102A80000C3004E0022C01D1103000E014301AB1F7
:102A900007682F43076002E00768AF430760F0BD97
:102AA0001AB1838A0B43838202E0838A8B43838239
:102AB0007047028A4FF6F0731A400282028A0A4374
:102AC0000282704782894FF2FF731A4082818289A5
:102AD0000A438281704721B1828942F002028281D9
:102AE00004E082894FF6FD731A4082817047028AA2
:102AF0004FF6DF731A400282028A0A43028270474D
:102B000021B1028A42F48042028204E0028A4BF63A
:102B1000FF731A4002827047C1F308028280704737
:102B200001468888C0F308007047818941F001019F
:102B300081817047028BD2B20283028B42EA01226A
:102B400002837047028B02F47F420283028B0A43A6
:102B50000283704721B1828A42F02002828204E01F
:102B6000828A4FF6DF731A408282704721B1828ACF
:102B700042F01002828204E0828A4FF6EF731A401C
:102B80008282704721B1828A42F00802828204E088
:102B9000828A4FF6F7731A408282704721B1828988
:102BA00042F40042828103E08289C2F30E028281F4
:102BB000704721B1828A42F40062828204E0828AF4
:102BC0004FF2FF731A4082827047828A4FF6FB737E
:102BD0001A408282828A0A438282704721B1828AA5
:102BE00042F00202828204E0828A4FF6FD731A40AC
:102BF0008282704702460020B1F5007F00D100BFFD
:102C000013880B400BB1012000E00020704701F455
:102C10000072B2F5007F00D100BFCA430280704746
:102C200070B50246002400230025002040F66A16F5
:102C3000B14200D100BFC1F3421501F01F030126CC
:102C400006FA03F3012D02D19689334006E0022DE6
:102C500002D1168A334001E0968A33400C120126D5
:102C600006FA04F41688344013B10CB1012000E0D8
:102C7000002070BD10B50022002340F66A14A14266
:102C800000D100BF0A1201249440A3B2DC430480A7
:102C900010BD0000003801400044004000480040E2
:102CA000004C0040005000402DE9FF5F07460E46F3
:102CB00093464FF000083446B1463546B24607B158
:102CC00026B94FF0FF3004B0BDE8F09F4FF0000888
:102CD000B7E0781C10F80800172873D2DFE800F07E
:102CE0007F8081ABAB82838485ABABABAB86909F9F
:102CF0008C0C27445A66730020788C49087008466B
:102D000001788BA002F0DEFE88480078012806D109
:102D100086488078012809D18A49086006E08348FE
:102D20008078012802D100208649086084E060781C
:102D30007E4948700846417883A002F0C3FE7B4874
:102D40004078012807D17948807801280BD17D4946
:102D5000091F086007E075488078012803D100202A
:102D60007849091F086067E0A078704988700846B4
:102D700081787BA002F0A6FE6C488078012804D1FF
:102D8000002070491431086003E001206D491431BE
:102D9000086051E0D4F803006449C1F80300084614
:102DA000D0F8031074A002F08DFE45E0D4F80700BF
:102DB0005E49C1F807000846D0F8071076A002F077
:102DC00081FE39E037E0D4F80B005849C1F80B0018
:102DD0000846D0F80B1078A002F074FE2CE02BE02F
:102DE0002AE029E028E027E026E025E099F8001015
:102DF00078A002F067FE1FE079A002F063FE1BE0FE
:102E0000A9796A792B79A868CDE90032CDE9021059
:102E1000EB78AA78298877A002F054FE0CE080A015
:102E200002F050FE83A002F04DFE9AF8001085A03B
:102E300002F048FE00E000BF00BF08F1010000F012
:102E4000FF08387840453FF744AF00203BE710B516
:102E50001D21364803F004F810BD7F480068401C6F
:102E60007D4908607D480088401C7C490880704787
:102E7000794800687047012080F3138800BF00BFC5
:102E80007748006800F4E06076490843001D744903
:102E90000860BFF34F8F00BF00BFFEE72DE9F04190
:102EA00005460E46002415B9601EBDE8F0810024D9
:102EB0001BE0295D6C48FFF72FFE00BF40216A48E8
:102EC000FFF798FE0028F9D0022C0DD3285DFF28CB
:102ED0000AD155216448FFF71FFE00BF4021624818
:102EE000FFF788FE0028F9D0641CB442E1D3FFF755
:102EF000BFFF0746324639465CA002F0E3FD0024DE
:102F00000DE0295D5EA002F0DDFD022C06D3285DF8
:102F1000FF2803D155215AA002F0D4FD641CB4420D
:102F2000EFD31CA002F0CEFD3046BEE720150020F6
:102F30004576743A204556454E545F4C454420250D
:102F400064200A00880121424576743A204556459E
:102F50004E545F42454550202564200A0000000081
:102F60004576743A204556454E545F4C45443120D1
:102F70002564200A000000004576743A4556454E07
:102F8000545F54656D705F416C61726D53636F7017
:102F9000652025640A0000004576743A4556454E82
:102FA000545F53686964755F416C61726D53636F00
:102FB00070652025640A00004576743A4556454EF2
:102FC000545F47515F416C61726D53636F70652050
:102FD00025640A00525353492025640A000000006A
:102FE0005452414E53504152454E545F4441544116
:102FF000200A0000574946495F4E5450203A205B52
:1030000025642D25642D256420253032643A253031
:1030100032643A253032645D5B25645D200A00002D
:103020004D4F44554C4520494E464F202E2E2E0ADA
:1030300000000000574946204D4F44554C45202E76
:103040002E2E0A006D6F64756C6554797065203A98
:10305000205B25645D200A00F8140020FE14002087
:103060000CED00E00000FA05003801404D435532F8
:10307000576946695B2534643A2534645D3A20001B
:10308000253032782000000070B504460D46002639
:1030900024B9EFA002F016FD701E70BD2A4621462D
:1030A000F34802F089FA0646AE4205D0F1A002F0DC
:1030B00009FD4FF0FF30F0E73046EEE710B504466B
:1030C0002CB9F3A002F0FEFC4FF0FF3010BD002041
:1030D00020606060FF20207060700020F6E770B50F
:1030E00004460D462CB9F5A002F0ECFC4FF0FF3081
:1030F00070BD2721F74802F0B3FE2A462146F54865
:10310000801C02F036FEF3484B38A0F86C500121C9
:1031100080F84C10FFF7ACFEEE494B39C1F86E0059
:103120000020E5E7F8B505460C4616460DB104B19A
:103130002EB9E9A002F0C6FC4FF0FF30F8BD2878A8
:1031400000F0010098B111212278601C8154207890
:10315000401C207001206B1C024600210090084694
:1031600002F0EFF808B1012000E00020307028786C
:10317000C0F3400098B112212278601C815420785D
:10318000401C207001206B1C02460146009000206C
:1031900002F0D7F808B1012000E000207070287814
:1031A000C0F3800098B113212278601C81542078EC
:1031B000401C207001206B1C024602210090002060
:1031C00002F0BFF808B1012000E00020B0702878BC
:1031D000C0F3C00068B114212278601C81542078AB
:1031E000401C2070AA780021012001F0C5FFC6F81C
:1031F00003002878C0F3001068B115212278601C04
:1032000081542078401C2070EA780021012001F0D0
:10321000B3FFC6F807002878C0F3401088B1162124
:103220002278601C81542078401C2070A88801F00E
:10323000CAFD07463A460021012001F09DFFC6F86D
:103240000B0000207AE72DE9F04104460D460027E7
:10325000002604B135B9ABA002F034FC4FF0FF30CA
:10326000BDE8F081FFF704FE064628782178884201
:1032700003D0AEA002F026FC01276878617888426E
:1032800003D0AFA002F01EFC0127A878A1788842E5
:1032900003D0B0A002F016FC0127D5F80300D4F843
:1032A0000310884203D0B0A002F00CFC0127D5F82F
:1032B0000700D4F80710884203D0B3A002F002FC44
:1032C0000127D5F80B00D4F80B10884203D0B6A024
:1032D00002F0F8FB0127E87EE17E884203D0B9A026
:1032E00002F0F0FB0127287F217F884203D0BBA09A
:1032F00002F0E8FB0127D5F80F00D4F80F10884240
:1033000009D0BC480068301AB0F57A7F03D3BAA060
:1033100002F0D8FB0127D5F81300D4F81310884227
:1033200009D0B4480068301AB0F57A7F03D3B7A04B
:1033300002F0C8FB0127D5F81700D4F8171088420F
:1033400009D0AC480068301AB0F57A7F03D3B4A036
:1033500002F0B8FB0127012F03D1FFF789FDA54932
:10336000086038467CE7F8B504460D4604B12DB92F
:10337000B0A002F0A7FB4FF0FF30F8BD002028708E
:103380006872E41C14F8030C2B4601220021009003
:10339000084602F037F814F8020C2B4601221146B9
:1033A0000090002002F02EF814F8010C2B460122A8
:1033B00002210090002002F025F8207E2B460122F9
:1033C00000210090052002F01DF8607E2B460122AE
:1033D00011460090052002F015F80121284601F061
:1033E000ABFE012105F1090001F0A6FE22680021D3
:1033F000012001F0BAFE687062680021012001F02E
:10340000B4FEA870E2680021012001F0AEFE6871F0
:1034100022690021012001F0A8FEA871A268002104
:10342000012001F0A2FE86B2304601F0CCFCA5F8E6
:1034300003006269E41E0021012001F096FE86B2BD
:10344000304601F0C0FCA5F80700002095E7000019
:103450004552523A2067697A50757444617461200C
:1034600062756620697320656D707479200A0000AA
:10347000A11600204552523A204661696C656420CD
:10348000746F2072625772697465200A0000000030
:103490004552523A2067697A50726F746F636F6C4D
:1034A00048656164496E6974206865616420697368
:1034B00020656D707479200A000000004552523A70
:1034C000206461746120697320656D707479200ACD
:1034D000000000008815002067697A44617461501B
:1034E0006F696E74324576656E74204572726F72C4
:1034F000202C20496C6C6567616C20506172616D95
:103500000A00000067697A436865636B5265706FF3
:103510007274204572726F72202C20496C6C656742
:10352000616C20506172616D0A00000076616C75FB
:10353000654C4544204368616E6765640A0000007D
:1035400076616C756542454550204368616E6765DC
:10355000640A000076616C75654C4544312043680F
:10356000616E6765640A000076616C756554656D0F
:10357000705F416C61726D53636F70652043686169
:103580006E6765640A00000076616C756553686952
:1035900064755F416C61726D53636F706520436841
:1035A000616E6765640A000076616C756547515FFE
:1035B000416C61726D53636F7065204368616E6723
:1035C00065640A0076616C756554656D705F5120A5
:1035D0004368616E6765640A0000000076616C757F
:1035E000655373686964755F51204368616E6765F0
:1035F000640A00000015002076616C756554656DE5
:1036000070204368616E6765640A000076616C75BE
:10361000655368696475204368616E6765640A0074
:1036200076616C75654751204368616E6765640A11
:103630000000000067697A44617461506F696E74BC
:1036400073325265706F7274446174612045727296
:103650006F72202C20496C6C6567616C2050617220
:10366000616D0A002DE9F04780460C4617461D465D
:10367000089E94F800900CB105B136B9F7A002F09D
:1036800021FA4FF0FF30BDE8F087B8F1000F59D1B3
:103690001821FE4802F0E4FBB9F1010F06D0B9F1A0
:1036A000020F11D0B9F1050F4AD129E0F74A6A3269
:1036B000F649601CFFF736FD0120F44972390870A5
:1036C0000025002030603CE0F049603101F1270026
:1036D000FFF749FE80B9ED481838816FC5F8011031
:1036E000C16FC5F80510B0F88000A5F809000320E7
:1036F00028700B20306002E04FF0FF30C3E720E07D
:103700007A1E611CE148523802F033FB781EDF4913
:103710007239C1F83F001021DC48723890F87220ED
:1037200073308154733890F87200401CD749723955
:1037300081F872000320087000250020306000E04E
:1037400000BF00BF00209EE72DE9F04F91B0064674
:103750008B461746994600201090824680460025E9
:103760006C46BBF1000F06D1C9A002F0ABF9681E90
:1037700011B0BDE8F08FB9F1010F06D196F80880BD
:1037800008F10600384485B201E0781D85B22B4669
:1037900042463946C4A002F095F9FF2004F8010B17
:1037A00004F8010B281204F8010B04F8015B3079CE
:1037B000401C04F8010B707904F8010B002004F898
:1037C000010B04F8019B4FF0080AB9F1010F0CD16D
:1037D00004F8018B0AF1010A0DEB0A00424606F1DA
:1037E000090102F0C6FAC24444442FB10DEB0A00AD
:1037F0003A46594602F0BDFA291D684601F0D0FA52
:103800000146E81C0DF80010291D6846FFF746FB2D
:1038100010901098002806DAADA0109902F052F925
:103820006FF00100A4E70020A2E7F0B585B00546DF
:103830000E46174600242EB9ABA002F043F9601ED5
:1038400005B0F0BD6846FFF739FC05208DF804008F
:103850008E48723890F84310D0F84300401C8B4AD1
:10386000723AC2F84300C8B28DF805008DF80850CE
:10387000102001F0A8FAADF802003A4631460DF1E9
:10388000090002F076FA1421684601F089FA8DF8F1
:10389000130014216846FFF701FB0446002C06DAEA
:1038A00021469BA002F00EF96FF00100C8E7142139
:1038B0006846FFF714FC2046C2E770B50546FFF7DF
:1038C000D7FA0446714987312846FFF7BCFC012826
:1038D00014D196A002F0F6F86C4960312846FFF743
:1038E00042FD28B90A22694960310420FFF79DFF93
:1038F0001D2229466548873002F03BFA9148B4FB07
:10390000F0F100FB1140D0B98F480068A04216D0FA
:103910008EA002F0D7F85D4960312846FFF723FDFD
:1039200028B90A22594960310420FFF77EFF1D2281
:1039300029465648873002F01CFA8348046070BD5F
:103940002DE9FE4F80460E4617464FF0000B002033
:10395000029081468246002534460090B8F1000F5F
:1039600001D006B137B97FA002F0ACF84FF0FF30BC
:10397000BDE8FE8F404601F0A3FD00F0FF0ABAF15A
:10398000000F02D14FF0FF30F2E74FF000095DE089
:10399000012201A9404601F0BEFD8346BBF1000FA4
:1039A00052D07C480078FF281FD19DF80400FF28E2
:1039B0001BD17948007848B9FF2020706070022040
:1039C0007649088001207449087034E07348008803
:1039D000042830DD71480088A8422CD0FF202070D8
:1039E000607002206D49088025E06A480078FF2851
:1039F00003D19DF8040055281DD0674800780128A0
:103A000019D19DF80400654909886054634800880D
:103A1000401C624908800846008804280BDD009499
:103A2000009C608801F0CFF9001D85B25B480088DA
:103A3000A84200D10CE09DF804005649087058488F
:103A40000078401C5649087009F10109D1459FDBF7
:103A500000BF524800880428A4E0000067697A503B
:103A6000726F746F636F6C49737375656450726FB6
:103A700063657373204572726F72202C20496C6CE1
:103A80006567616C20506172616D0A00AF1500209E
:103A90005B4552525D202064617461204973204E61
:103AA000756C6C200A0000006C656E203D2025645A
:103AB000202C20734469644C656E203D20256420D1
:103AC0002C646174615F6C656E203D2025640A0082
:103AD00075617274207772697465206572726F7295
:103AE000202564200A00000067697A5265706F72B1
:103AF0007444617461204572726F72202C20496C8D
:103B00006C6567616C20506172616D0A0000000095
:103B10004552523A2075617274207772697465203B
:103B20006572726F72202564200A00006368616EFE
:103B30006765642C207265706F72742064617461B3
:103B40000A000000A086010004150020496E666F7F
:103B50003A2036303053207265706F727420646181
:103B600074610A0067697A50726F746F636F6C4793
:103B700065744F6E655061636B6574204572726F3A
:103B800072202C20496C6C6567616C2050617261F9
:103B90006D0A00000C150020081500200A150020F1
:103BA0000D15002023DDFE480088A8421FD1FC48E7
:103BB0000188204601F0F4F80290F9480088401E80
:103BC000215C029881420FD12A462146304602F0FC
:103BD000D0F83D800020F3490870F1490880F2498F
:103BE0000870F2490870C3E66FF00100C0E60120DA
:103BF000BEE610B50024EE4890F84C0000B910BDA8
:103C0000ECA001F05FFFEA48B0F86C104D30FFF710
:103C100045F90446E648B0F86C00A04202D0EDA099
:103C200001F050FFFFF724F9E149C1F86E0000BF31
:103C3000E5E770B50446DE4D4D3534B9AFF284701A
:103C400001F040FF4FF0FF3070BD2879401C217912
:103C5000884204D12721D6484B3002F001F90020D8
:103C6000F2E73EB50446002524B9E0A001F02AFFA2
:103C7000681E3EBD20680090606801909DF80400B9
:103C8000401CC0B28DF80400052001F09CF8ADF88E
:103C900002000921684601F083F88DF80800092127
:103CA0006846FFF7FBF80546002D04DA2946AFF217
:103CB000A01001F007FF2846DBE710B5BC4890F8DC
:103CC0004C00012827D1BA4890F84B0002281DDA91
:103CD000FFF7CEF8B649D1F86E10401AC8281AD9A5
:103CE000FFF7C6F80446B24890F84B30D0F86E2083
:103CF0002146C9A001F0E6FEFFF77BFFAC4890F833
:103D00004B00401CAA4981F84B0004E02721A84839
:103D10004B3002F0A5F810BD30B59DB0044600252B
:103D20002CB9C7A001F0CEFE681E1DB030BD68469C
:103D3000FFF7C4F902208DF8040060798DF80500C2
:103D4000CBA103C9CDE90201CCA103C9CDE904018E
:103D5000CDA103C9CDE90801CEA103C9CDE9060172
:103D60002022CFA10AA802F049F82022D5A10DF106
:103D7000520001F0FEFF0020CDF84A00CDF84E00C1
:103D80009DF851008DF851009DF8510040F002015E
:103D90008DF85110002001F016F8ADF848006F20A2
:103DA00001F011F8ADF802007321684600F0F8FF49
:103DB0008DF8720073216846FFF770F80546002DF4
:103DC00004DA2946AFF2B82001F07CFE2846ACE7C1
:103DD000FEB504460E46002524B9C3A001F072FECC
:103DE000681EFEBD6846FFF769F912208DF80400D1
:103DF00060798DF80500062000F0E5FFADF80200BF
:103E00008DF808600A21684600F0CAFF8DF80900A5
:103E10000A216846FFF742F80546002D04DA2946D4
:103E2000AFF2143001F04EFE2846DAE770B50446D2
:103E300025462CB9B7A001F045FE4FF0FF3070BD0C
:103E4000B948A9680160E9684160298A0181A97CB3
:103E500081725749B1F8170100F0B5FF5449A1F834
:103E60001701D1F81F0100F0BBFF5149C1F81F0134
:103E70000E214F4890F8A220A3308154A33890F827
:103E8000A200401C4A4981F8A200042008700020CA
:103E9000D5E710B5FEF7ECFF044600BFFEF7E8FFDC
:103EA000001BB0F5167FF9D9FEF7E5FF10BD10B580
:103EB00004462CB99DA001F005FE4FF0FF3010BD67
:103EC000208900F080FF2081A4480078C0F38000A2
:103ED000217AC1F38001884256D0207AC0F3800055
:103EE000002829D0207A00F0010078B10021304864
:103EF00090F88A208B3081548B3890F88A00401CCF
:103F00002B4981F88A0096A001F0DCFD207AC0F3ED
:103F10004000002838D00121254890F88A208B30B5
:103F200081548B3890F88A00401C214981F88A001E
:103F300093A001F0C7FD27E0207A00F0010078B1DE
:103F400000211B4890F88A208B3081548B3890F8E0
:103F50008A00401C164981F88A0081A001F0B2FD58
:103F6000207AC0F3400078B10221114890F88A20ED
:103F70008B3081548B3890F88A00401C0C4981F8B2
:103F80008A0086A001F09EFD74480078C0F3C0004E
:103F9000217AC1F3C001884200D00DE139E100006F
:103FA0000A150020081500200D1500200C15002012
:103FB0003D1500205761726E696E673A2074696D15
:103FC000656F75742C20726573656E64206461740E
:103FD00061200A004552523A20726573656E642072
:103FE00064617461206572726F720A004552523AC0
:103FF0002067697A50726F746F636F6C436F6D6D79
:104000006F6E41636B206461746120697320656D1C
:10401000707479200A0000005761726E696E673A09
:1040200067697A50726F746F636F6C526573656EF7
:1040300064446174612025642025642025640A009D
:1040400067697A50726F746F636F6C47657444650B
:1040500076696365496E666F204572726F72202CB7
:1040600020496C6C6567616C20506172616D0A005B
:1040700030303030303030340000000030303030FC
:1040800030303032000000003033303330303030E8
:10409000000000003033303130313030000000009B
:1040A000353064666430343838333363343238330F
:1040B00062613530393937396661353539613237C2
:1040C000000000003762343561376330646532398F
:1040D00034303539386638653734633239303365D2
:1040E000396634390000000067697A50726F746F66
:1040F000636F6C4572726F72436D64204572726FAC
:1041000072202C20496C6C6567616C205061726173
:104110006D0A00004552523A204E545020697320D7
:10412000656D707479200A005416002067697A5012
:10413000726F746F636F6C4D6F64756C65537461EF
:10414000747573204572726F72202C20496C6C65F7
:1041500067616C20506172616D0A00000E150020CD
:104160004F6E426F617264696E673A20536F667476
:104170004150206F7220576562206D6F64650A00A0
:104180004F6E426F617264696E673A204169724C8A
:10419000696E6B206D6F64650A0000004F6E426FA0
:1041A000617264696E673A2053746174696F6E203E
:1041B0006D6F64650A000000207AC108FE4800782F
:1041C00061F3C300FC490870207AC0F3C00080B1DD
:1041D0000321FA4890F88A208B3081548B3890F86C
:1041E0008A00401CF54981F88A00F5A001F06AFCBC
:1041F0000FE00421F14890F88A208B3081548B38ED
:1042000090F88A00401CED4981F88A00F4A001F082
:1042100059FCE9480078C0F30010217AC1F300117D
:1042200088422CD0207A0109E348007861F3041019
:10423000E1490870207AC0F3001080B10521DF4801
:1042400090F88A208B3081548B3890F88A00401C7B
:10425000DA4981F88A00EAA001F034FC0FE0062177
:10426000D64890F88A208B3081548B3890F88A0099
:10427000401CD24981F88A00E9A001F023FCCE4815
:104280000078C0F34010217AC1F3401188422CD04D
:10429000207A4109C848007861F34510C649087082
:1042A000207AC0F3401080B10721C44890F88A20DA
:1042B0008B3081548B3890F88A00401CBF4981F8BC
:1042C0008A00E0A001F0FEFB0FE00821BB4890F857
:1042D0008A208B3081548B3890F88A00401CB74973
:1042E00081F88A00DEA001F0EDFBB3484078C0F30E
:1042F000C001607AC0F3C00081422CD0607AC1084E
:10430000AD48407861F3C300AB494870607AC0F3B0
:10431000C00080B10B21A94890F88A208B308154CD
:104320008B3890F88A00401CA44981F88A00D4A0F8
:1043300001F0C8FB0FE00C21A04890F88A208B30D8
:1043400081548B3890F88A00401C9C4981F88A007F
:10435000D2A001F0B7FB98484078C0F30011607A12
:10436000C0F3001081422CD0607A01099248407855
:1043700061F3041090494870607AC0F3001080B176
:1043800009218E4890F88A208B3081548B3890F820
:104390008A00401C894981F88A00C8A001F092FB7C
:1043A0000FE00A21854890F88A208B3081548B38A1
:1043B00090F88A00401C814981F88A00C6A001F06B
:1043C00081FB0D217D4890F88A208B3081548B38F9
:1043D00090F88A00401C794981F88A00607A00F0E0
:1043E000070081F81601084690F81611C1A001F0E7
:1043F00069FB022071490870002060E510B53E207D
:10440000C0490860C048C860084601F03BF818B9C8
:10441000BEA001F057FB02E0C1A001F053FB4FF436
:10442000B271664801F01CFD10BD30B587B005467D
:104430000024062D7ED2DFE805F003316193BCBB7A
:1044400001A8FEF73BFE0B208DF808005B4890F8B2
:104450004310D0F84300401C584AC2F84300C8B289
:104460008DF80900052000F0AEFCADF8060009212A
:1044700001A800F095FC8DF80C00092101A8FEF7B9
:104480000DFD0446002C04DA2146AFF67C1001F045
:1044900019FB092101A8FEF722FEB2E104A8FEF7EC
:1044A0000DFE09208DF81400444890F84310D0F810
:1044B0004300401C414AC2F84300C8B28DF81500C1
:1044C0008DF81850062000F07EFCADF812000A218D
:1044D00004A800F065FC8DF819000A2104A8FEF775
:1044E000DDFC0446002C04DA2146AFF6DC1001F0B6
:1044F000E9FA0A2104A8FEF7F2FD82E104A8FEF71A
:10450000DDFD09208DF814002C4890F84310D0F8F8
:104510004300401C294AC2F84300C8B28DF8150078
:104520008DF81850062000F04EFCADF812000A215C
:1045300004A800E061E100F033FC8DF819000A21C5
:1045400004A8FEF7ABFC0446002C04DA2146AFF6C3
:10455000402001F0B7FA0A2104A8FEF7C0FD50E19F
:1045600001A8FEF7ABFD13208DF80800134890F862
:104570004310D0F84300401C104AC2F84300C8B2B0
:104580008DF80900052000F01EFCADF80600092199
:1045900001A800F005FC8DF80C00092101A8FEF728
:1045A0007DFC0446002C05DA2146AFF69C20C1E0D4
:1045B000F5E0C6E0C0E000000E1500203D1500202B
:1045C00057694669207374617475733A20696E2067
:1045D00062696E64696E67206D6F64650A00000031
:1045E00057694669207374617475733A206F7574E6
:1045F0002062696E64696E67206D6F64650A0000F1
:1046000057694669207374617475733A20636F6EDD
:104610006E656374656420726F757465720A00005C
:1046200057694669207374617475733A20646973BD
:10463000636F6E6E656374656420726F7574657206
:104640000A00000057694669207374617475733AF3
:1046500020636F6E6E6563746564206D326D0A0051
:1046600057694669207374617475733A206469737D
:10467000636F6E6E6563746564206D326D0A000051
:1046800057694669207374617475733A206170705C
:1046900020636F6E6E6563740A0000005769466997
:1046A000207374617475733A206E6F20617070208E
:1046B000636F6E6E6563740A000000005769466997
:1046C000207374617475733A20696E207465737415
:1046D000206D6F64650A0000576946692073746134
:1046E0007475733A206F75742074657374206D6FE0
:1046F00064650A0052535349206973202564200AD7
:1047000000000000A1160020B11600207262437262
:10471000656174652053756363657373200A0000D7
:104720007262437265617465204661696C64200A37
:104730000000000001F0C6F9092101A8FEF7CFFC36
:104740005FE001A8FEF7BAFC15208DF80800FB48D1
:1047500090F84310D0F84300401CF84AC2F84300D8
:10476000C8B28DF80900052000F02DFBADF8060059
:10477000092101A800F014FB8DF80C00092101A803
:10478000FEF78CFB0446002C04DA2146AFF680408D
:1047900001F098F9092101A8FEF7A1FC31E001A878
:1047A000FEF78CFC29208DF80800E44890F84310AF
:1047B000D0F84300401CE14AC2F84300C8B28DF86B
:1047C0000900052000F0FFFAADF80600092101A854
:1047D00000F0E6FA8DF80C00092101A8FEF75EFB57
:1047E0000446002C04DA2146AFF6DC4001F06AF9F9
:1047F000092101A8FEF773FC03E0D1A001F062F9E2
:1048000000BF00BF204607B030BD3EB5002468465B
:10481000FEF754FC17208DF80400C84890F84310A8
:10482000D0F84300401CC54AC2F84300C8B28DF816
:104830000500052000F0C7FAADF80200092168461E
:1048400000F0AEFA8DF8080009216846FEF726FB55
:104850000446002C03DA2146BFA001F033F90921F8
:104860006846FEF73CFC3EBD3EB500246846FEF7B8
:1048700025FC21208DF80400B04890F84310D0F8B2
:104880004300401CAD4AC2F84300C8B28DF8050091
:1048900000208DF80800062000F095FAADF802001F
:1048A0000A21684600F07CFA8DF809000A21684662
:1048B000FEF7F4FA0446002C03DA2146A6A001F024
:1048C00001F90A216846FEF70AFC3EBD70B50446B0
:1048D00025462CB9A8A001F0F5F84FF0FF3070BDC7
:1048E000412205F10801A84801F043FA0F2193483D
:1048F00090F8BA20BB308154BB3890F8BA00401C05
:104900008E4981F8BA00052008700020E7E72DE9FC
:10491000F04794B00646002700250020039002903F
:1049200000248146804636B998A001F0CBF8601E7D
:1049300014B0BDE8F087FFF7C0F903AA7F49491C0E
:104940009C48FEF7FDFF0746002F73D19AA001F0A7
:10495000B9F8FEF78DFA8246BDF80C2051469BA0AF
:1049600001F0B0F8002507E07448401C415D9CA0B0
:1049700001F0A8F8681C85B2BDF80C008542F3DB95
:10498000AFF2A83001F09EF86C4C641C20790F281F
:1049900051D00ADC0E2874D2DFE800F07316731AC7
:1049A0007373443973734573463D182854D006DC3D
:1049B000112849D0142848D0162862D135E0222881
:1049C00054D02A285DD131E02046FFF7A5F960E0F8
:1049D000E279A17984A001F075F802A8009008F1AD
:1049E0000900BDF80C301A1A5448093000EB0801D0
:1049F00004AB4846FEF736FE40B9E37904A92046E9
:104A0000029AFEF7A1FE7CA001F05CF841E020468E
:104A1000FFF727F93DE02046FFF723F92046FFF78F
:104A200046FA36E000BF00BF00BF00BF2046FFF7D8
:104A300000F92EE02EE02046FFF713F971A001F0F7
:104A400041F8FFF726FA24E023E02046FFF7F1F8CB
:104A500071A001F037F81CE02046FFF7EAF8204685
:104A6000FFF7E4F974A001F02DF812E02046FFF7FB
:104A7000E0F82046FFF72AFF75A001F023F808E0D0
:104A8000FFE702212046FFF7A3F978A001F01AF80A
:104A900000BF0EE017F1020F0BD1284C641C01215E
:104AA0002046FFF795F977A001F00CF86FF00100B0
:104AB0003EE72248007806283ED2DFE800F0FF03F8
:104AC00012222DEF00201D4908701D22DC31A1F1BA
:104AD0006A00FEF7E9F818211848723001F0C0F9B1
:104AE000EDE0002015490870012201F58B71A1F15C
:104AF0008C00FEF7D9F8182110488A3001F0B0F97F
:104B0000DDE000200D4908700846D0F83F20203134
:104B10007230FEF7C9F8D2E00020084908700C2274
:104B200001F21711A1F17500FEF7BEF81821164821
:104B3000813801F095F9C2E0C0E0AFE03D150020FA
:104B40004552523A204366674D6F64652065727224
:104B50006F72210A000000004552525B4E54505DB6
:104B60003A2075617274207772697465206572727B
:104B70006F72202564200A004E545020697320650E
:104B80006D707479200A00006016002047697A77FA
:104B900069747348616E646C65204572726F72202F
:104BA0002C20496C6C6567616C20506172616D0AE4
:104BB00000000000A1160020476574204F6E65209C
:104BC0005061636B6574210A0000000057694669F3
:104BD000324D43555B2534643A2534645D3A2000F8
:104BE0002530327820000000666C6167202578202F
:104BF0002578200A0000000041636B446174612045
:104C00003A200A007265706F72743A4D43552072F3
:104C100065626F6F74210A0041636B2050524F44EC
:104C2000554354494F4E5F4D4F4445207375636360
:104C3000657373200A00000041636B204745545F91
:104C40005554542073756363657373200A00000024
:104C500041636B204745545F4D6F64756C652073ED
:104C6000756363657373200A000000004552523A71
:104C700020636D6420636F6465206572726F7221BA
:104C80000A0000004552523A20636865636B207346
:104C9000756D206572726F72210A00000020344920
:104CA0000870412201F22311A1F16900FDF7FCFF18
:104CB00041212F48BA3001F0D3F800E000BF00BF17
:104CC0003046FEF7FAFD002032E62DE9F04188B0CB
:104CD00006460F464FF000086C46B81D85B23EB937
:104CE00024A000F0EFFE4FF0FF3008B0BDE8F081E7
:104CF000FF2004F8010B04F8010B281204F8010B43
:104D000004F8015B052004F8010B194890F84310E2
:104D1000D0F84300401C164AC2F8430004F8011BB7
:104D2000002004F8010B04F8010B062004F8010B25
:104D30003A4631460DF1090001F01BF8291D68467D
:104D400000F02EF80146E81C0DF80010291D6846F9
:104D5000FEF7A4F88046B8F1000F03DA41460F4889
:104D600000F0B0FE291D6846FEF7B9F90020BCE747
:104D70003D1500205B4552525D2067697A77697462
:104D800073506173737468726F756768446174619E
:104D9000204572726F72200A00000000103B00086C
:104DA00010B502460024002302B109B9002010BD4D
:104DB000022303E0D05C2044C4B25B1C481E98422E
:104DC000F8D82046F3E701B581B00020009069468D
:104DD00001AA5078087010784870BDF800000CBD2A
:104DE0000146080601F47F4240EA022001F47F02F6
:104DF00040EA122040EA1160704710B502460023D5
:104E00000024302A05DB392A03DCA2F13000C3B2CA
:104E10000EE0412A05DB462A03DCA2F13700C3B2CB
:104E200006E0612A04DB662A02DCA2F15700C3B265
:104E3000302905DB392903DCA1F13000C4B20EE0D2
:104E4000412905DB462903DCA1F13700C4B206E0A5
:104E5000612904DB662902DCA1F15700C4B204EB2E
:104E60000310C0B210BD70B50446002500262046D0
:104E700000F060FF06460CB9681E70BD002505E015
:104E8000605D302801D00020F7E76D1CB542F7D3F4
:104E90000120F2E72DE9F043034600BF002500247E
:104EA00000260027012901D002290DD1A3F1010C10
:104EB0004FF06408BCFBF8F4BCFBF8F908FB19C51B
:104EC00001F10C06174609E04FF0640CB3FBFCF44B
:104ED000B3FBFCF80CFB18350E46174606F1010C27
:104EE0004FF01A080CFB08FC4FF00A08BCFBF8FC5A
:104EF00005EB950808EB94084FF0020909FB1488AC
:104F0000C444BC44ACF10100002806DB4FF0070CA0
:104F100090FBFCF80CFB180C07E04FF0070C90FB23
:104F2000FCF80CFB180C0CF1070C6046BDE8F08394
:104F300001460A46C81701EB90708010A1EB800073
:104F400070B9642091FBF0F300FB131030B94FF4FB
:104F5000C87091FBF0F300FB131008B901207047F3
:104F60000020FCE710B504462046FFF7E1FF10B132
:104F70004FF4B77010BD40F26D10FBE72DE9F04122
:104F800090B080460E4640F2B2753022684901A8C2
:104F900000F034FF344604F5E14400BF11E0284638
:104FA000FFF7E0FF074640F2A3207843B4EBC01FB1
:104FB00006D340F2A3207843A4EBC0146D1C00E09C
:104FC00001E0002CEBD100BFA8B2ADF83400002501
:104FD00018E0BDF83400FFF7ABFF08B11D200290C8
:104FE00001A850F8250040F2A3214843B4EBC01FAC
:104FF00007D301A850F825004843A4EBC0146D1C4A
:1050000000E001E0002CE4D100BF1C200290681CED
:10501000C0B28DF83600012506E04648844202D32E
:10502000241A6D1C00E001E0002CF6D100BFE8B2AC
:105030008DF837004FF46160B4FBF0F0C0B28DF82A
:1050400038004FF46160B4FBF0F100FB11403C21EB
:10505000B0FBF1F0C0B28DF839003C20B4FBF0F1A8
:1050600000FB11408DF83A00CDF83B600D98C8F870
:1050700000000E98C8F80400BDF83C00A8F808002D
:105080009DF83E0088F80A0010B0BDE8F0812DE9D7
:10509000F05F80460E46914600241CE016F814A0EE
:1050A0006000401C16F800B0504600F0FCFC3038A0
:1050B000C5B2092D01DDE81FC5B2584600F0F3FC6A
:1050C0003038C7B2092F01DDF81FC7B207EB051052
:1050D00008F80400641C4C45E0DBBDE8F09FF0B527
:1050E000034600201EE00E5CF71706EB17773F1112
:1050F00007F130050E5CF71706EB17773F11A6EBAB
:1051000007173037FCB2392D01DDEE1DF5B2392C11
:1051100001DDE61DF4B203F81050012606EB40064F
:105120009C55401C9042DEDB002603F81260F0BD67
:105130009C7200088051010030B502460B460021E8
:10514000002400250AB9481E30BD002108E0545C47
:10515000581A401E155C5554581A401E1454491CC8
:10516000B1EB530FF3D30020EEE710B50346002058
:10517000541AB4FBF3F010BD10B50346002002FB37
:10518000031010BD2DE9F04704460E4615460027D2
:105190003146284601F000FC8146214601F03AFAEA
:1051A000804601F0F9FA07463846BDE8F0872DE958
:1051B000F04704460E4615460027284601F00CFB32
:1051C0008146214601F01CFB8046314601F0C0F9C2
:1051D00007463846BDE8F087024612B102F00700E4
:1051E00028B9082901D8002070470120FCE702F007
:1051F0000700C0F10800884201D30020F4E7012035
:10520000F2E72DE9F0470546884614461E464FF062
:105210000009CA460027002314B9581EBDE8F087CC
:10522000EB0841462846FFF7D7FF07463FB9E05C49
:1052300005F0070106FA01F10843E0541DE0012FD3
:105240001BD1F0B205F00701C1F1080140FA01F9E4
:1052500005F00700C0F10801FF20084100EA060A36
:10526000581C205C40EA0900591C6054E05C05F0C1
:1052700007010AFA01F10843E0540020CEE72DE9C6
:10528000F04F8FB004460F4690461D460026B246AA
:10529000B146B34600200E90B8F1000F00D025B9FA
:1052A0004FF0FF300FB0BDE8F08F4FEAD4092A4627
:1052B000414601A800F05DFD012D09D9294601A84C
:1052C000FFF73AFFB0F1FF3F02D14FF0FF30E9E7BF
:1052D00039462046FFF780FF8246BAF1000F0CD115
:1052E00001A810F8090004F007010841C7F10802FD
:1052F000FF2111410840064321E0BAF1010F1ED100
:1053000001A909F10100085C04F00701C1F10801DD
:10531000791AC1F10802FF21114100EA010B01A82D
:1053200010F8090004F0070108410E9004F007008E
:10533000C0F108010BFA01F006430E98064330460F
:10534000B0E72DE9F04F8FB005460C46164699465A
:10535000189F4FF0000AD34600200E908046B9F106
:10536000000F00D027B94FF0FF300FB0BDE8F08F2D
:105370003A46494601A800F0FCFC012F09D93946FC
:1053800001A8FFF7D9FEB0F1FF3F02D14FF0FF3087
:10539000EBE731462046FFF71FFF8246BAF1000FC8
:1053A0000CD101A8405D04F007010841C6F10802D4
:1053B000FF211141084040EA080821E0BAF1010F3D
:1053C0001ED101A9681C085C04F00701C1F10801A5
:1053D000711AC1F10802FF21114100EA010B01A875
:1053E000405D04F0070108410E9004F00700C0F191
:1053F00008010BFA01F040EA08080E9848EA000894
:105400004046B2E72DE9F04704460D461746089E90
:105410004FF00009CA46C8461BB94FF0FF30BDE83F
:10542000F08739462846FFF7D7FE8046B8F1000FCF
:1054300007D1185D05F0070106FA01F10843185578
:105440001EE0B8F1010F1BD1F0B205F00701C1F168
:10545000080140FA01F905F00700C0F10801FF203A
:10546000084100EA060A601C185C40EA0900611C59
:105470005854185D05F007010AFA01F10843185560
:105480000020CCE7014611B94FF0FF307047C868E3
:105490004860C86888600020F8E7014611B94FF0FD
:1054A000FF3070470020C86048608860086000BF17
:1054B000F7E7014611B94FF0FF3070470868FCE785
:1054C00000B5024612B94FF0FF3000BD5068916838
:1054D000884201D10020F8E750689168884203D2E1
:1054E00090685168401AF0E71046FFF7E2FF5168F4
:1054F0009368C91A401AE8E730B5044614B94FF06A
:10550000FF3030BD2046FFF7D4FF05462046FFF7A9
:10551000D7FF281AF5E72DE9F04104460F46164655
:10552000002514B9681EBDE8F08117B94FF0FF30AF
:10553000F9E76068A168884214D22046FFF7C0FFEF
:10554000B04201D9304602E02046FFF7B9FF0546D8
:1055500061682A46384600F00CFC606828446060A8
:105560002846E0E72046FFF7A4FF6168E268891A51
:10557000401AB0420AD9354661682A46384600F0DA
:10558000F8FB6068284460602846CCE72046FFF7B7
:1055900090FF6168E268891A451A61682A463846B0
:1055A00000F0E7FBE0686060721B79192046FFF7A6
:1055B000B2FF05442846B6E72DE9F04104460F4600
:1055C0001546002604B11FB94FF0FF30BDE8F08149
:1055D0002046FFF791FFA84202D86FF00100F5E7DF
:1055E0006068A16888422AD82046FFF762FFA16858
:1055F000E268891A461AB54213D8A0682A46394685
:1056000000F0B7FBA0682844A0602046FFF751FFD8
:10561000E1680844A168884201D1E068A06028469A
:10562000D4E7A0683246394600F0A3FBE068A060EA
:10563000AA1BB9192046FFF7BFFF3044C6E7A06890
:105640002A46394600F095FBA0682844A060284609
:10565000BCE7000010B5F848006820F47040F64937
:1056600008600846006840F4405008600020F34994
:1056700008600220FBF737FD0120F149C1F8A801BD
:105680000520FBF730FD0120EC4908600420FBF702
:105690002AFD10BD70B50546E748006820F470404B
:1056A000E54908600846006840F44050086000245E
:1056B0001EE005FA04F000F0800018B10120DF4977
:1056C000086002E00020DD4908600220FBF70BFDC6
:1056D0000120DA49091F08600420FBF704FD0020BF
:1056E000D749C1F8A8010220FBF7FDFC601CC4B239
:1056F000082CDEDB0020D149091F08600220FBF7DF
:10570000F2FC70BD10B5CC48006820F47040CA4966
:1057100008600846006840F4405008600120C7490E
:1057200008600220FBF7DFFC0120C549C1F8A80191
:105730000520FBF7D8FC0020C04908600420FBF7D7
:10574000D2FC0020BE49C1F8A8010220FBF7CBFC27
:1057500010BD10B50446FFF7D5FF4620FFF79AFFAE
:105760002046FFF797FFFFF775FF10BD08B5012131
:105770000820FCF723F94FF44060ADF80000032047
:105780008DF8020010208DF803006946AA48001F1A
:10579000FBF758FE4FF44061A748001FFBF7FFFEE0
:1057A00008BD10B5FFF7E2FF0120FFF7D2FF10BDE3
:1057B00010B50020A149091F08609F48006820F427
:1057C00070409D4908600846006840F440500860F9
:1057D00000209B49C1F8AC010220FBF784FC0120AA
:1057E0009649091F08600420FBF77DFC00209449BE
:1057F000C1F8A8010220FBF776FC10BD10B500200F
:105800008E49091F08608C48006820F470408A495E
:1058100008600846006840F440500860012088494C
:10582000C1F8AC010220FBF75EFC01208349091F8F
:1058300008600420FBF757FC00208149C1F8A8014B
:105840000220FBF750FC10BD70B5054600247A48D5
:10585000006820F47040784908600846006840F409
:105860000040086000261AE000207449091F086003
:105870000520FBF738FC01207149C1F8A80102207E
:10588000FBF731FC6006040E6C488038006808B1F4
:10589000601CC4B20220FBF726FC701CC6B2082EA6
:1058A000E2DB15B9FFF7AAFF01E0FFF781FF204611
:1058B00070BD10B500246048006820F470405E4957
:1058C00008600846006840F40040086001205B4919
:1058D00008600220FBF707FC01205949C1F8A80124
:1058E0000220FBF700FC07E0601CC4B2FA2C03DBCB
:1058F000FFF7B0FE012010BD504880380068002836
:10590000F2D14E49091F086000BFF4E710B5FFF758
:10591000F9FE4620FFF7BEFEFFF7CBFF2020FFF782
:10592000B9FEFFF7C6FFFFF795FEC820FBF7FFFBA8
:10593000FFF7E8FE4720FFF7ADFEFFF7BAFF0120B3
:10594000FFF782FF3F4908700020FFF77DFF3D49C8
:105950004870FFF77FFE10BD70B500240025FFF7EB
:10596000D1FE4620FFF796FEFFF7A3FF1020FFF7BA
:1059700091FEFFF79EFFFFF76DFEC820FBF7D7FBF8
:10598000FFF7C0FE4720FFF785FEFFF792FF0120DB
:10599000FFF75AFF04460020FFF756FF0546FFF7C2
:1059A00059FE05EB0420284908800846008827494D
:1059B00008600846008880B270BD10B5FFF7A2FEEF
:1059C0004620FFF767FEFFF774FF1020FFF762FE27
:1059D000FFF76FFFFFF73EFEC820FBF7A8FBFFF7BE
:1059E00091FE4720FFF756FEFFF763FF0120FFF708
:1059F0002BFF144908700020FFF726FF114948705B
:105A0000FFF728FE10BD10B5FFF77CFE4720FFF71B
:105A100041FE0120FFF718FF0A4908700020FFF738
:105A200013FF08494870FFF715FE0520FBF75BFBE5
:105A3000C820FBF77CFB10BD040C0140AC81214267
:105A40000080214210150020181500201C15002090
:105A50002DE9F0410F4800780F4908800D48407843
:105A6000097800EB01200C4908800846008800F006
:105A7000B3FE804600F040FD06464FF03332074B40
:105A800000F060FB044600F0B5FC05490860BDE885
:105A9000F081000010150020181500203333F33F6B
:105AA0001C150020704710B5044600F0FFF900688F
:105AB000005D000704D5DF2C02D0A4F1200010BD4A
:105AC000204610BD0FB4044910B503AA029800F097
:105AD0004FFA10BC5DF814FBDC14002070B50446CE
