:020000040800F2
:10000000D0040020450100084D0100084F01000800
:1000100051010008530100085501000800000000CC
:100020000000000000000000000000005701000870
:1000300059010008000000005B0100085D01000894
:100040005F0100085F0100085F0100085F01000810
:100050005F0100085F0100085F0100085F01000800
:100060005F0100085F0100085F0100085F010008F0
:100070005F0100085F0100085F0100085F010008E0
:100080005F0100085F0100085F0100085F010008D0
:100090005F0100085F0100085F0100085F010008C0
:1000A0005F0100085F0100085F0100085F010008B0
:1000B0005F0100085F0100085F0100085F010008A0
:1000C0005F0100085F0100085F0100085F01000890
:1000D0005F0100085F0100085F0100085F01000880
:1000E0005F0100085F0100085F0100085F01000870
:1000F0005F0100085F0100085F0100085F01000860
:100100005F0100085F0100085F0100085F0100084F
:100110005F0100085F0100085F0100085F0100083F
:100120005F0100085F0100085F0100085F0100082F
:10013000DFF80CD000F0BEF9004800471532000887
:10014000D00400200648804706480047FEE7FEE747
:10015000FEE7FEE7FEE7FEE7FEE7FEE7FEE7FEE777
:10016000D11300083101000840EA01039B0703D0C6
:1001700009E008C9121F08C0042AFAD203E011F8E6
:10018000013B00F8013B521EF9D27047F0B480EAFF
:100190000102D40F4200B2EB410F02D202460846E0
:1001A00011464A0042D0C30DDDB2C1F3C752AD1AA9
:1001B000202D35DAC1F3160141F4000204B1524298
:1001C000C5F1200602FA06F12A411044B3EBD05FD4
:1001D00023D0C4B1012DA0EBC35009DCF0BC4FF01B
:1001E000004202EAC352DBB200F5000000F033B96E
:1001F000400000F1807000EBC350A0F1807040EA35
:10020000D170490009E0490841EAC071A0EBC35030
:1002100000F50000400800EBC350F0BC00F012B93C
:100220006142012202EB4101001BF6E7F0BC70477E
:1002300081F00041AAE780F00040A7E780EA0102D0
:1002400010B502F00043400022D04A001FD0010E3A
:1002500001EB1261C0F35600C2F3560240F40000F5
:1002600042F40002A0FB022000047F39140400D0F5
:10027000401C50EA124001D44000491EC2B20C0694
:1002800004EBD010401C4008802A02D003E000207C
:1002900010BD20F00100002900DA0020184310BD35
:1002A00030B480EA010202F0004530F0004221F053
:1002B000004013D090B1C30DD40DC2F31601C0F3AA
:1002C0001600E41A41F4000140F400027D3491422A
:1002D00001D3641C00E04900002C02DA30BC00208D
:1002E00070474FF400000023914201D3891A034361
:1002F00040084FEA4101F7D151B1914202D14FF08C
:10030000004105E002D24FF0010101E06FF0010170
:1003100003EBC450284430BC00F094B8C10F80EA0D
:10032000E0700844CA079623002100F094B8962391
:100330000022114600F08FB800F0004220F000408B
:10034000C10DC0F3160040F400007F2901DA00203F
:100350007047962903DCC1F19601C84001E0963947
:100360008840002AF4D04042704720F00040C10D80
:10037000C0F3160040F400007F2901DA0020704726
:10038000962903DCC1F19601C84070479639884030
:10039000704700F0004230F000400AD0C10D01F576
:1003A0006071C0F3160042EA0151C20840071143D0
:1003B000704700200146704730B5041E71F10004FB
:1003C00004DB4FF00044404264EB0101141E73F162
:1003D000000405DB1C464FF00043524263EB04036C
:1003E0008B4208BF824230BD30B5041E71F100045B
:1003F00004DB4FF00044404264EB0101141E73F132
:10040000000405DB1C464FF00043524263EB04033B
:10041000994208BF904230BD30B50B4601460020DE
:100420002022012409E021FA02F59D4205D303FAB6
:1004300002F5491B04FA02F52844151EA2F1010237
:10044000F1DC30BD0029A8BF7047401C490008BF3F
:1004500020F00100704710B4B0FA80FC00FA0CF0F4
:1004600050EA010404BF10BC704749B1CCF120042C
:1004700021FA04F411FA0CF118BF012121430843B9
:10048000A3EB0C01CB1D4FEA00614FEA102042BFE5
:10049000002010BC704700EBC35010440029A4BFDB
:1004A00010BC7047401C490008BF20F0010010BC80
:1004B00070470000064C074D06E0E06840F001037D
:1004C00094E8070098471034AC42F6D3FFF734FEA7
:1004D00018FF030838FF030821B1826842F00102C7
:1004E000826003E0826822F0010282607047014668
:1004F00000208A6802F004020AB1012000E0002016
:1005000070470146C86C80B27047024600201368ED
:100510000B400BB1012000E0002070470146002095
:100520008A6802F008020AB1012000E0002070474A
:1005300030B502460020002350680F4C20400D7952
:100540000C6844EA05242043506090680B4C20401E
:10055000D1E902542C434D7944EA4504204390608C
:10056000D06A20F470000C7C641EE4B2234340EA9D
:100570000350D06230BD0000FFFEF0FFFDF7F1FF39
:10058000F0B504460D4600200021092D11DDE0687C
:10059000A5F10A0606EB4607072606FA07F1884387
:1005A000A5F10A0606EB460603FA06F10843E060E9
:1005B0000CE0206905EB4507072606FA07F188439A
:1005C00005EB450603FA06F108432061072A0FDA16
:1005D000606B561E06EB86071F2606FA07F1884356
:1005E000561E06EB860605FA06F10843606322E014
:1005F0000D2A0FDA206BD61F06EB86071F2606FA98
:1006000007F18843D61F06EB860605FA06F1084374
:10061000206310E0E06AA2F10D0606EB86071F26B4
:1006200006FA07F18843A2F10D0606EB860605FAE5
:1006300006F10843E062F0BD816841F00801816085
:10064000704721B1826842F4A002826003E08268B0
:1006500022F4A00282607047816841F00401816049
:100660007047000008B50121082000F001FE4FF49A
:100670008070ADF8000003208DF8020010208DF886
:1006800003006946044800F048F84FF480710248BE
:1006900000F0D7F808BD0000000C0140014601EB56
:1006A000C1024FF47A735A434FF0E0235A6100229B
:1006B0009A6101221A6100BF4FF0E022106900F038
:1006C00001021AB100F48032002AF5D000224FF066
:1006D000E0231A619A61704701464FF0E0221269E7
:1006E00022F004024FF0E0231A6101EBC1025A61CB
:1006F00000229A6101221A6100BF4FF0E0221069C6
:1007000000F001021AB100F48032002AF5D0002274
:100710004FF0E0231A619A6170472DE9F0410246DB
:1007200000250026002000230024002791F803C0A4
:100730000CF00F0591F803C00CF0100CBCF1000F89
:1007400003D091F802C04CEA050591F800C0BCF155
:10075000000F31D0146800202BE04FF0010C0CFA90
:1007600000F3B1F800C00CEA03069E4220D18300DA
:100770004FF00F0C0CFA03F7BC4305FA03FC4CEAEC
:10078000040491F803C0BCF1280F06D14FF0010C0E
:100790000CFA00FCC2F814C00AE091F803C0BCF1E6
:1007A000480F05D14FF0010C0CFA00FCC2F810C044
:1007B000401C0828D1D31460B1F800C0BCF1FF0F71
:1007C00034DD546800202EE000F1080C4FF00108E1
:1007D00008FA0CF3B1F800C00CEA03069E4221D1DE
:1007E00083004FF00F0C0CFA03F7BC4305FA03FC2F
:1007F0004CEA040491F803C0BCF1280F05D100F1C4
:10080000080C08FA0CF8C2F8148091F803C0BCF187
:10081000480F07D100F1080C4FF0010808FA0CF856
:10082000C2F81080401C0828CED35460BDE8F08187
:100830000246002093680B400BB1012000E000202D
:10084000704741617047016170472DE9F0470446E8
:100850000D4616461F46DDF820902A2000F04EF97E
:10086000200A00F045FAE0B200F042FA280A00F04F
:100870003FFAE8B200F03CFA2B2000F03FF9300AD2
:1008800000F036FAF0B200F033FA380A00F030FA2D
:10089000F8B200F02DFA2C2000F030F94FF00008EB
:1008A00004E0484600F024FA08F10108281B401C27
:1008B000B91B491C48434045F3D8BDE8F087000008
:1008C0002DE9FF5F8046894615469A46DDE90EB45C
:1008D000A5F12000C5B21B4800EB051110226846A7
:1008E000FFF742FC102000FB0490431E082000FB91
:1008F0000480421E4946404600F054FC2C2000F083
:10090000FDF8002719E0002612E097FBF4F01DF82F
:10091000000096FBF4F280211141084018B15046C6
:1009200000F0E6F902E0584600F0E2F9701CC6B2A9
:10093000E000B042E9DC781CC7B22001B842E2DC3A
:10094000BDE8FF9F68F403082DE9F04F89B0074622
:10095000884691469A46139C2022494601A8FFF7F3
:1009600003FC002526E095FBF4F0012101EB40009B
:1009700001A9095C95FBF4F001AA12F8100041EA04
:10098000002B002611E096FBF4F14FF400400841E3
:1009900000EA0B0038B105EB080291B2F21990B2EF
:1009A000524600F077F8701CC6B22001B042EADC73
:1009B000681CC5B22001A842D5DC09B0BDE8F08FA3
:1009C0002DE9FC470746884614469A46DDE90A9514
:1009D00056E0207820281BDB20787E2818DCE800F1
:1009E000C0F1EF00B84205DA0027102000FB0580B7
:1009F0001FFA80F8CDE900952278534641463846E3
:100A0000FFF75EFF082000FB057087B2641C37E02B
:100A10002078A12833DB2078FE2830DC2801C0F1C3
:100A2000EF00B84205DA0027102000FB05801FFA0E
:100A300080F800261AE02078144911F81610884230
:100A400013D16078012101EB4601104A515C8842C4
:100A50000BD10F48202101FB060253464146384680
:100A6000CDE90095FFF770FF02E0761C252EE2D35A
:100A700000BF102000FB057087B2A41C00E002E05C
:100A800020780028A5D100BFBDE8FC874C000020DD
:100A900068FA030870B504460D4616462A2000F091
:100AA0002DF8200A00F024F9E0B200F021F9200A24
:100AB00000F01EF9E0B200F01BF92B2000F01EF848
:100AC000280A00F015F9E8B200F012F9280A00F03F
:100AD0000FF9E8B200F00CF92C2000F00FF83046C6
:100AE00000F006F970BD10B5112000F007F878206D
:100AF000FFF7D4FD292000F001F810BD10B5044621
:100B00004FF480517748FFF79CFE01217548FFF7AD
:100B100098FE20217448FFF794FE04F0010028B1EC
:100B20004FF480417048FFF78EFE04E04FF480419F
:100B30006D48FFF786FE04F0020028B14FF4004133
:100B40006948FFF780FE04E04FF400416648FFF774
:100B500078FE04F0040020B101216348FFF773FE22
:100B600003E001216048FFF76CFE04F0080020B1AB
:100B700002215D48FFF767FE03E002215A48FFF7B4
:100B800060FE04F0100020B180215848FFF75BFEA2
:100B900003E080215548FFF754FE04F0200028B1FF
:100BA0004FF480715148FFF74EFE04E04FF480711E
:100BB0004E48FFF746FE04F0400028B14FF40071A4
:100BC0004A48FFF740FE04E04FF400714748FFF742
:100BD00038FE04F0800028B14FF480614348FFF7ED
:100BE00032FE04E04FF480614048FFF72AFE04F42F
:100BF000807028B14FF400613C48FFF724FE04E008
:100C00004FF400613948FFF71CFE04F4007028B16E
:100C10004FF480513548FFF716FE04E04FF4805141
:100C20003248FFF70EFE04F4806028B14FF4005103
:100C30002E48FFF708FE04E04FF400512B48FFF761
:100C400000FE04F4006028B14FF480412748FFF70C
:100C5000FAFD04E04FF480412448FFF7F2FD04F46C
:100C6000805028B14FF400412048FFF7ECFD04E02C
:100C70004FF400411D48FFF7E4FD04F4005028B193
:100C80004FF480711848FFF7DEFD04E04FF48071E7
:100C90001548FFF7D6FD04F4804028B14FF40071E9
:100CA0001148FFF7D0FD04E04FF400710E48FFF744
:100CB000C8FD04F4004028B14FF480610A48FFF7F2
:100CC000C2FD04E04FF480610748FFF7BAFD202120
:100CD0000548FFF7B8FD4FF480510248FFF7B3FD18
:100CE00010BD000000200140001401400018014028
:100CF00010B504464FF480517748FFF7A2FD01215B
:100D00007548FFF7A0FD20217448FFF79AFD04F015
:100D1000010028B14FF480417048FFF794FD04E0D2
:100D20004FF480416D48FFF78CFD04F0020028B1BC
:100D30004FF400416948FFF786FD04E04FF400419D
:100D40006648FFF77EFD04F0040020B101216348EE
:100D5000FFF779FD03E001216048FFF772FD04F021
:100D6000080020B102215D48FFF76DFD03E002217C
:100D70005A48FFF766FD04F0100020B18021584862
:100D8000FFF761FD03E080215548FFF75AFD04F0AD
:100D9000200028B14FF480715148FFF754FD04E062
:100DA0004FF480714E48FFF74CFD04F0400028B12D
:100DB0004FF400714A48FFF746FD04E04FF400711C
:100DC0004748FFF73EFD04F0800028B14FF48061F2
:100DD0004348FFF738FD04E04FF480614048FFF7D7
:100DE00030FD04F4807028B14FF400613C48FFF7F7
:100DF0002AFD04E04FF400613948FFF722FD04F4B6
:100E0000007028B14FF480513548FFF71CFD04E015
:100E10004FF480513248FFF714FD04F4806028B18C
:100E20004FF400512E48FFF70EFD04E04FF400513F
:100E30002B48FFF706FD04F4006028B14FF4804111
:100E40002748FFF700FD04E04FF480412448FFF7F6
:100E5000F8FC04F4805028B14FF400412048FFF71B
:100E6000F2FC04E04FF400411D48FFF7EAFC04F4F3
:100E7000005028B14FF480711848FFF7E4FC04E0FB
:100E80004FF480711548FFF7DCFC04F4804028B172
:100E90004FF400711148FFF7D6FC04E04FF40071E5
:100EA0000E48FFF7CEFC04F4004028B14FF48061F7
:100EB0000A48FFF7C8FC04E04FF480610748FFF7D9
:100EC000C0FC20210548FFF7BEFC4FF480510248CA
:100ED000FFF7B9FC10BD00000020014000140140E4
:100EE0000018014008B500F009F97820FFF7D6FB9B
:100EF000CF20FFF703FE0020FFF7FAFE8320FFF765
:100F0000F7FE3020FFF7F4FEED20FFF7F7FD642039
:100F1000FFF7EEFE0320FFF7EBFE1220FFF7E8FEDF
:100F20008120FFF7E5FEE820FFF7E8FD8520FFF7C9
:100F3000DFFE0120FFF7DCFE7920FFF7D9FECB2092
:100F4000FFF7DCFD3920FFF7D3FE2C20FFF7D0FEA2
:100F50000020FFF7CDFE3420FFF7CAFE0220FFF786
:100F6000C7FEF720FFF7CAFD2020FFF7C1FEEA20E9
:100F7000FFF7C4FD0020FFF7BBFE0020FFF7B8FE1F
:100F8000C020FFF7BBFD1D20FFF7B2FEC120FFF719
:100F9000B5FD1120FFF7ACFEC520FFF7AFFD3320F4
:100FA000FFF7A6FE3420FFF7A3FEC720FFF7A6FD3C
:100FB000BE20FFF79DFE3620FFF7A0FD0820FFF7BB
:100FC00097FEB120FFF79AFD0020FFF791FE1B204E
:100FD000FFF78EFEB620FFF791FD0A20FFF788FE8F
:100FE000A220FFF785FEF220FFF788FD0020FFF723
:100FF0007FFE2620FFF782FD0120FFF779FEE0202B
:10100000FFF77CFD0F20FFF773FE2320FFF770FE34
:101010001F20FFF76DFE0920FFF76AFE0F20FFF784
:1010200067FE0820FFF764FE4B20FFF761FEF22009
:10103000FFF75EFE3820FFF75BFE0920FFF758FE42
:101040001320FFF755FE0320FFF752FE1220FFF793
:101050004FFE0720FFF74CFE0420FFF749FEE1207A
:10106000FFF74CFD0020FFF743FE1D20FFF740FE79
:101070002020FFF73DFE0220FFF73AFE1120FFF788
:1010800037FE0720FFF734FE3420FFF731FE8120C2
:10109000FFF72EFE4620FFF72BFE0620FFF728FE67
:1010A0000E20FFF725FE0C20FFF722FE3220FFF76F
:1010B0001FFE3820FFF71CFE0F20FFF719FE3A2015
:1010C000FFF71CFD5520FFF713FE3620FFF716FD36
:1010D0000820FFF70DFEFFF706FD42F2447040F2D4
:1010E0003F130022EF2100901046FFF7AEFB0121D5
:1010F0000148FFF7A8FB08BD000C014008B501211D
:101100004FF4F47000F0B4F810208DF803004CF2A6
:101110000370ADF8000003208DF8020069461D48F9
:10112000FFF7FBFA4FF68070ADF8000069461A48E9
:10113000FFF7F3FA3020ADF8000069461548FFF7D5
:10114000ECFA30211348FFF77EFB4FF48050ADF8E6
:10115000000069461148FFF7E0FA4FF480510F484C
:10116000FFF771FB0120ADF8000069460B48FFF75F
:10117000D4FA01210948FFF766FB0120ADF8000011
:1011800069460748FFF7C9FA01210548FFF759FBEF
:1011900008BD00000014014000180140002001407B
:1011A000000C01402DE9F04104460D4616461F464D
:1011B0002A20FFF7A3FCC4F30720FFF799FDE0B254
:1011C000FFF796FDC6F30720FFF792FDF0B2FFF799
:1011D0008FFD2B20FFF792FCC5F30720FFF788FD5A
:1011E000E8B2FFF785FDC7F30720FFF781FDF8B2EE
:1011F000FFF77EFDBDE8F08108B501214C2000F02D
:1012000037F82020ADF8000003208DF802001020F0
:101210008DF8030069460D48FFF77FFA20210B483F
:10122000FFF711FB69460A48FFF777FA20210848C3
:10123000FFF709FB6020ADF8000069460548FFF79D
:101240006CFA60210348FFF7FEFA08BD000C01406C
:10125000001801400008014001460020034A506880
:1012600020F44040084350607047000000100240E6
:1012700029B1064A92690243044B9A6104E0034A89
:1012800092698243014B9A6170470000001002404E
:1012900010B500F001F810BD0CB5002001900090D1
:1012A0003348006840F480303149086000BF30485E
:1012B000006800F4003000900198401C01900098F4
:1012C00018B90198B0F5A06FF1D12948006800F471
:1012D000003010B10120009001E000200090009843
:1012E000012843D12348006840F0100021490860DC
:1012F0000846006820F0030008600846006840F0D7
:10130000020008601A484068194948600846406869
:1013100048600846406840F480604860084640687D
:1013200020F47C1048600846406840F4E8104860AB
:101330000846006840F08070086000BF0C480068F4
:1013400000F000700028F9D00948406820F0030040
:10135000074948600846406840F00200486000BF06
:101360000348406800F00C000828F9D10CBD0000CB
:1013700000100240002002402DE9F0470746884651
:1013800014461D46089E08EB0500431E3819421EF0
:1013900041463846FFF706FF2C20FFF7AFFB4FF022
:1013A000000A10E04FF0000909E07178327801EB93
:1013B000022188B2FFF79CFCB61C09F10109A14586
:1013C000F3D30AF1010AAA45ECD3BDE8F087000087
:1013D00010B51348006840F0010011490860084644
:1013E0004068104908400E494860084600680E49A8
:1013F00008400B4908600846006820F48020086017
:101400000846406820F4FE0048604FF41F008860E2
:10141000FFF73EFF4FF000600449086010BD000078
:10142000001002400000FFF8FFFFF6FE08ED00E0AC
:101430007FB5FE484FF4A073F022002100900846CB
:10144000FFF79AFFFA48A023F022194600900020E7
:10145000FFF792FF00204C233C228421009064205F
:10146000FFF7F3F9002415E0F24850F82420F2A128
:10147000F24801F005FD01200021CDE900106421B2
:1014800001EBC40188B24FF6FF73EC4A3C21FFF731
:1014900097FA641CEA4800688442E5DBBFE26846CC
:1014A00001F06EFCE7489DE82E002EC0E44800687D
:1014B000052801D1012000E00020E149096840EA47
:1014C000D17010B10020DE490860DE4800884FF678
:1014D000FF718842E2D0DB48008850282ADAD948D8
:1014E0000088002826DDD7484088C82822DAD54859
:1014F0004088A0281EDDD4480A231A46A021009067
:101500000020FFF739FF6420FFF7C8F8CF480A230F
:101510001A46A02100900020FFF72EFF0121C548A8
:10152000C74A126840F82210C5480068401CC449E8
:10153000086028E2C3480088A0282ADAC148008849
:10154000502826DDBF484088C82822DABD48408898
:10155000A0281EDDBC480A231A46A0210090502076
:10156000FFF70AFF6420FFF799F8B8480A231A46E4
:10157000A02100905020FFF7FFFE0220AD49B04AA5
:10158000126841F82200AE480068401CAC4908606F
:10159000F9E1AC480088F0282ADAAA480088A02897
:1015A00026DDA8484088C82822DAA6484088A02816
:1015B0001EDDA5480A231A46A02100900846FFF721
:1015C000DBFE6420FFF76AF8A0480A231A46A02130
:1015D00000900846FFF7D0FE03209649984A12680B
:1015E00041F8220096480068401C95490860CAE10D
:1015F0009448008850282ADA92480088002826DD7E
:1016000090484088F02822DA8E484088C8281EDD9D
:101610008D480A231A46C82100900020FFF7ACFE2F
:101620006420FFF73BF889480A231A46C821009036
:101630000020FFF7A1FE04207E49814A126841F88C
:1016400022007F480068401C7D4908609BE17D487E
:101650000088A0282ADA7B480088502826DD7948AF
:101660004088F02822DA77484088C8281EDD76486E
:101670000A231A46C82100905020FFF77DFE6420FF
:10168000FFF70CF871480A231A46C8210090502031
:10169000FFF772FE05216748694A126840F8221078
:1016A00067480068401C664908606CE1654800882E
:1016B000F0282ADA63480088A02826DD614840889F
:1016C000F02822DA5F484088C8281EDD5E480A23D9
:1016D0001A46C8210090A020FFF74EFE6420FEF7B6
:1016E000DDFF5A480A231A46C8210090A020FFF7C0
:1016F00043FE06214F48524A126840F822105048D3
:101700000068401C4E4908603DE14E480088502862
:101710002BDA4C480088002827DD4A484088B0F57D
:101720008C7F22DA47484088F0281EDD46480A238D
:101730001A46F02100900020FFF71EFE6420FEF7FD
:10174000ADFF42480A231A46F02100900020FFF71F
:1017500013FE072037493A4A126841F822003848F8
:101760000068401C364908600DE136480088A02812
:101770002BDA34480088502827DD32484088B0F5FD
:101780008C7F22DA2F484088F0281EDD2E480A235D
:101790001A46F02100905020FFF7EEFD6420FEF77E
:1017A0007DFF2A480A231A46F02100905020FFF7B7
:1017B000E3FD08201F49224A126841F82200204810
:1017C0000068401C1E490860DDE01E480088F028C3
:1017D0003EDA1C480088A0283ADD1A484088B0F557
:1017E0008C7F35DA17484088F02831DD16480A2307
:1017F0001A46F0210090A020FFF7BEFD6420FEF7FE
:101800004DFF12480A231A46F0210090A020FFF74E
:10181000B3FD092107480A4A126840F82210084817
:101820000068401C06490860ADE0000098470008C9
:10183000A09F0208140000202564000098000020EA
:1018400000000020AC000020B0F2030878F3030889
:101850007648008850282EDA7448008800282ADD4F
:1018600072484088B0F5A07F25DA70484088B0F50E
:101870008C7F20DD6E480A231A464FF48C7100904D
:101880000020FFF779FD6420FEF708FF69480A236E
:101890001A464FF48C7100900020FFF76DFD6648EA
:1018A0000068401E6449086000206449624A12686A
:1018B00041F8220067E05D480088A0282EDA5B48E6
:1018C000008850282ADD59484088B0F5A07F25DAE5
:1018D00056484088B0F58C7F20DD55480A231A46CB
:1018E0004FF48C7100905020FFF746FD6420FEF706
:1018F000D5FE50480A231A464FF48C7100905020B0
:10190000FFF73AFD00214D484B4A126840F822107B
:1019100049480068401C4849086034E04348008852
:10192000F02830DA41480088A0282CDD3F48408864
:10193000B0F5A07F27DA3D484088B0F58C7F22DDE6
:101940003B480A231A464FF48C710090A020FFF701
:1019500013FD6420FEF7A2FE36480A231A464FF410
:101960008C710090A020FFF707FD4FF48071344880
:10197000FEF769FF6420FEF791FE4FF48071304856
:10198000FEF75FFF4CE0002416E02C4850F82420BE
:10199000AFF25C112B4801F073FA01200021CDE970
:1019A0000010642101EBC40188B24FF6FF73254A91
:1019B0003C21FFF705F8641C1F4800688442E4DB03
:1019C00000204C233C22842100906420FEF73DFF40
:1019D000002420E0194850F8240000281ADB17489A
:1019E00050F82420AFF2B011164801F049FA012056
:1019F0000021CDE90010104909688422A2EBC10141
:101A0000082202FB041188B24FF6FF730D4A3C21F5
:101A1000FEF7D6FF641C084800688442DADB3EE526
:101A200000BF01200849087004B070BDAC00002060
:101A3000B0F2030878F3030800000020140000202F
:101A4000000C014098000020440000207FB5FE48B3
:101A50004FF4A073F022002100900846FFF78CFCA1
:101A6000FA48A023F022194600900020FFF784FCDA
:101A700000204C233C22842100906420FEF7E5FEE8
:101A8000002415E0F24850F82420F2A1F24801F0B9
:101A9000F7F901200021CDE90010642101EBC40118
:101AA00088B24FF6FF73EC4A3C21FEF789FF641CB5
:101AB000EA4800688442E5DBBFE2684601F060F96D
:101AC000E7489DE82E002EC0E4480068052801D1B3
:101AD000012000E00020E149096840EAD17010B11E
:101AE0000020DE490860DE4800884FF6FF7188421A
:101AF000E2D0DB48008850282ADAD948008800283C
:101B000026DDD7484088C82822DAD5484088A02852
:101B10001EDDD4480A231A46A02100900020FFF7BA
:101B20002BFC6420FEF7BAFDCF480A231A46A021F9
:101B300000900020FFF720FC0121C548C74A126829
:101B400040F82210C5480068401CC449086028E2DB
:101B5000C3480088A0282ADAC1480088502826DD1A
:101B6000BF484088C82822DABD484088A0281EDD2A
:101B7000BC480A231A46A02100905020FFF7FCFB26
:101B80006420FEF78BFDB8480A231A46A021009076
:101B90005020FFF7F1FB0220AD49B04A126841F82E
:101BA0002200AE480068401CAC490860F9E1AC482E
:101BB0000088F0282ADAAA480088A02826DDA8484C
:101BC0004088C82822DAA6484088A0281EDDA548FB
:101BD0000A231A46A02100900846FFF7CDFB642097
:101BE000FEF75CFDA0480A231A46A0210090084693
:101BF000FFF7C2FB03209649984A126841F8220079
:101C000096480068401C95490860CAE194480088DD
:101C100050282ADA92480088002826DD904840881B
:101C2000F02822DA8E484088C8281EDD8D480A2315
:101C30001A46C82100900020FFF79EFB6420FEF7A3
:101C40002DFD89480A231A46C82100900020FFF77D
:101C500093FB04207E49814A126841F822007F48A4
:101C60000068401C7D4908609BE17D480088A028F1
:101C70002ADA7B480088502826DD79484088F028F9
:101C800022DA77484088C8281EDD76480A231A469B
:101C9000C82100905020FFF76FFB6420FEF7FEFC88
:101CA00071480A231A46C82100905020FFF764FBB0
:101CB00005216748694A126840F8221067480068A1
:101CC000401C664908606CE165480088F0282ADA03
:101CD00063480088A02826DD61484088F02822DA81
:101CE0005F484088C8281EDD5E480A231A46C8217E
:101CF0000090A020FFF740FB6420FEF7CFFC5A487D
:101D00000A231A46C8210090A020FFF735FB0621C0
:101D10004F48524A126840F8221050480068401C50
:101D20004E4908603DE14E48008850282BDA4C4867
:101D30000088002827DD4A484088B0F58C7F22DAE9
:101D400047484088F0281EDD46480A231A46F021FD
:101D500000900020FFF710FB6420FEF79FFC424834
:101D60000A231A46F02100900020FFF705FB072008
:101D700037493A4A126841F8220038480068401C46
:101D8000364908600DE136480088A0282BDA34482F
:101D90000088502827DD32484088B0F58C7F22DA51
:101DA0002F484088F0281EDD2E480A231A46F021CD
:101DB00000905020FFF7E0FA6420FEF76FFC2A48FD
:101DC0000A231A46F02100905020FFF7D5FA082088
:101DD0001F49224A126841F8220020480068401C2E
:101DE0001E490860DDE01E480088F0283EDA1C48E5
:101DF0000088A0283ADD1A484088B0F58C7F35DA93
:101E000017484088F02831DD16480A231A46F02189
:101E10000090A020FFF7B0FA6420FEF73FFC1248C4
:101E20000A231A46F0210090A020FFF7A5FA092105
:101E300007480A4A126840F8221008480068401C07
:101E400006490860ADE0000098470008A09F02081E
:101E500024000020256400009800002004000020D9
:101E6000AC000020B0F2030878F30308764800883D
:101E700050282EDA7448008800282ADD72484088ED
:101E8000B0F5A07F25DA70484088B0F58C7F20DD62
:101E90006E480A231A464FF48C7100900020FFF719
:101EA0006BFA6420FEF7FAFB69480A231A464FF4DE
:101EB0008C7100900020FFF75FFA66480068401EB2
:101EC0006449086000206449624A126841F82200AF
:101ED00067E05D480088A0282EDA5B48008850281B
:101EE0002ADD59484088B0F5A07F25DA5648408859
:101EF000B0F58C7F20DD55480A231A464FF48C71CB
:101F000000905020FFF738FA6420FEF7C7FB5048D6
:101F10000A231A464FF48C7100905020FFF72CFAD8
:101F200000214D484B4A126840F822104948006889
:101F3000401C4849086034E043480088F02830DA03
:101F400041480088A0282CDD3F484088B0F5A07F9C
:101F500027DA3D484088B0F58C7F22DD3B480A23D4
:101F60001A464FF48C710090A020FFF705FA642008
:101F7000FEF794FB36480A231A464FF48C71009002
:101F8000A020FFF7F9F94FF480713448FEF75BFCAD
:101F90006420FEF783FB4FF480713048FEF751FC5C
:101FA0004CE0002416E02C4850F82420AFF25C11DD
:101FB0002B4800F065FF01200021CDE900106421CD
:101FC00001EBC40188B24FF6FF73254A3C21FEF7AE
:101FD000F7FC641C1F4800688442E4DB00204C23AB
:101FE0003C22842100906420FEF72FFC002420E096
:101FF000194850F8240000281ADB174850F824200C
:10200000AFF2B011164800F03BFF01200021CDE9EE
:102010000010104909688422A2EBC101082202FBCA
:10202000041188B24FF6FF730D4A3C21FEF7C8FC3D
:10203000641C084800688442DADB3EE500BF0120EA
:102040000849087004B070BDAC000020B0F203086D
:1020500078F303080400002024000020000C014055
:1020600098000020440000201FB58C480068401CE8
:102070008A4908608A484FF4A073F022002100903A
:102080000846FFF779F9012000214FF6FF7385A27A
:10209000CDE900103C211E20FEF792FC012000211A
:1020A0004FF6FF7382A2CDE9001078211E20FEF7C3
:1020B00087FC022000214FF6FF7380A2CDE90010BB
:1020C0004FF48771A020FEF77BFC7448006801285C
:1020D00021D17C487CA102687C4800F0D1FE01201F
:1020E00000214FF6FF73794ACDE900103C2178209A
:1020F000FEF766FC764874A10268744800F0C0FEE2
:10210000012000214FF6FF73704ACDE900107821BD
:102110000846FEF755FC61480068022810D16C485B
:1021200069A10268694800F0ABFE012000214FF66A
:10213000FF73664ACDE9001078210846FEF740FC9F
:102140000020644908601DE05E486249096850F853
:1021500021205DA15D4800F093FE01200021CDE922
:1021600000105C490988782202EBC10188B24FF661
:10217000FF73564A3C21FEF723FC56480068401C7A
:102180005449086053480068534909688842DBDBBA
:102190000020504908601DE04D484E49096850F83C
:1021A000212049A1494800F06BFE01200021CDE922
:1021B000001048490988782202EBC10188B24FF625
:1021C000FF73424A7821FEF7FBFB42480068401C3F
:1021D000404908603F480068404909688842DBDBA5
:1021E00055E0684600F0CCFD3D489DE81E001EC04D
:1021F000103800884FF6FF71884248D03848008870
:10220000E6281BDA36480088A02817DD34484088C5
:10221000B0F5967F12DA32484088B0F5827F0DDD46
:102220004FF480712F48FEF70EFB6420FEF736FA5C
:102230004FF480712B48FEF704FB29E02848008802
:10224000982810DA2648008878280CDD2448408831
:102250004C2808DA224840883C2804DD0220224924
:10226000087004B010BD1E48008898280FDA1C487A
:10227000008878280BDD1A484088882807DA184833
:102280004088782803DD032017490870E9E7A8E7AC
:1022900000BF002014490870E3E700003800002068
:1022A00098470008D1CCCEEDC5A8B6C80000000004
:1022B000BBF0D1E6BEE0C0EB00000000B7B5BBD874
:1022C0000000000014000020256400009800002099
:1022D0002400002034000020000000200400002022
:1022E000AC000020000C0140440000201FB59F48B6
:1022F0004FF4A073F022002100900846FFF73CF84D
:10230000012000214FF6FF7399A2CDE9001014219E
:102310003720FEF755FB012000214FF6FF7399A2ED
:10232000CDE9001029213720FEF74AFB01200021CA
:102330004FF6FF7397A2CDE900103E216720FEF70C
:102340003FFB012000214FF6FF7394A2CDE900105E
:1023500053216720FEF734FB012000214FF6FF7365
:1023600090A2CDE9001068216720FEF729FB02202A
:1023700000214FF6FF738DA2CDE900104FF4877155
:10238000A020FEF71DFB012000214FF6FF7389A25C
:10239000CDE90010AA213720FEF712FB0120002111
:1023A0004FF6FF7386A2CDE90010BF213720FEF75C
:1023B00007FBDAE0684600F0E3FC84489DE81E0075
:1023C0001EC0103800884FF6FF71884223D07F4826
:1023D0000088E6281FDA7D480088A0281BDD7B489E
:1023E0004088B0F5967F16DA78484088B0F5827F4D
:1023F00011DD4FF480717648FEF725FA6420FEF770
:102400004DF94FF480717248FEF71BFA01207149B3
:10241000087004B010BD00F023FF6F490860084643
:102420006EA102686E4800F02BFD01204FF6FF718F
:102430004FF478436A4ACDE90010AA218920FEF7BB
:10244000BFFA6848C0686749896801EB810100EB01
:1024500041006449496801EBC10202EB011100EB44
:1024600081006049096801EB4102C2EBC11100EB38
:10247000C10059490968884211DA4FF48071544803
:10248000FEF7E1F920215848FEF7DBF957483223DF
:102490001A46FA2100901E20FEF76EFF10E04FF45E
:1024A00080714B48FEF7CDF920214F48FEF7CBF95C
:1024B0004F4832231A46FA2100901E20FEF75CFF97
:1024C00000F0E6FE4B490860084644A10268444813
:1024D00000F0D6FC01204FF6FF714FF47843404ADC
:1024E000CDE90010BF218920FEF76AFA4248C06892
:1024F0004149896801EB810100EB41003E4949688F
:1025000001EBC10202EB011100EB81003A490968BD
:1025100001EB4102C2EBC11100EBC1003549096872
:10252000884211DB4FF480712948FEF78CF9202195
:102530002748FEF786F92D4832231A46FA210090E3
:102540001E20FEF719FF10E04FF480712048FEF7BF
:1025500078F920211E48FEF776F9254832231A46DD
:10256000FA2100901E20FEF707FF23E79847000896
:10257000B0E0BCB6A3BAA2D9A2DEB5E7C6F8B1BE38
:10258000D2BB0000B0CBD7E9A3BAD5D4B9FAB3D047
:1025900000000000D5D4C5F4B7C90000D5C5BAE91C
:1025A000B4EF0000CDF5B7EFD2E30000C9E8D6C321
:1025B00000000000D1CCCEEDC5A8B6C8A3BA00007B
:1025C000BBF0D1E6BEE0C0EBA3BA0000AC00002037
:1025D000000C0140440000203C0000202534640031
:1025E00098000020140000200018014028DF030894
:1025F000A0CB030840000020240000202DE9F0417A
:1026000005460E4617463A4631462846FEF742FA38
:10261000012419E0291B88B23A463146FEF73AFAFE
:10262000301B81B23A462846FEF734FA291988B29F
:102630003A463146FEF72EFA301981B23A4628461C
:10264000FEF728FA601CC4B20A2CE3DBBDE8F08177
:102650002DE9F04194B000BF4FF4784214210846B0
:10266000FFF7CCFF00BF4FF48061D148FEF7E0F8E0
:102670000028F8D10A20FEF711F8684600F01AFA8F
:102680009DE80F0004AC0FC400BF4FF48061C84840
:10269000FEF7CEF80028F8D042F244721421084622
:1026A000FFF7ACFF4FF478421421DC20FFF7A6FFC0
:1026B00000BF4FF48061BE48FEF7BAF80028F8D199
:1026C0000A20FDF7EBFF684600F0F4F99DE80F00E3
:1026D00008AC0FC400BF4FF48061B548FEF7A8F8FE
:1026E0000028F8D042F244721421DC20FFF786FF64
:1026F0004FF478424FF496711420FFF77FFF00BF2C
:102700004FF48061AA48FEF793F80028F8D10A2018
:10271000FDF7C4FF684600F0CDF99DE80F000CAC52
:102720000FC400BF4FF48061A148FEF781F8002874
:10273000F8D042F244724FF496711420FFF75EFF16
:102740004FF478424FF49671DC20FFF757FF00BF3B
:102750004FF480619648FEF76BF80028F8D10A2004
:10276000FDF79CFF684600F0A5F99DE80F0010AC4E
:102770000FC400BF4FF480618D48FEF759F8002860
:10278000F8D042F244724FF49671DC20FFF736FF26
:10279000BDF82010BDF81020891A4943BDF8222049
:1027A000BDF81230D31ABDF81240121B03FB021001
:1027B000FDF7B4FD0646BDF84010BDF83020891A7B
:1027C000494304AA538EBDF832209B1A04AA548EA2
:1027D000BDF83220A21A03FB0210FDF79FFD074649
:1027E00039463046FDF75CFD8046FDF7D2FD0446D4
:1027F000704A714BFDF7F8FD0CD339463046FDF7B2
:102800004FFD8046FDF7C5FD04466C4A6C4BFDF755
:10281000D3FD00D220E7BDF83010BDF810208A1A91
:102820005243BDF83210BDF81230CB1ABDF8124039
:10283000091B03FB0120FDF771FD0646BDF84010A2
:10284000BDF820208A1A524304A94B8EBDF82210ED
:102850005B1A04A94C8EBDF82210611A03FB0120FB
:10286000FDF75CFD074639463046FDF719FD804609
:10287000FDF78FFD04464F4A4F4BFDF7B5FD0CD3D6
:1028800039463046FDF70CFD8046FDF782FD0446D3
:102890004A4A4B4BFDF790FD00D2DDE6BDF84010F3
:1028A000BDF81020891A494304AA528EBDF812308F
:1028B000D31A04AA528EBDF81240121B03FB021059
:1028C000FDF72CFD0646BDF83010BDF82020891A12
:1028D0004943BDF83230BDF822209B1ABDF8324082
:1028E000A21A03FB0210FDF719FD074639463046D0
:1028F000FDF7D6FC8046FDF74CFD04462D4A2E4BD5
:10290000FDF772FD0CD339463046FDF7C9FC804611
:10291000FDF73FFD0446294A294BFDF74DFD00D246
:102920009AE6BDF84010BDF81020881AFDF7F6FCB5
:10293000044621462348FDF7B3FC23494860BDF80F
:102940001000FDF7F4FC80461F4841684046FDF743
:1029500075FC05461D49FDF76EFC0446FDF7ECFCD1
:1029600000B21949888104A9498EBDF81220881A3D
:10297000FDF7D4FC044621461548FDF791FC1249A9
:102980008860BDF81200FDF7D2FC80460E488168D1
:102990004046FDF753FC05460C49FDF74CFC044648
:1029A000FDF7CAFC00B20849C88114B0BDE8F08147
:1029B000001C01409A9999999999F13FCDCCCCCCC2
:1029C000CCCCEC3F00004843BC0000200000A041FC
:1029D00000008C4370B50546002604213348FDF7FE
:1029E00030FF00241FE002213048FDF72AFF05F0E8
:1029F000800028B14FF400712D48FDF724FF04E05A
:102A00004FF400712A48FDF71CFF0120FDF764FE1A
:102A100002212648FDF717FF0120FDF75DFE68063D
:102A2000050E601CC4B2082CDDDB02211F48FDF737
:102A300008FF0120FDF750FE02211C48FDF703FFAF
:102A40000120FDF749FE02211848FDF7FAFE002497
:102A50001BE04FF6FF7000EA460602211348FDF71F
:102A6000F0FE0120FDF738FE02211048FDF7EBFED5
:102A70004FF480710E48FDF7DBFE08B146F0010609
:102A80000120FDF729FE601CC4B20C2CE1DB022101
:102A90000648FDF7D6FE04210448FDF7D4FE4FF4A6
:102AA00000710348FDF7CDFE304670BD000C0140BB
:102AB000001C0140F0B589B00746002406E0D02094
:102AC000FFF788FF2DF81400601CC4B20A2CF6DB57
:102AD000002416E0601CC6B20FE03DF814003DF87B
:102AE0001610884207DA3DF814503DF816002DF80C
:102AF00014002DF81650701CC6B2092EEDDB601CB8
:102B0000C4B20A2CE6DB0025012405E03DF81400E0
:102B1000284485B2601CC4B2092CF7DB2846E917AB
:102B200005EB5171C1F3CF01ADF81410002406E09C
:102B30009020FFF74FFF2DF81400601CC4B20A2C40
:102B4000F6DB002416E0601CC6B20FE03DF814006E
:102B50003DF81610884207DA3DF814503DF816008B
:102B60002DF814002DF81650701CC6B2092EEDDB9E
:102B7000601CC4B20A2CE6DB0025012405E03DF808
:102B80001400284485B2601CC4B2092CF7DB284627
:102B9000E91705EB5171C1F3CF01ADF8161005A887
:102BA0000FC887E80F0009B0F0BD000008B501218B
:102BB0008820FEF75DFB10208DF8030003208DF8C0
:102BC00002000620ADF8000069460B48FDF7A5FDA0
:102BD0004FF40070ADF8000069460848FDF79DFD10
:102BE0004FF4A060ADF8000004208DF803006946A2
:102BF0000248FDF792FD08BD000C0140001C014099
:102C000010B5FFF7D3FFFFF723FD10BD2DE9F0410D
:102C10008CB004466846FFF74DFF9DE80F0008ADF5
:102C20000FC55649B1F90C00FDF778FB0746BDF812
:102C30002000FDF77CFB8046504841684046FDF788
:102C4000FDFA06463946FDF7A1FA0546FDF78DFB6C
:102C500080B2ADF820004949B1F90E00FDF75EFBE6
:102C60000746BDF82200FDF762FB804643488168B5
:102C70004046FDF7E3FA06463946FDF787FA054672
:102C8000FDF773FB80B2ADF822006846FFF712FF34
:102C90009DE80F00CDE90623CDE904013749B1F9DC
:102CA0000C00FDF73BFB0746BDF81000FDF73FFBAE
:102CB0008046324841684046FDF7C0FA064639462C
:102CC000FDF764FA0546FDF750FB80B2ADF8100041
:102CD0002A49B1F90E00FDF721FB0746BDF81200A5
:102CE000FDF725FB8046254881684046FDF7A6FA9A
:102CF00006463946FDF74AFA0546FDF736FB80B22F
:102D0000ADF81200BDF82020BDF81030D11A00290E
:102D100001DB0A4600E04A42052A22DABDF82220F9
:102D2000BDF81230D01A002801DB024600E0424212
:102D3000052A16DABDF82010BDF81020881800EB1F
:102D4000D071C1F34F01ADF82010BDF82210BDF8CD
:102D50001220881800EBD071C1F34F01ADF822109A
:102D600005E04FF6FF70ADF82000ADF8220008A88E
:102D70000FC884E80F000CB0BDE8F081BC00002053
:102D800010B590B004463B4BD3E901021968DB68EB
:102D9000CDE90623CDE904103748007801285AD13F
:102DA00081023648FDF744FD002854D10520FDF787
:102DB00075FC4FF480613148FDF73AFD002853D18E
:102DC0006846FFF723FF9DE80F00CDE90A23CDE910
:102DD00008016846FFF71AFF9DE80F00CDE90E23B2
:102DE000CDE90C01BDF82020BDF83030D11A002902
:102DF00001DB0A4600E04A42052A25DABDF8223006
:102E0000BDF83220981A002801DB024600E0424259
:102E1000052A19DABDF82010BDF83020881800EB1B
:102E2000D071C1F34F01ADF81010BDF82220BDF8EC
:102E30003210501800EBD071C1F34F01ADF81210F1
:102E400000200D4908700FE04FF6FF70ADF820002C
:102E5000ADF8220008E04FF480610848FDF7E8FC77
:102E600010B101200449087004A80FC884E80F00BD
:102E700010B010BD08FF030897000020001C01409F
:102E80000FB4084B10B504A902AA039800F01CF86F
:102E9000044602A9002000F0B8F9204610BC5DF8F5
:102EA00014FB00000B32000802E008C8121F08C122
:102EB000002AFAD170477047002001E001C1121FBB
:102EC000002AFBD1704700002DE9FF4F8BB08846E8
:102ED0000546002606E025280BD0DDE90D129047B7
:102EE0006D1C761C28780028F5D10FB03046BDE85F
:102EF000F08F0024A146A2460122AE4900E004431F
:102F000015F8013F203B02FA03F00842F7D1287878
:102F10002A2810D06FF02F022878A0F1300109295B
:102F200015D809EB890102EB410144F0020400EBE2
:102F300001096D1CF0E758F8041B5FEA010903D58D
:102F400044F40054C9F1000944F002046D1C2878CF
:102F50002E2817D115F8010F44F004042A280ED0AA
:102F60006FF02F022878A0F1300109290AD80AEB66
:102F70008A0102EB410100EB010A6D1CF2E758F8EF
:102F800004AB6D1C28786C280FD006DC4C2817D0B9
:102F900068280DD06A2814D104E0742810D07A284B
:102FA0000FD10DE044F400140AE044F4801401E071
:102FB00044F440146978814202D104F580146D1CF8
:102FC0006D1C2878692865D006DC00288DD0632820
:102FD00027D0642806D15DE06E2808D073282AD057
:102FE000752877D0DDE90D129047761CE0E0C4F338
:102FF0000250022809D003280DD0D8F80010042868
:103000000DD00E6008F10408D2E0D8F80010F217D5
:10301000C1E90062F6E7D8F800100E80F2E70E7002
:10302000F0E718F8041B8DF8001000208DF801005F
:10303000EB46012003E058F804BB4FF0FF30610776
:103040004FF0000701D40AE07F1C57450DDA874294
:10305000FADB1BF807100029F6D106E07F1C874237
:10306000FCDB1BF807100029F8D1DDE90D23A9EBE3
:1030700007008146214600F0B1F83044C61904E04B
:10308000DDE90D121BF8010B90477F1EF8D2214697
:10309000484688E058F8040BC4F302514FF00A0B7D
:1030A000032900D100B2042900D140B2002802DA7D
:1030B00040422D2102E0210505D52B218DF8241059
:1030C000012104E006E0E10710D02021F6E708AF77
:1030D000089113E058F8040BC4F302514FF00A0BA7
:1030E000032900D180B2042900D1C0B20021EEE74B
:1030F0005946FDF791F9303107F8011D0028F7D145
:10310000ADEB070000F1200B600702D524F48034FA
:1031100001E04FF0010ADA4502DDAAEB0B0000E006
:103120000020824600EB0B0108980144A9EB010046
:103130000A90E00306D4DDE90D2321460A9800F049
:103140004DF806444FF0000908E009A911F80900FC
:10315000DDE90D12904709F10109761C08998945AE
:10316000F3DBE0030CD5DDE90D2321460A9800F0DE
:1031700035F8064404E0DDE90D1230209047761C56
:10318000BAF10001AAF1010AF5DC05E0DDE90D1252
:1031900017F8010B9047761CBBF10001ABF1010B56
:1031A000F4DC0A982146DDE90D2300F005F8064419
:1031B0006D1C97E6092801002DE9F0410446002521
:1031C0001E461746880404D405E039462020B0473F
:1031D0006D1C641EF9D52846BDE8F0812DE9F0414B
:1031E000044600251E469046C80301D5302700E05E
:1031F0002027880404D505E041463846B0476D1CB9
:10320000641EF9D52846BDE8F0810A68531C0B609E
:1032100010707047FDF7F0FFFDF724FAFDF762FE2E
:10322000FFF7EEFC00F04CF816E00C48007808B907
:10323000FFF75CF809480078012801D1FEF714FF78
:1032400006480078022801D1FEF7F2F8034800781A
:10325000032801D1FEF7FAFBE7E700004400002055
:1032600010B50723012204210848FDF789F901213F
:103270000648FDF7E6F900BF02210448FDF745F9CD
:103280000028F9D00148FDF73CF910BD00240140A9
:1032900010B50723012203210848FDF771F9012128
:1032A0000648FDF7CEF900BF02210448FDF72DF9CD
:1032B0000028F9D00148FDF724F910BD0024014091
:1032C00000B587B001214FF40170FDF7D1FF002058
:1032D0008DF81B001820ADF8180006A91848FDF756
:1032E0001CFA4FF40040FDF7B7FF00208DF80900ED
:1032F00004904FF4602003900020019001208DF88D
:10330000140000208DF8080001A90E48FDF710F9FF
:1033100001210C48FDF7E0F80A48FDF78DF900BFE0
:103320000848FDF7FBF80028FAD10648FDF794F9A4
:1033300000BF0448FDF7DBF80028FAD107B000BD54
:103340000008014000240140F7FED656DE54DE514D
:10335000DE52DE52DE52DE52DE52DE52DE52DE52ED
:10336000DE52DE52DE52DE52DE52DE52DE52DE52DD
:10337000DE52DE52DE52DE52DE52DE52DE52DE52CD
:10338000DE52DE52DE52DE52DE52DE52DE52DE52BD
:10339000DE52DE52DE52DE52DE52DE52DE52DE52AD
:1033A000DE52D652DE52DE53D676FFDFCE34FEEF4B
:1033B000FECBFEECFECCFECCFECCFECCFECCFECC9E
:1033C000FECCFECCFECCFECCFECCFECCFECCFECCAD
:1033D000FECCFECCFECCFECCFECCFECCFECCFECC9D
:1033E000FECCFECCFECCFECCFECCFECCFECCFECC8D
:1033F000FECCFECCFECCFECCFECCFECCFECCFECC7D
:10340000FECCFECCFECCFECCFECCFECDF6EFD654F0
:10341000CDCEFECAFE88FE88FE89FE89FE89FE8822
:10342000FE89FE89FE89FE89FE89FE89FE89FE8964
:10343000FE88FE88FE88FE88FE89FE89FE89FE8958
:10344000FE89FE89FE89FE89FE89FE89FE88FE8846
:10345000FE88FE88FE89FE89FE89FE89FE89FE8936
:10346000FE89FE89FE89FE89FE88FE88FE88FEA907
:10347000FECACE0FCDCBFE89FE68FE66FE66FE66F6
:10348000FE66FE66FE66FE66FE66FE66FE66FE661C
:10349000FE66FE66FE66FE66FE66FE66FE66FE660C
:1034A000FE66FE66FE66FE66FE66FE66FE66FE66FC
:1034B000FE66FE66FE66FE66FE66FE66FE66FE66EC
:1034C000FE66FE66FE66FE66FE66FE66FE66FE66DC
:1034D000FE86FE66FEA7CDCDCD8BFE87FE45FE4463
:1034E000FE44FE44FE44FE45FE44FE44FE44FE44CB
:1034F000FE44FE44FE44FE44FE44FE44FE44FE44BC
:10350000FE44FE44FE44FE44FE44FE44FE44FE44AB
:10351000FE44FE44FE44FE44FE44FE44FE44FE449B
:10352000FE44FE44FE44FE44FE44FE44FE44FE448B
:10353000FE44FE45FE64FE45FE66CDACC58AFE65D2
:10354000FE23FE22FE23FE23FE23FE23FE23FE2374
:10355000FE23FE23FE23FE23FE23FE23FE23FE2363
:10356000FE23FE23FE23FE23FE23FE23FE23FE2353
:10357000FE23FE23FE23FE23FE23FE23FE23FE2343
:10358000FE23FE23FE23FE23FE23FE23FE23FE2333
:10359000FE23FE23FE23FE23FE23FE23FE45C58BD2
:1035A000C54AF644FE03FDE2FE02FE02FE01FE02F3
:1035B000FDE1FDE1FDE1FDE1FDE1FDE1FDE1FDE11B
:1035C000FDE1FDE1FDE1FDE1FDE1FDE1FDE1FDE10B
:1035D000FDE1FDE1FDE1FDE1FDE1FDE1FDE1FDE1FB
:1035E000FDE1FE02FDE1FDE1FDE1FDE1FDE1FDE1C9
:1035F000FDE1FDE1FDE1FDE1FE01FE01FDE2FE0276
:10360000FE44C54AC529F623FDC1FDC1FDC0FDC06C
:10361000FDC0FDC0FDC0FDC0FDC0FDC0FDC0FDC0C2
:10362000FDC0F5E0F5C0F5C0F5E0F5C1F5C1FDC19F
:10363000FDC1F5C37A807260F5C2FDC0F5E0F5C04A
:10364000FDC1F5C1F5C0F5C1FDC1FDC1FDC1FDC0A4
:10365000FDC0FDC0FDC0FDC0FDC0FDC0F5C0F5C092
:10366000FDC1F5E1FE22BD29BD28F5E3F5C0FDA0B1
:10367000F5A0FDA0F5A0F5A0F5A0F5A0F5A0F5A09A
:10368000F5A0F5A0F5A0F5A0FDA0F5A0F5A0F5A08A
:10369000F5A0F5C0F5C0F5A4AC24AC45F5A2FDA09D
:1036A000F5A0FDA0F5A0F5A0F5C0F5C0F5A0F5A02A
:1036B000F5A0F5A0F5A0F5A0F5A0F5A0F5A0F5A062
:1036C000F5A0F5A0F5A0F5A0F602BD08BD07F5C26E
:1036D000F580F560F580F560F580F580F580F58082
:1036E000F580F580F580F580F580F560F580F58052
:1036F000F580F580F580F580F5A0E584AC03AC2578
:10370000ED81F580F580F560F560F580F580F58058
:10371000F580F580F580F580F580F580F580F58001
:10372000F580F580F580F580F580F580F5C1BD0860
:10373000BCE7F5A2F560F540F560F540F560F56091
:10374000F560F560F540F560F560F560F560F560F1
:10375000ED60ED60F540F560F540F540F540E5645D
:10376000A4039C04ED42F540F560ED60F560F56062
:10377000F540F540F560F560F560F540F560F54021
:10378000F560F560F560F560F560F560F540F560B1
:10379000F5A1BCE8B4C7ED82ED40F520ED40F52081
:1037A000F540ED40ED40ED40ED40ED40ED40ED40A9
:1037B000F540F520ED40F520F520ED41ED21ED41FE
:1037C000ED41DD25A3C2A3C4E523ED41ED22ED418A
:1037D000ED41ED20ED40F540ED40ED40F540F520A8
:1037E000ED40ED40ED40ED40ED40ED40ED40ED4071
:1037F000F520ED40F5A1B4C8B487ED62ED20ED00F1
:10380000ED00ED00ED00ED00ED00ED00ED00ED0050
:10381000ED00ED00ED00ED00ED20ED00E501724062
:1038200061A061A061A0620093A393837A8059A0F4
:1038300061C061A07A20E502ED20F520ED00ED20C9
:10384000ED00ED00ED00ED00ED00ED00ED00ED0010
:10385000ED00ED00ED00ED20ED61B4A7B467ED6281
:10386000ED00ED00ED00ECE0ECE0ECE0ECE0ECE095
:10387000ECE0ECE0ECE0ECE0ECE0E500ED00ECE0AE
:10388000DCA28B63936393629362936293639B4224
:103890009B82936293439B439B42D4C3E500ECE03D
:1038A000ECE0ED00ECE0ECE0ECE0ECE0ECE0ECE097
:1038B000ECE0ECE0ECE0ECE0ECE0ED00ED61B48796
:1038C000AC66ED42E4E0ECE0ECE0ECE0ECE0ECE0F7
:1038D000ECE0ECE0ECE0ECE0ECE0ECE0ECE0ECE088
:1038E000ECE0ECE0E4E2B403B403B403B404AC24CD
:1038F00093439322B403B404B404B403B402DD02CA
:10390000E4E0ECE0ECE0ECE0ECE0ECE0ECE0ECE05F
:10391000ECE0ECE0ECE0ECE0ECE0ECE0ECE0E4E04F
:10392000ED41AC67AC66ED22E4E0ECC0ECC0ECC06D
:10393000ECC0ECC0ECC0ECC0ECC0ECC0ECC0ECC027
:10394000ECC0ECC0ECC0E4C0E4C0E4C1E4C1E4E21B
:10395000E4C2D4C58AE18B01DCC3E4C2E4C1DCC2A9
:10396000E4C1E4C0ECE0ECC0ECC0ECC0ECC0ECC0E6
:10397000ECC0ECC0ECC0ECC0ECC0ECC0ECC0ECC0E7
:10398000ECC0E4E0ED41AC47AC46ED22E4C0ECC055
:10399000ECC0ECC0ECC0ECC0ECC0ECC0ECC0ECC0C7
:1039A000ECC0ECC0ECC0ECC0ECC0ECC0ECC0ECC0B7
:1039B000ECC0ECC0ECC0DCC48AC082E0E4C1ECC066
:1039C000ECC0E4E0E4C0E4C0ECC0ECC0ECC0ECC08F
:1039D000ECC0ECC0ECC0ECC0ECC0ECC0ECC0ECC087
:1039E000ECC0ECC0ECC0E4C0ED21AC47AC26ED224D
:1039F000ECE0ECC0ECC0ECC0ECC0ECC0ECC0ECC047
:103A0000ECC0ECC0ECC0ECC0ECC0ECC0ECC0ECC056
:103A1000ECC0ECC0ECC0ECC0ECC0DCC482A082C145
:103A2000DCE1E4C0ECA0ECA0ECC0ECC0ECC0ECC06D
:103A3000ECC0ECC0ECC0ECC0ECC0ECC0ECC0ECC026
:103A4000ECC0ECC0ECC0ECC0ECC0ECC0ED41A42676
:103A5000A426ED42ECE0ECC0ECC0ECC0ECC0ECC045
:103A6000ECC0ECC0ECC0ECC0ECC0ECC0ECC0ECC0F6
:103A7000ECC0ECC0ECC0ECC0ECC0ECC0ECC0DCE4D2
:103A800082A082A1E4E1ECC0ECC0ECC0ECC0ECC0D0
:103A9000ECC0ECC0ECC0ECC0ECC0ECC0ECC0ECC0C6
:103AA000ECC0ECC0ECC0ECC0ECC0ECC0ECC0ECE096
:103AB000ED41A426A426ED42ED00ECE0ECE0ECE0C4
:103AC000ECE0ECE0ECE0ECE0ECE0ECE0ECE0ECE096
:103AD000ECE0ECC0ECC0ECC0ECE0ECE0ECE0ECE0E6
:103AE000ECE0E4E2ABA2ABC2E4E1ECE0ECE0ECE061
:103AF000ECE0ECE0ECE0ECE0ECE0ECE0ECE0ECE066
:103B0000ECE0ECE0ECE0ECE0ECE0ECE0ECE0ECE055
:103B1000ECE0ECE0ED41A426A426F562ED00ED001A
:103B2000ED00ED00ED00F500ED00ED00ED00ED0025
:103B3000ED00ED00ED00ED00ED00ED00ED00ED001D
:103B4000ED00ED00ED00ECE0ED01ED01ED00ED002C
:103B5000ED00F4E0ED00ED00ED00ED00ED00ED0016
:103B6000ED00ED00ED00ED00ED00ED00ED00ED00ED
:103B7000ED00ED00F500ED00F562A426A426F58326
:103B8000F541F521F521F521F521F521F521F52165
:103B9000F521F521F521F521F521ED41ED21F52165
:103BA000F521F521F521F521F521F521ED21F5216D
:103BB000F521F520ED41F521F521F521F521F5213E
:103BC000F521F521F521F521F521F521F521F52145
:103BD000F521F521F521F521F521F541F582A42600
:103BE000A407F5A4F562F542F542F542F542F54227
:103BF000F542F542F542F542F542F542F542F5420D
:103C0000F542F542F542F542F542F542F542F542FC
:103C1000F542F542F542F542F542F542F542F542EC
:103C2000F542F542F542F542F542F542F542F542DC
:103C3000F542F542F542F542F542F542F542F562AC
:103C4000F5A3A426A407F5C4F582F582F562F56212
:103C5000F562F582F582F582F582F582F582F582CC
:103C6000F582F582F582F582F582F582F582F5829C
:103C7000F582F582F582F582F582F582F582F5828C
:103C8000F582F582F582F582F582F582F582F5827C
:103C9000F582F582F582F582F582F582F582F5628C
:103CA000FD62F582F5C3A426A427F604F5C2FDC281
:103CB000FDC2FDC2FDC2F5C2FDC2FDC2FDC2FDC214
:103CC000FDC2FDC2FDC2FDC2FDC2FDC2FDC2FDC2FC
:103CD000FDC2FDC2FDC2FDC2FDC2FDC2FDC2FDC2EC
:103CE000FDC2FDC2FDC2FDC2FDC2FDC2FDC2FDC2DC
:103CF000FDC2FDC2FDC2FDC2FDC2FDC2FDC2FDC2CC
:103D0000FDC2FDC2FDC2F5C2FE03A426A447FE65A6
:103D1000FE63FE63FE63FE63FE43FE63FE43FE43FB
:103D2000FE43FE43FE43FE43FE43FE43FE43FE438B
:103D3000FE43FE43FE43FE43FE43FE43FE43FE437B
:103D4000FE43FE43FE43FE43FE43FE43FE43FE436B
:103D5000FE43FE43FE43FE43FE43FE43FE43FE435B
:103D6000FE43FE43FE43FE63FE64FE43FE84A44620
:103D7000ACEBFEECFECCFECCFECCFECBFECCFECC07
:103D8000FECCFECCFECCFECCFECCFECCFECCFECCE3
:103D9000FECCFECCFECCFECCFECCFECCFECCFECCD3
:103DA000FECCFECCFECCFECCFECCFECCFECCFECCC3
:103DB000FECCFECCFECCFECCFECCFECCFECCFECCB3
:103DC000FECCFECCFECCFECCFECCFECCFECBFECCA4
:103DD000FEECACEBACC9FECAFE89FE89FEA9FEA8CA
:103DE000FE89FEA9FEA9FEA9FEA9FEA9FEA9FEA9BB
:103DF000FEA9FEA9FEA9FEA9FEA9FEA9FEA9FEA98B
:103E0000FEA9FEA9FEA9FEA9FEA9FEA9FEA9FEA97A
:103E1000FEA9FEA9FEA9FEA9FEA9FEA9FEA9FEA96A
:103E2000FEA9FEA9FEA9FEA9FEA9FEA9FEA9FE897A
:103E3000FEA9FE8AFEAAACCAACC8FE88FE67FE6672
:103E4000FE66FE66FE66FE66FE66FE66FE66FE6652
:103E5000FE66FE66FE66FE66FE66FE66FE66FE6642
:103E6000FE66FE66FE66FE66FE66FE66FE66FE6632
:103E7000FE66FE66FE66FE66FE66FE66FE66FE6622
:103E8000FE66FE66FE66FE66FE66FE66FE66FE6612
:103E9000FE66FE66FE86FE67FEA8ACC9ACC8FE875D
:103EA000FE45FE45FE45FE45FE45FE45FE45FE45FA
:103EB000FE45FE45FE45FE45FE45FE45FE45FE45EA
:103EC000FE45FE45FE45FE45FE45FE45FE45FE45DA
:103ED000FE45FE45FE45FE45FE45FE45FE45FE45CA
:103EE000FE45FE45FE45FE45FE45FE45FE45FE45BA
:103EF000FE45FE45FE45FE64FE65FE45FE86ACC8F9
:103F0000ACA8FE66FE24FE24FE23FE23FE23FE2331
:103F1000FE23FE23FE23FE23FE23FE23FE23FE2399
:103F2000FE23FE23FE23FE23FE23FE23FE23FE2389
:103F3000FE23FE23FE23FE23FE23FE23FE23FE2379
:103F4000FE23FE23FE23FE23FE23FE23FE23FE2369
:103F5000FE23FE23FE23FE23FE23FE23FE23FE2458
:103F6000FE65ACA8ACA7FE44FE02FE02FE02FE0205
:103F7000FE02FE02FE02FE02FE02FE02FE02FE0241
:103F8000FE02FE02FE02FE02FE02FE02FE02FE0231
:103F9000FE02FE02FE02FE02FE02FE02FE02FE0221
:103FA000FE02FE02FE02FE02FE02FE02FE02FE0211
:103FB000FE02FE02FE02FE02FE02FE02FE02FE0201
:103FC000FE02FE03FE44AC87AC87F624FDE1FDE172
:103FD000FDC1FDC1FDC1F5E1FDC1FDC1FDC1FDC1D9
:103FE000FDC1FDC1FDE1FDE1FDE1FDE1FDE1FDE121
:103FF000FDE1FDC1FDC1FDC1FDC1FDC1FDC1FDC1B1
:10400000FDC1FDE1FDE1FDE1FDE1FDE1FDE1FDE1E0
:10401000FDC1FDC1FDC1FDC1FDC1FDC1FDC1FDE190
:10402000FDE1FDE1FDE1FDE1FE23AC87AC86F5E3BA
:10403000F5C0F5A0F5A0F5A0F5A0F5A0F5A0F5A0B8
:10404000F5A0F5A0F5A0F5A0F5A0F5C0FDA0F5A0A0
:10405000F5A0F5C0F5C0F5A0FDA0FDA0FDA0FDA058
:10406000FDA0FDA0F5A0F5A0F5A0FDA0F5A0F5A090
:10407000FDA0F5C0F5A0F5A0F5A0F5A0F5A0F5A070
:10408000F5A0F5A0F5A0F5A0F5A0F5A0F602AC66A8
:10409000A466F5C2F580F580F580F580F580F580A1
:1040A000F580F580F580F580F580F580F580F58068
:1040B000F580F580F580F580F580F580F580F58058
:1040C000F580F580F580F580F580F580F5A0F58028
:1040D000F580F580F5A0F5A0F580F580F580F580F8
:1040E000F580F580F580F580F580F580F580F58028
:1040F000F5E1AC66A466F5A2F560F560F560F560E3
:10410000F560F560F560F560F560F560F560F56007
:10411000F560F560F560F560F560ED60F560ED80E7
:10412000ED60F560F560F560F560F560F560F560EF
:10413000ED60F560F560ED60F560F560F560F560E7
:10414000F560F560F560F560F560F560F560F560C7
:10415000F560F560F5C1AC66A446F582ED40ED4032
:10416000F540ED40ED40F540F540F540F540F540B7
:10417000F540F540F540F540F540F540F540F54097
:10418000F520ED41ED40F540F540F540F540F540B6
:10419000ED40ED40ED40F520F540ED40F520F540D7
:1041A000ED40ED40F540F540F540F540F540F54077
:1041B000ED40ED40F540ED40F5A1A446A446F56282
:1041C000ED20ED00ED20ED20ED20ED20ED20ED20A7
:1041D000ED20ED20ED20ED20ED20ED20ED20ED2077
:1041E000E521C483BC43BC24BC24BC44BC44BC44C3
:1041F000BC44BC44BC44BC44C443ED20ED00ED00D1
:10420000F500ED20ED20ED20ED20ED20ED20ED205E
:10421000ED20ED20ED20ED20ED20ED20ED81A446F8
:10422000A426ED42ED00ED00ECE0ED00ECE0ECE06A
:10423000ED00ED00ED00ED00ED00ED00ED00ED0016
:10424000ED00ECE0DCC28B22A3C4A3C4A3C4A3C4CE
:10425000A3C4A3C4A3C4A3C4A3C4A3C49B82D4E221
:10426000E520E500ECE0ED00E500ED00ED00ED00FF
:10427000ED00ED00ED00ED00ED00ED00ECE0ED00F7
:10428000ED61A426A426ED42E4E0ECE0ECE0ECE0F5
:10429000ECE0ECE0ECE0ECE0ECE0ECE0ECE0ECE0BE
:1042A000ECE0ECE0E4E0ECE0DCC28B018B018B00A5
:1042B0008B018B018B018B018B018B018B018B009F
:1042C0009320DCE392A0DCC3ECE0ECC0ECE0ECE09B
:1042D000ECE0ECE0ECE0ECE0ECE0ECE0ECE0ECE07E
:1042E000ECE0ECE0ED41A426A426ED22E4E0ECE0D5
:1042F000E4C0E4C0E4C0ECC0ECC0ECC0ECC0ECC076
:10430000ECC0ECC0ECC0ECC0ECE0ECC0E4E0E524B8
:10431000ED25E525E525E545E545E545E545E545A5
:10432000E545E545E524ECC1ECC0E4E0E4E0ECC0A3
:10433000ECC0ECC0ECC0ECC0ECC0ECC0ECC0ECC01D
:10434000ECC0ECC0ECC0ECE0ED41A426A426ED22CC
:10435000E4E0ECC0ECC0ECC0ECC0ECC0ECC0ECC0E5
:10436000ECC0ECC0ECC0ECC0ECC0ECC0ECC0ECC0ED
:10437000ECC0ECC0ECC0ECC0ECC0ECC0ECC0ECC0DD
:10438000ECC0ECC0ECC0ECC0ECC0ECC0ECC0ECC0CD
:10439000ECC0ECC0ECC0ECC0ECC0ECC0ECC0ECC0BD
:1043A000ECC0ECC0ECC0ECC0ECC0E4C0ED41A40635
:1043B000A426ED22ECC0ECC0ECC0ECC0ECC0ECC01C
:1043C000ECC0ECC0ECC0ECC0ECC0ECC0ECC0ECC08D
:1043D000ECC0ECC0ECC0ECC0ECC0ECC0ECC0ECC07D
:1043E000ECC0ECC0ECC0ECC0ECC0ECC0ECC0ECC06D
:1043F000ECC0ECC0ECC0ECC0ECC0ECC0ECC0ECC05D
:10440000ECC0ECC0ECC0ECC0ECC0ECC0ECC0E4E034
:10441000ED21A406A426ED22ECE0ECC0ECC0ECC03B
:10442000ECC0ECC0ECC0ECC0ECC0ECC0ECC0ECC02C
:10443000ECC0ECC0ECC0ECC0ECC0ECC0ECC0ECC01C
:10444000ECC0ECC0ECC0ECC0ECC0ECC0ECC0ECC00C
:10445000ECC0ECC0ECC0ECC0ECC0ECC0ECC0ECC0FC
:10446000ECC0ECC0ECC0ECC0ECC0ECC0ECC0ECC0EC
:10447000ECC0ECE0ED41A426A426ED42ECE0ECC05B
:10448000ECE0ECE0ECE0ECC0ECE0ECE0ECE0ECE0EC
:10449000ECE0ECE0ECE0ECE0ECE0ECE0ECE0ECE0BC
:1044A000ECE0ECE0ECE0ECE0ECE0ECE0ECE0ECE0AC
:1044B000ECE0ECE0ECE0ECE0ECE0ECE0ECE0ECE09C
:1044C000ECE0ECE0ECE0ECE0ECE0ECE0ECE0ECE08C
:1044D000ECE0ECE0ECE0ECE0ED41A426A446ED627B
:1044E000ED00ECE0ED00ECE0ECE0ECE0ECE0ECE02A
:1044F000ECE0ECE0ECE0ECE0ECE0ECE0ECE0ECE05C
:10450000ECE0ECE0ECE0ECE0ECE0ECE0ECE0ECE04B
:10451000ECE0ECE0ECE0ECE0ECE0ECE0ECE0ECE03B
:10452000ECE0ECE0ECE0ECE0ECE0ECE0ECE0ECE02B
:10453000ECE0ECE0ECE0ECE0ED00ED00ED62A42658
:10454000A446F583ED41F521F520ED20F520F52178
:10455000ED21ED01ED01ED01ED01ED21ED21ED206C
:10456000ED20ED20ED20ED20ED20ED21ED21ED0100
:10457000ED01ED01ED01ED21ED21ED20ED20ED202E
:10458000ED20ED20ED20ED21ED21ED01ED01ED011E
:10459000ED01ED01ED21ED20ED21ED21F521ED21E4
:1045A000F582AC47A447F5A4F542F542F541F54143
:1045B000F541F541F541F541F541F541F541F5414B
:1045C000F541F541F541F541F541F541F541F5413B
:1045D000F541F541F541F541F541F541F541F5412B
:1045E000F541F541F541F541F541F541F541F5411B
:1045F000F541F541F541F541F541F541F541F5410B
:10460000F542F541F5A3AC47A467F5A4F562F56260
:10461000F562F562F562F562F562F562F562F562E2
:10462000F562F562F562F562F562F562F562F562D2
:10463000F562F562F562F562F562F562F562F562C2
:10464000F562F562F562F562F562F562F562F562B2
:10465000F562F562F562F562F562F562F562F562A2
:10466000F562F542F582F562F5A3AC67AC87F60416
:10467000F5A2F5A2F5A1F582FD82F5A2F5A2F5A2BB
:10468000F5A2F5A2F5A2F5A2F5A2F5A2F5A2F5A272
:10469000F5A2F5A2F5A2F5A2F5A2F5A2F5A2F5A262
:1046A000F5A2F5A2F5A2F5A2F5A2F5A2F5A2F5A252
:1046B000F5A2F5A2F5A2F5A2F5A2F5A2F5A2F5A242
:1046C000F5A2F5A2F5A2FD82F582FDA2FDE4AC689B
:1046D000A46EF647FE43F603F603FE03FE04FE0354
:1046E000FE03FE03FE03FE03FE03FE03FE03FE03C2
:1046F000FE03FE03FE03FE03FE03FE03FE03FE03B2
:10470000FE03FE03FE03FE03FE03FE03FE03FE03A1
:10471000FE03FE03FE03FE03FE03FE03FE03FE0391
:10472000FE03FE03FE03FE03FE03FE03FE03FE2361
:10473000EE28A48DE77B9C8CACA7AC86ACA7ACA67E
:10474000ACA7ACA7ACA6ACA6ACA6ACA6ACA6ACA6D7
:10475000ACA6ACA6ACA6ACA6ACA6ACA6ACA6ACA6C9
:10476000ACA6ACA6ACA6ACA6ACA6ACA6ACA6ACA6B9
:10477000ACA6ACA6ACA6ACA6ACA6ACA6ACA6ACA6A9
:10478000ACA6ACA6ACA6ACA6ACA6ACA6ACA6ACA699
:10479000ACA7AC879C6CEF7D220F220F220F220F5B
:1047A000220F220F220F220F220F220F220F220F81
:1047B000220F220F220F220F220F220F220F220F71
:1047C000220F220F222F222F220F220F220F220F21
:1047D000220F220F220F220F222F222F222F222FD1
:1047E000220F220F220F220F220F220F220F220F41
:1047F000220F220F220F220F220F220F220F220F31
:10480000220F220F220F220F220F220F220F220F20
:10481000220F220F220F220F222F222F222F222F90
:10482000222F222F222F222F222F222F222F222F00
:10483000222F222F222F222F222F222F222F222FF0
:10484000222F222F222F222F222F222F222F222FE0
:10485000222F222F222F222F222F222F222F222FD0
:10486000222F222F222F222F222F222F222F222FC0
:10487000222F222F222F222F222F222F222F222FB0
:10488000222F222F222F222F222F222F222F222FA0
:10489000222F222F222F222F222F222F222F222F90
:1048A000222F222F222F222F222F222F222F222F80
:1048B000222F222F222F222F222F222F222F222F70
:1048C000222F222F222F222F222F222F222F222F60
:1048D000222F222F222F222F222F222F222F222F50
:1048E000222F222F222F222F222F222F222F222F40
:1048F000222F222F222F222F222F222F222F222F30
:10490000222F222F222F222F222F222F222F222F1F
:10491000222F222F222F222F222F222F222F222F0F
:10492000222F222F222F222F222F222F222F222FFF
:10493000222F222F222F222F222F222F222F222FEF
:10494000222F222F222F222F222F222F222F222FDF
:10495000222F222F222F222F222F222F222F222FCF
:10496000222F222F222F222F222F222F222F222FBF
:10497000222F222F222F222F220F220F220F220F2F
:10498000220F220F220F220F220F220F220F220F9F
:10499000220F220F220F220F220F220F220F220F8F
:1049A000220F220F220F220F220F220F220F220F7F
:1049B000220F220F220F220F220F220F220F220F6F
:1049C000220F220F220F220F220F220F220F220F5F
:1049D000220F220F220F220F220F220F220F220F4F
:1049E000220F220F220F220F220F220F220F220F3F
:1049F000220F220F220F220F222F222F222F222FAF
:104A0000222F222F222F222F222F222F222F222F1E
:104A1000222F222F222F222F222F222F222F222F0E
:104A2000222F222F222F222F222F222F222F222FFE
:104A3000222F222F222F222F222F222F222F222FEE
:104A4000222F222F222F222F222F222F222F222FDE
:104A5000222F222F222F222F222F222F222F222FCE
:104A6000222F222F222F222F222F222F222F222FBE
:104A7000222F222F222F222F222F222F222F222FAE
:104A8000222F222F222F222F222F222F222F222F9E
:104A9000222F222F222F222F222F222F222F222F8E
:104AA000222F222F222F222F222F222F222F222F7E
:104AB000222F222F222F222F222F222F222F222F6E
:104AC000222F222F222F222F222F222F222F222F5E
:104AD000222F222F222F222F222F222F222F222F4E
:104AE000222F222F222F222F222F222F222F222F3E
:104AF000222F222F222F222F222F222F222F222F2E
:104B0000222F222F222F222F222F222F222F222F1D
:104B1000222F222F222F222F222F222F222F222F0D
:104B2000220F222F222F222F220F222F222F222F3D
:104B3000222F222F222F222F222F222F222F222FED
:104B4000222F222F222F222F222F222F222F222FDD
:104B5000222F222F222F222F220F220F220F220F4D
:104B6000220F220F220F220F220F220F220F220FBD
:104B7000220F220F220F220F220F220F220F220FAD
:104B8000220F220F220F220F220F220F220F220F9D
:104B9000220F220F220F220F220F220F220F220F8D
:104BA000220F220F220F220F220F220F220F220F7D
:104BB000220F220F220F220F220F220F220F220F6D
:104BC000220F220F220F220F220F220F220F220F5D
:104BD000220F220F220F220F222F222F222F222FCD
:104BE000222F222F222F222F222F222F222F222F3D
:104BF000222F222F222F222F222F222F222F222F2D
:104C0000222F222F222F222F222F222F222F222F1C
:104C1000222F222F222F222F222F222F222F222F0C
:104C2000222F222F222F222F222F222F222F222FFC
:104C3000222F222F222F222F222F222F222F222FEC
:104C4000222F222F222F222F222F222F222F222FDC
:104C5000222F222F222F222F222F222F222F222FCC
:104C6000222F222F222F222F222F222F222F222FBC
:104C7000222F222F222F222F222F222F222F222FAC
:104C8000222F222F222F222F222F222F222F222F9C
:104C9000222F222F222F222F222F222F222F222F8C
:104CA000222F222F222F222F222F222F222F222F7C
:104CB000222F222F222F222F222F222F222F222F6C
:104CC000222F222F222F222F222F222F222F222F5C
:104CD000222F222F222F222F222F222F222F222F4C
:104CE000222F222F222F222F222F222F222F222F3C
:104CF000222F222F222F222F222F222F222F222F2C
:104D0000222F222F222F222F222F222F222F222F1B
:104D1000222F222F222F222F222F222F222F222F0B
:104D2000222F222F222F222F222F222F222F222FFB
:104D3000222F222F222F222F220F220F220F220F6B
:104D4000220F220F220F220F220F220F220F220FDB
:104D5000220F220F220F220F220F220F220F220FCB
:104D6000220F220F220F220F220F220F220F220FBB
:104D7000220F220F222F222F220F220F220F220F6B
:104D8000220F220F220F220F220F220F220F220F9B
:104D9000220F220F220F220F220F220F220F220F8B
:104DA000220F220F220F220F220F220F220F220F7B
:104DB000220F220F220F220F222F222F222F222FEB
:104DC000222F222F222F222F222F222F222F222F5B
:104DD000222F222F222F222F222F222F222F222F4B
:104DE000222F222F222F222F222F222F222F222F3B
:104DF000222F222F222F222F222F222F222F222F2B
:104E0000222F222F222F222F222F222F222F222F1A
:104E1000222F222F222F222F222F222F222F222F0A
:104E2000222F222F222F222F222F222F222F222FFA
:104E3000222F222F222F222F222F222F222F222FEA
:104E4000222F222F222F222F222F222F222F222FDA
:104E5000222F222F222F222F222F222F222F222FCA
:104E6000222F222F222F222F222F222F222F222FBA
:104E7000222F222F222F222F222F222F222F222FAA
:104E8000222F222F222F222F222F222F222F222F9A
:104E9000222F222F222F222F222F222F222F222F8A
:104EA000222F222F222F222F222F222F222F222F7A
:104EB000222F222F222F222F222F222F222F222F6A
:104EC000222F222F222F222F222F222F222F222F5A
:104ED000222F222F222F222F222F222F222F222F4A
:104EE000222F222F222F222F222F222F222F222F3A
:104EF000222F222F222F222F222F222F222F222F2A
:104F0000222F222F222F222F222F222F222F222F19
:104F1000222F222F222F222F220F220F220F220F89
:104F2000220F220F220F220F220F220F220F220FF9
:104F3000220F220F220F220F220F220F220F220FE9
:104F4000220F220F220F222F222F222F222F222F39
:104F5000222F222F222F222F222F222F222F222FC9
:104F6000222F222F222F222F222F222F222F222FB9
:104F7000222F222F222F222F222F222F222F222FA9
:104F8000222F222F222F222F222F222F222F222F99
:104F9000222F222F222F222F222F222F222F222F89
:104FA000222F222F222F222F222F222F222F222F79
:104FB000222F222F222F222F222F222F222F222F69
:104FC000222F222F222F222F222F222F222F222F59
:104FD000222F222F222F222F222F222F222F222F49
:104FE000222F222F222F222F222F222F222F222F39
:104FF000222F222F222F222F222F222F222F222F29
:10500000222F222F222F222F222F222F222F222F18
:10501000222F222F222F222F222F222F222F222F08
:10502000222F222F222F222F222F222F222F222FF8
:10503000222F222F222F222F222F222F222F222FE8
:10504000222F222F222F222F222F222F222F222FD8
:10505000222F222F222F222F222F222F222F222FC8
:10506000222F222F222F222F222F222F222F222FB8
:10507000222F222F222F222F222F222F222F222FA8
:10508000222F222F222F222F222F222F222F222F98
:10509000222F222F222F222F222F222F222F222F88
:1050A000222F222F222F222F222F222F222F222F78
:1050B000222F222F222F222F222F222F222F222F68
:1050C000222F222F222F222F222F222F222F222F58
:1050D000222F222F222F222F222F222F222F222F48
:1050E000222F222F222F222F222F222F222F222F38
:1050F000222F222F222F222F222F222F222F222F28
:10510000222F222F222F222F220F220F220F220F97
:10511000220F220F220F220F220F220F220F220F07
:10512000220F220F222F222F222F222F222F222F37
:10513000222F222F222F222F222F222F222F222FE7
:10514000222F222F222F222F222F222F222F222FD7
:10515000222F222F222F222F222F222F222F222FC7
:10516000222F222F222F222F222F222F222F222FB7
:10517000222F222F222F222F222F222F222F222FA7
:10518000222F222F222F222F222F222F222F222F97
:10519000222F222F222F222F222F222F222F222F87
:1051A000222F222F222F222F222F222F222F222F77
:1051B000222F222F222F222F222F222F222F222F67
:1051C000222F222F222F222F222F222F222F222F57
:1051D000222F222F222F222F222F222F222F222F47
:1051E000222F222F222F222F222F222F222F222F37
:1051F000222F222F222F222F222F222F222F222F27
:10520000222F222F222F222F222F222F222F222F16
:10521000222F222F222F222F222F222F222F222F06
:10522000222F222F222F222F222F222F222F222FF6
:10523000222F222F222F222F222F222F222F222FE6
:10524000222F222F222F222F222F222F222F222FD6
:10525000222F222F222F222F2230223022302230C2
:105260002230223022302230222F222F222F222FB2
:10527000222F222F222F222F222F222F222F222FA6
:10528000222F222F222F222F222F222F222F222F96
:10529000222F222F222F222F222F222F222F222F86
:1052A000222F222F222F222F222F222F222F222F76
:1052B000222F222F222F222F222F222F222F222F66
:1052C000222F222F222F222F222F222F222F222F56
:1052D000222F222F222F222F222F222F222F222F46
:1052E000222F222F222F222F222F222F222F222F36
:1052F000222F222F222F222F222F222F220F220F66
:10530000222F222F222F222F222F222F222F222F15
:10531000222F222F222F222F222F222F222F222F05
:10532000222F222F222F222F222F222F222F222FF5
:10533000222F222F222F222F222F222F222F222FE5
:10534000222F222F222F222F222F222F222F222FD5
:10535000222F222F222F222F222F222F222F222FC5
:10536000222F222F222F222F222F222F222F222FB5
:10537000222F222F222F222F222F222F222F222FA5
:10538000222F222F222F222F222F222F222F222F95
:10539000222F222F222F222F222F222F222F222F85
:1053A000222F222F222F222F222F222F222F222F75
:1053B000222F222F222F222F222F222F222F222F65
:1053C000222F222F222F222F222F222F222F223054
:1053D0002230222F222F222F222F222F222F222F44
:1053E000222F222F222F222F222F222F222F222F35
:1053F000222F222F222F222F222F222F222F222F25
:10540000222F222F222F222F222F222F222F222F14
:10541000222F222F222F222F222F222F222F222F04
:10542000222F222F222F222F222F222F222F222FF4
:10543000222F222F222F222F222F222F222F222FE4
:10544000222F222F222F222F222F222F222F222FD4
:10545000222F222F222F222F222F222F222F222FC4
:10546000222F222F222F224F222F222F222F222F94
:10547000222F222F222F222F224F224F224F224F24
:10548000224F224F222F222F222F222F222F222F54
:10549000222F222F222F222F222F222F222F222F84
:1054A000222F222F222F222F222F222F222F222F74
:1054B000222F222F222F222F222F222F222F222F64
:1054C000222F222F222F222F222F222F222F222F54
:1054D000222F222F222F222F222F222F222F222F44
:1054E000222F222F222F222F222F222F222F222F34
:1054F000222F222F222F222F222F222F222F222F24
:10550000222F222F222F222F222F222F222F222F13
:10551000222F222F222F222F222F222F222F222F03
:10552000222F222F222F222F222F222F222F222FF3
:10553000222F222F222F222F222F222F222F222FE3
:10554000222F222F222F222F222F222F222F222FD3
:10555000222F222F222F222F222F222F222F222FC3
:10556000222F222F222F222F222F222F222F222FB3
:10557000222F222F222F222F222F222F222F222FA3
:10558000222F222F222F222F222F222F222F222F93
:10559000222F222F222F222F222F222F222F222F83
:1055A000222F222F222F222F222F222F222F222F73
:1055B000222F222F222F222F222F222F222F222F63
:1055C000222F222F222F222F222F222F222F222F53
:1055D000222F222F222F222F222F222F222F222F43
:1055E000222F222F222F222F222F222F222F222F33
:1055F000222F222F222F222F222F222F222F222F23
:10560000222F222F222F222F222F222F222F222F12
:10561000222F222F222F222F222F222F222F222F02
:10562000222F222F222F222F222F222F222F222FF2
:10563000222F222F222F222F222F222F222F222FE2
:10564000222F222F222F224F222F222F222F222FB2
:10565000222F222F222F222F224F224F224F224F42
:10566000224F224F222F222F222F222F222F222F72
:10567000222F222F222F222F222F222F222F222FA2
:10568000222F222F222F222F222F222F222F222F92
:10569000222F222F222F222F222F222F222F222F82
:1056A000222F222F222F222F222F222F222F222F72
:1056B000222F222F222F222F222F222F222F222F62
:1056C000222F222F222F222F222F222F222F222F52
:1056D000222F222F222F222F222F222F222F222F42
:1056E000222F222F222F222F222F222F222F222F32
:1056F000222F222F222F222F222F222F222F222F22
:10570000222F222F222F222F220F220F220F222F71
:10571000222F222F222F222F222F222F222F222F01
:10572000222F222F222F222F222F222F222F222FF1
:10573000222F222F222F222F222F222F222F222FE1
:10574000222F222F222F222F222F222F222F222FD1
:10575000222F2230222F222F222F222F222F222FC0
:10576000222F222F222F222F22302230222F222FAF
:10577000222F222F222F222F222F222F222F222FA1
:10578000222F222F222F222F222F222F222F222F91
:10579000222F222F222F222F2230222F222F222F80
:1057A000222F222F222F222F222F222F222F222F71
:1057B000222F222F222F222F222F222F222F222F61
:1057C000222F222F222F222F222F222F222F222F51
:1057D000222F222F22302230222F222F222F222F3F
:1057E000222F222F222F222F222F222F222F222F31
:1057F000222F222F222F222F222F222F222F222F21
:10580000222F222F222F222F222F222F222F22300F
:105810002230222F222F222F222F222F222F222FFF
:10582000222F222F222F222F222F222F222F222FF0
:10583000222F222F222F222F224F224F224F224F60
:10584000224F224F224F224F224F224F222F222F10
:10585000222F222F222F222F222F222F222F222FC0
:10586000222F222F222F222F222F222F222F222FB0
:10587000222F222F222F222F222F222F222F222FA0
:10588000222F222F222F222F222F222F222F222F90
:10589000222F222F222F222F222F222F222F222F80
:1058A000222F222F222F222F222F222F222F222F70
:1058B000222F222F222F222F222F222F222F222F60
:1058C000222F222F222F222F222F222F222F222F50
:1058D000222F222F222F222F222F222F222F222F40
:1058E000222F222F222F222F222F222F222F222F30
:1058F000222F222F222F222F222F222F222F222F20
:10590000222F222F222F222F222F222F222F222F0F
:10591000222F222F222F222F222F222F222F222FFF
:10592000222F222F222F222F222F222F222F222FEF
:10593000222F222F222F222F222F222F222F222FDF
:10594000222F222F222F222F222F222F222F222FCF
:10595000222F222F222F222F222F222F222F222FBF
:10596000222F222F222F222F222F222F222F222FAF
:10597000222F222F222F222F222F222F222F222F9F
:10598000222F222F222F222F222F222F222F222F8F
:10599000222F222F222F222F222F222F222F222F7F
:1059A000222F222F222F222F222F222F222F222F6F
:1059B000222F222F222F222F222F222F222F222F5F
:1059C000222F222F222F222F222F222F222F222F4F
:1059D000222F222F222F222F222F222F222F222F3F
:1059E000222F222F222F222F222F222F222F222F2F
:1059F000222F222F222F222F222F222F222F222F1F
:105A0000222F222F222F222F224F224F224F224F8E
:105A1000224F224F224F224F224F224F224F224FFE
:105A2000224F2250225022502250224F222F222F2A
:105A3000222F222F222F222F222F222F222F222FDE
:105A4000222F222F222F222F222F222F222F222FCE
:105A5000222F222F222F222F222F222F222F222FBE
:105A6000222F222F222F222F222F222F222F222FAE
:105A7000222F222F222F222F222F222F222F222F9E
:105A8000222F222F222F222F222F222F222F222F8E
:105A9000222F222F222F222F222F222F222F222F7E
:105AA000222F222F222F222F222F222F222F222F6E
:105AB000222F222F222F222F222F222F222F222F5E
:105AC000222F222F222F222F22302230222F222F4C
:105AD000222F222F222F222F222F222F222F222F3E
